{
  "transactions": [
    {
      "hash": "0xb60cec07cbbf8d462c8e73b2741cc53ee7437aa2a684ec6a46bfa736a9ba4b9e",
      "transactionType": "CALL",
      "contractName": null,
      "contractAddress": "0xe0b42df543e04bc1a5e92d74ab352799187f0980",
      "function": "proxyCall(address,bytes)",
      "arguments": [
        "0x8fc5936b144b74051d199ea067f0c75F467D4AC5",
        "0x69a6b3db0000000000000000000000000000000000000000000000000000000000000001"
      ],
      "transaction": {
        "from": "0x93af6d19a1738e52295014ac0103b005048df388",
        "to": "0xe0b42df543e04bc1a5e92d74ab352799187f0980",
        "gas": "0x117c3",
        "value": "0x0",
        "input": "0x2a31f6b40000000000000000000000008fc5936b144b74051d199ea067f0c75f467d4ac50000000000000000000000000000000000000000000000000000000000000040000000000000000000000000000000000000000000000000000000000000002469a6b3db000000000000000000000000000000000000000000000000000000000000000100000000000000000000000000000000000000000000000000000000",
        "nonce": "0xc8",
        "chainId": "0xa4b1"
      },
      "additionalContracts": [],
      "isFixedGasLimit": false
    }
  ],
  "receipts": [
    {
      "status": "0x1",
      "cumulativeGasUsed": "0x15bdd",
      "logs": [
        {
          "address": "0x8fc5936b144b74051d199ea067f0c75f467d4ac5",
          "topics": [
            "0x8bc2b99bfe11bf198e76e281430752d814ff2182396d6077862d811084940095",
            "0x000000000000000000000000e0b42df543e04bc1a5e92d74ab352799187f0980"
          ],
          "data": "0x",
          "blockHash": "0x56e8c6ab86866e0b2f32973569f6ed6f8b04a046f0feb95bda3e229a990fd136",
          "blockNumber": "0x1a6dd758",
          "blockTimestamp": "0x69bbd89c",
          "transactionHash": "0xb60cec07cbbf8d462c8e73b2741cc53ee7437aa2a684ec6a46bfa736a9ba4b9e",
          "transactionIndex": "0x2",
          "logIndex": "0x0",
          "removed": false
        }
      ],
      "logsBloom": "0x00000000000000010000000000000000000000000000400000000000000000000000000002000000000000000000000000000000000000000000000000000000000000000000000020000000000000000000000000000000040000100000000000000000000000000000000000000000000000000000000000000000000000000000000000000000000000000000000000000000000000000000000000000000000000000000000000000000000000000000000000000100000000000000000000000000000000000000000000000000000000040000800000000000000000000000000000000000000000000000000000000000000000000000000000000000",
      "type": "0x2",
      "transactionHash": "0xb60cec07cbbf8d462c8e73b2741cc53ee7437aa2a684ec6a46bfa736a9ba4b9e",
      "transactionIndex": "0x2",
      "blockHash": "0x56e8c6ab86866e0b2f32973569f6ed6f8b04a046f0feb95bda3e229a990fd136",
      "blockNumber": "0x1a6dd758",
      "gasUsed": "0xd3d6",
      "effectiveGasPrice": "0x1312d00",
      "from": "0x93af6d19a1738e52295014ac0103b005048df388",
      "to": "0xe0b42df543e04bc1a5e92d74ab352799187f0980",
      "contractAddress": null,
      "gasUsedForL1": "0x142",
      "l1BlockNumber": "0x178c1b3",
      "timeboosted": false
    }
  ],
  "libraries": [
    "../evm/src/libraries/LCCFactoryLib.sol:LCCFactoryLinkedLib:0x42B8987753996202F071f1598Eef6B2a7F82299B",
    "../evm/src/libraries/VTSCommitLib.sol:VTSCommitLib:0x97D09b290896136360857499EA8f6d6F98c3Fb1B",
    "../evm/src/libraries/VTSFeeLib.sol:VTSFeeLinkedLib:0x203f4945f3cf29f34743306d1A33366Da3771bD2",
    "../evm/src/libraries/VTSPositionLib.sol:VTSPositionLib:0x26e024F42D5F766b562fc35701f13B2d5e01A5C2",
    "../evm/src/libraries/VTSSwapLib.sol:VTSSwapLib:0x62ef223B345cF2bCc9c9097F093202c5f8C88f31"
  ],
  "pending": [],
  "returns": {},
  "timestamp": 1773918365019,
  "chain": 42161,
  "commit": "7480930e"
}