{
  "transactions": [
    {
      "hash": null,
      "transactionType": "CALL",
      "contractName": null,
      "contractAddress": "0x667a8a91d6a6b99f455212bf2036d28b3170156a",
      "function": "approve(address,uint256)",
      "arguments": [
        "0x000000000022D473030F116dDEE9F6B43aC78BA3",
        "115792089237316195423570985008687907853269984665640564039457584007913129639935"
      ],
      "transaction": {
        "from": "0x93af6d19a1738e52295014ac0103b005048df388",
        "to": "0x667a8a91d6a6b99f455212bf2036d28b3170156a",
        "gas": "0xeddc",
        "value": "0x0",
        "input": "0x095ea7b3000000000000000000000000000000000022d473030f116ddee9f6b43ac78ba3ffffffffffffffffffffffffffffffffffffffffffffffffffffffffffffffff",
        "nonce": "0xb1",
        "chainId": "0xa4b1"
      },
      "additionalContracts": [],
      "isFixedGasLimit": false
    },
    {
      "hash": null,
      "transactionType": "CALL",
      "contractName": null,
      "contractAddress": "0xb59d6359d6532b8551ffec0530e95c2de00e5983",
      "function": "approve(address,uint256)",
      "arguments": [
        "0x000000000022D473030F116dDEE9F6B43aC78BA3",
        "115792089237316195423570985008687907853269984665640564039457584007913129639935"
      ],
      "transaction": {
        "from": "0x93af6d19a1738e52295014ac0103b005048df388",
        "to": "0xb59d6359d6532b8551ffec0530e95c2de00e5983",
        "gas": "0xeddc",
        "value": "0x0",
        "input": "0x095ea7b3000000000000000000000000000000000022d473030f116ddee9f6b43ac78ba3ffffffffffffffffffffffffffffffffffffffffffffffffffffffffffffffff",
        "nonce": "0xb2",
        "chainId": "0xa4b1"
      },
      "additionalContracts": [],
      "isFixedGasLimit": false
    },
    {
      "hash": null,
      "transactionType": "CALL",
      "contractName": null,
      "contractAddress": "0xfd086bc7cd5c481dcc9c85ebe478a1c0b69fcbb9",
      "function": "approve(address,uint256)",
      "arguments": [
        "0x27890DdF42fdd25c4af81B9F908A2C4cbad58613",
        "115792089237316195423570985008687907853269984665640564039457584007913129639935"
      ],
      "transaction": {
        "from": "0x93af6d19a1738e52295014ac0103b005048df388",
        "to": "0xfd086bc7cd5c481dcc9c85ebe478a1c0b69fcbb9",
        "gas": "0x1173c",
        "value": "0x0",
        "input": "0x095ea7b300000000000000000000000027890ddf42fdd25c4af81b9f908a2c4cbad58613ffffffffffffffffffffffffffffffffffffffffffffffffffffffffffffffff",
        "nonce": "0xb3",
        "chainId": "0xa4b1"
      },
      "additionalContracts": [],
      "isFixedGasLimit": false
    },
    {
      "hash": null,
      "transactionType": "CALL",
      "contractName": null,
      "contractAddress": "0x912ce59144191c1204e64559fe8253a0e49e6548",
      "function": "approve(address,uint256)",
      "arguments": [
        "0x27890DdF42fdd25c4af81B9F908A2C4cbad58613",
        "115792089237316195423570985008687907853269984665640564039457584007913129639935"
      ],
      "transaction": {
        "from": "0x93af6d19a1738e52295014ac0103b005048df388",
        "to": "0x912ce59144191c1204e64559fe8253a0e49e6548",
        "gas": "0x11697",
        "value": "0x0",
        "input": "0x095ea7b300000000000000000000000027890ddf42fdd25c4af81b9f908a2c4cbad58613ffffffffffffffffffffffffffffffffffffffffffffffffffffffffffffffff",
        "nonce": "0xb4",
        "chainId": "0xa4b1"
      },
      "additionalContracts": [],
      "isFixedGasLimit": false
    },
    {
      "hash": null,
      "transactionType": "CALL",
      "contractName": null,
      "contractAddress": "0x912ce59144191c1204e64559fe8253a0e49e6548",
      "function": "approve(address,uint256)",
      "arguments": [
        "0x000000000022D473030F116dDEE9F6B43aC78BA3",
        "115792089237316195423570985008687907853269984665640564039457584007913129639935"
      ],
      "transaction": {
        "from": "0x93af6d19a1738e52295014ac0103b005048df388",
        "to": "0x912ce59144191c1204e64559fe8253a0e49e6548",
        "gas": "0x11649",
        "value": "0x0",
        "input": "0x095ea7b3000000000000000000000000000000000022d473030f116ddee9f6b43ac78ba3ffffffffffffffffffffffffffffffffffffffffffffffffffffffffffffffff",
        "nonce": "0xb5",
        "chainId": "0xa4b1"
      },
      "additionalContracts": [],
      "isFixedGasLimit": false
    },
    {
      "hash": null,
      "transactionType": "CALL",
      "contractName": null,
      "contractAddress": "0x000000000022d473030f116ddee9f6b43ac78ba3",
      "function": "approve(address,address,uint160,uint48)",
      "arguments": [
        "0x667a8a91d6A6b99f455212Bf2036D28b3170156A",
        "0xd88F38F930b7952f2DB2432Cb002E7abbF3dD869",
        "1461501637330902918203684832716283019655932542975",
        "1772803345"
      ],
      "transaction": {
        "from": "0x93af6d19a1738e52295014ac0103b005048df388",
        "to": "0x000000000022d473030f116ddee9f6b43ac78ba3",
        "gas": "0xf67a",
        "value": "0x0",
        "input": "0x87517c45000000000000000000000000667a8a91d6a6b99f455212bf2036d28b3170156a000000000000000000000000d88f38f930b7952f2db2432cb002e7abbf3dd869000000000000000000000000ffffffffffffffffffffffffffffffffffffffff0000000000000000000000000000000000000000000000000000000069aad511",
        "nonce": "0xb6",
        "chainId": "0xa4b1"
      },
      "additionalContracts": [],
      "isFixedGasLimit": false
    },
    {
      "hash": null,
      "transactionType": "CALL",
      "contractName": null,
      "contractAddress": "0x000000000022d473030f116ddee9f6b43ac78ba3",
      "function": "approve(address,address,uint160,uint48)",
      "arguments": [
        "0xB59d6359d6532B8551FFEC0530e95c2de00e5983",
        "0xd88F38F930b7952f2DB2432Cb002E7abbF3dD869",
        "1461501637330902918203684832716283019655932542975",
        "1772803345"
      ],
      "transaction": {
        "from": "0x93af6d19a1738e52295014ac0103b005048df388",
        "to": "0x000000000022d473030f116ddee9f6b43ac78ba3",
        "gas": "0xf67a",
        "value": "0x0",
        "input": "0x87517c45000000000000000000000000b59d6359d6532b8551ffec0530e95c2de00e5983000000000000000000000000d88f38f930b7952f2db2432cb002e7abbf3dd869000000000000000000000000ffffffffffffffffffffffffffffffffffffffff0000000000000000000000000000000000000000000000000000000069aad511",
        "nonce": "0xb7",
        "chainId": "0xa4b1"
      },
      "additionalContracts": [],
      "isFixedGasLimit": false
    },
    {
      "hash": null,
      "transactionType": "CALL",
      "contractName": null,
      "contractAddress": "0x27890ddf42fdd25c4af81b9f908a2c4cbad58613",
      "function": "wrap(address,uint256)",
      "arguments": [
        "0x667a8a91d6A6b99f455212Bf2036D28b3170156A",
        "500000000"
      ],
      "transaction": {
        "from": "0x93af6d19a1738e52295014ac0103b005048df388",
        "to": "0x27890ddf42fdd25c4af81b9f908a2c4cbad58613",
        "gas": "0x45ba6",
        "value": "0x0",
        "input": "0xbf376c7a000000000000000000000000667a8a91d6a6b99f455212bf2036d28b3170156a000000000000000000000000000000000000000000000000000000001dcd6500",
        "nonce": "0xb8",
        "chainId": "0xa4b1"
      },
      "additionalContracts": [],
      "isFixedGasLimit": false
    },
    {
      "hash": null,
      "transactionType": "CALL",
      "contractName": null,
      "contractAddress": "0x27890ddf42fdd25c4af81b9f908a2c4cbad58613",
      "function": "wrap(address,uint256)",
      "arguments": [
        "0xB59d6359d6532B8551FFEC0530e95c2de00e5983",
        "4796109451020709142564"
      ],
      "transaction": {
        "from": "0x93af6d19a1738e52295014ac0103b005048df388",
        "to": "0x27890ddf42fdd25c4af81b9f908a2c4cbad58613",
        "gas": "0x4412f",
        "value": "0x0",
        "input": "0xbf376c7a000000000000000000000000b59d6359d6532b8551ffec0530e95c2de00e5983000000000000000000000000000000000000000000000103ff63a6d38f1c2024",
        "nonce": "0xb9",
        "chainId": "0xa4b1"
      },
      "additionalContracts": [],
      "isFixedGasLimit": false
    },
    {
      "hash": null,
      "transactionType": "CALL",
      "contractName": null,
      "contractAddress": "0xd88f38f930b7952f2db2432cb002e7abbf3dd869",
      "function": "modifyLiquidities(bytes,uint256)",
      "arguments": [
        "0x000000000000000000000000000000000000000000000000000000000000004000000000000000000000000000000000000000000000000000000000000000800000000000000000000000000000000000000000000000000000000000000002020d00000000000000000000000000000000000000000000000000000000000000000000000000000000000000000000000000000000000000000000000000020000000000000000000000000000000000000000000000000000000000000040000000000000000000000000000000000000000000000000000000000000020000000000000000000000000000000000000000000000000000000000000001a0000000000000000000000000667a8a91d6a6b99f455212bf2036d28b3170156a000000000000000000000000b59d6359d6532b8551ffec0530e95c2de00e598300000000000000000000000000000000000000000000000000000000000001f4000000000000000000000000000000000000000000000000000000000000000a000000000000000000000000ccfc96413ca7ddc9d8d0463c3abd3145a8596fc3fffffffffffffffffffffffffffffffffffffffffffffffffffffffffff2764c00000000000000000000000000000000000000000000000000000000000d89b400000000000000000000000000000000000000000000000000058069792e9142000000000000000000000000000000000000000000000000000000001dcd6500000000000000000000000000000000000000000000000103ff63a6d38f1c202400000000000000000000000093af6d19a1738e52295014ac0103b005048df388000000000000000000000000000000000000000000000000000000000000018000000000000000000000000000000000000000000000000000000000000000000000000000000000000000000000000000000000000000000000000000000040000000000000000000000000667a8a91d6a6b99f455212bf2036d28b3170156a000000000000000000000000b59d6359d6532b8551ffec0530e95c2de00e5983",
        "1772717245"
      ],
      "transaction": {
        "from": "0x93af6d19a1738e52295014ac0103b005048df388",
        "to": "0xd88f38f930b7952f2db2432cb002e7abbf3dd869",
        "gas": "0x1638ef",
        "value": "0x0",
        "input": "0xdd46508f00000000000000000000000000000000000000000000000000000000000000400000000000000000000000000000000000000000000000000000000069a984bd0000000000000000000000000000000000000000000000000000000000000300000000000000000000000000000000000000000000000000000000000000004000000000000000000000000000000000000000000000000000000000000000800000000000000000000000000000000000000000000000000000000000000002020d00000000000000000000000000000000000000000000000000000000000000000000000000000000000000000000000000000000000000000000000000020000000000000000000000000000000000000000000000000000000000000040000000000000000000000000000000000000000000000000000000000000020000000000000000000000000000000000000000000000000000000000000001a0000000000000000000000000667a8a91d6a6b99f455212bf2036d28b3170156a000000000000000000000000b59d6359d6532b8551ffec0530e95c2de00e598300000000000000000000000000000000000000000000000000000000000001f4000000000000000000000000000000000000000000000000000000000000000a000000000000000000000000ccfc96413ca7ddc9d8d0463c3abd3145a8596fc3fffffffffffffffffffffffffffffffffffffffffffffffffffffffffff2764c00000000000000000000000000000000000000000000000000000000000d89b400000000000000000000000000000000000000000000000000058069792e9142000000000000000000000000000000000000000000000000000000001dcd6500000000000000000000000000000000000000000000000103ff63a6d38f1c202400000000000000000000000093af6d19a1738e52295014ac0103b005048df388000000000000000000000000000000000000000000000000000000000000018000000000000000000000000000000000000000000000000000000000000000000000000000000000000000000000000000000000000000000000000000000040000000000000000000000000667a8a91d6a6b99f455212bf2036d28b3170156a000000000000000000000000b59d6359d6532b8551ffec0530e95c2de00e5983",
        "nonce": "0xba",
        "chainId": "0xa4b1"
      },
      "additionalContracts": [],
      "isFixedGasLimit": false
    }
  ],
  "receipts": [],
  "libraries": [],
  "pending": [],
  "returns": {},
  "timestamp": 1772716986086,
  "chain": 42161,
  "commit": "6e9ca469"
}