{
  "transactions": [
    {
      "hash": "0xde9207cf7174c47e8fa6f7cb02c60c930e3885efab40f39f1f0d2cd912538715",
      "transactionType": "CALL",
      "contractName": null,
      "contractAddress": "0xe0b42df543e04bc1a5e92d74ab352799187f0980",
      "function": "proxyCall(address,bytes)",
      "arguments": [
        "0x34e24c8b1B5413A3031248Eb079a4b5DB353245b",
        "0x392787d2000000000000000000000000fd086bc7cd5c481dcc9c85ebe478a1c0b69fcbb90000000000000000000000003f3f5df88dc9f13eac63df89ec16ef6e7e25dde70000000000000000000000000000000000000000000000000000000000000e10"
      ],
      "transaction": {
        "from": "0x93af6d19a1738e52295014ac0103b005048df388",
        "to": "0xe0b42df543e04bc1a5e92d74ab352799187f0980",
        "value": "0x0",
        "input": "0x2a31f6b400000000000000000000000034e24c8b1b5413a3031248eb079a4b5db353245b00000000000000000000000000000000000000000000000000000000000000400000000000000000000000000000000000000000000000000000000000000064392787d2000000000000000000000000fd086bc7cd5c481dcc9c85ebe478a1c0b69fcbb90000000000000000000000003f3f5df88dc9f13eac63df89ec16ef6e7e25dde70000000000000000000000000000000000000000000000000000000000000e1000000000000000000000000000000000000000000000000000000000",
        "nonce": "0xa9",
        "chainId": "0xa4b1"
      },
      "additionalContracts": [],
      "isFixedGasLimit": false
    },
    {
      "hash": "0xfa3d34d862e9ac5df025a49f728d5c2d1c9724126bd06ad22a898d078fd1e7d2",
      "transactionType": "CALL",
      "contractName": null,
      "contractAddress": "0xe0b42df543e04bc1a5e92d74ab352799187f0980",
      "function": "proxyCall(address,bytes)",
      "arguments": [
        "0xee9F85a6128182D83d7f27492f515A89BEc0C13b",
        "0xa8e68463000000000000000000000000fd086bc7cd5c481dcc9c85ebe478a1c0b69fcbb900000000000000000000000034e24c8b1b5413a3031248eb079a4b5db353245b000000000000000000000000000000000000000000000000000000000000000000000000000000000000000000000000000000000000000000000000000000000000000000000000000000000000000000000000000000000000000000000001000000000000000000000000000000000000000000000000000000000000000000000000000000000000000000000000000000000000000000000000000000000000000000000000000000000000000000000000000000000000000000000001"
      ],
      "transaction": {
        "from": "0x93af6d19a1738e52295014ac0103b005048df388",
        "to": "0xe0b42df543e04bc1a5e92d74ab352799187f0980",
        "value": "0x0",
        "input": "0x2a31f6b4000000000000000000000000ee9f85a6128182d83d7f27492f515a89bec0c13b00000000000000000000000000000000000000000000000000000000000000400000000000000000000000000000000000000000000000000000000000000104a8e68463000000000000000000000000fd086bc7cd5c481dcc9c85ebe478a1c0b69fcbb900000000000000000000000034e24c8b1b5413a3031248eb079a4b5db353245b00000000000000000000000000000000000000000000000000000000000000000000000000000000000000000000000000000000000000000000000000000000000000000000000000000000000000000000000000000000000000000000000100000000000000000000000000000000000000000000000000000000000000000000000000000000000000000000000000000000000000000000000000000000000000000000000000000000000000000000000000000000000000000000000100000000000000000000000000000000000000000000000000000000",
        "nonce": "0xaa",
        "chainId": "0xa4b1"
      },
      "additionalContracts": [],
      "isFixedGasLimit": false
    },
    {
      "hash": "0x48564fadcb08cded3149ee579d31e4cc2c7896cad7825e3118b411501a2a4077",
      "transactionType": "CALL",
      "contractName": null,
      "contractAddress": "0xe0b42df543e04bc1a5e92d74ab352799187f0980",
      "function": "proxyCall(address,bytes)",
      "arguments": [
        "0x6A3C07bc08EEf97ceA3FA9b62Dc2c13D6E28A294",
        "0xa34286f20000000000000000000000000000000000000000000000000000000000000040000000000000000000000000fd086bc7cd5c481dcc9c85ebe478a1c0b69fcbb900000000000000000000000000000000000000000000000000000000000000045553445400000000000000000000000000000000000000000000000000000000"
      ],
      "transaction": {
        "from": "0x93af6d19a1738e52295014ac0103b005048df388",
        "to": "0xe0b42df543e04bc1a5e92d74ab352799187f0980",
        "value": "0x0",
        "input": "0x2a31f6b40000000000000000000000006a3c07bc08eef97cea3fa9b62dc2c13d6e28a29400000000000000000000000000000000000000000000000000000000000000400000000000000000000000000000000000000000000000000000000000000084a34286f20000000000000000000000000000000000000000000000000000000000000040000000000000000000000000fd086bc7cd5c481dcc9c85ebe478a1c0b69fcbb90000000000000000000000000000000000000000000000000000000000000004555344540000000000000000000000000000000000000000000000000000000000000000000000000000000000000000000000000000000000000000",
        "nonce": "0xab",
        "chainId": "0xa4b1"
      },
      "additionalContracts": [],
      "isFixedGasLimit": false
    },
    {
      "hash": "0xf2f1319906ef9a58c3598f2799ce62dadf16ced912d0bff14fa3579873e31d3a",
      "transactionType": "CALL",
      "contractName": null,
      "contractAddress": "0xe0b42df543e04bc1a5e92d74ab352799187f0980",
      "function": "proxyCall(address,bytes)",
      "arguments": [
        "0x34e24c8b1B5413A3031248Eb079a4b5DB353245b",
        "0x392787d2000000000000000000000000912ce59144191c1204e64559fe8253a0e49e6548000000000000000000000000b2a824043730fe05f3da2efafa1cbbe83fa548d60000000000000000000000000000000000000000000000000000000000000e10"
      ],
      "transaction": {
        "from": "0x93af6d19a1738e52295014ac0103b005048df388",
        "to": "0xe0b42df543e04bc1a5e92d74ab352799187f0980",
        "value": "0x0",
        "input": "0x2a31f6b400000000000000000000000034e24c8b1b5413a3031248eb079a4b5db353245b00000000000000000000000000000000000000000000000000000000000000400000000000000000000000000000000000000000000000000000000000000064392787d2000000000000000000000000912ce59144191c1204e64559fe8253a0e49e6548000000000000000000000000b2a824043730fe05f3da2efafa1cbbe83fa548d60000000000000000000000000000000000000000000000000000000000000e1000000000000000000000000000000000000000000000000000000000",
        "nonce": "0xac",
        "chainId": "0xa4b1"
      },
      "additionalContracts": [],
      "isFixedGasLimit": false
    },
    {
      "hash": "0x0acbfc35037ad55ea6319e90f1d66dc66281222548109cfc5d2a65e4b95bb440",
      "transactionType": "CALL",
      "contractName": null,
      "contractAddress": "0xe0b42df543e04bc1a5e92d74ab352799187f0980",
      "function": "proxyCall(address,bytes)",
      "arguments": [
        "0xee9F85a6128182D83d7f27492f515A89BEc0C13b",
        "0xa8e68463000000000000000000000000912ce59144191c1204e64559fe8253a0e49e654800000000000000000000000034e24c8b1b5413a3031248eb079a4b5db353245b000000000000000000000000000000000000000000000000000000000000000000000000000000000000000000000000000000000000000000000000000000000000000000000000000000000000000000000000000000000000000000000001000000000000000000000000000000000000000000000000000000000000000000000000000000000000000000000000000000000000000000000000000000000000000000000000000000000000000000000000000000000000000000000001"
      ],
      "transaction": {
        "from": "0x93af6d19a1738e52295014ac0103b005048df388",
        "to": "0xe0b42df543e04bc1a5e92d74ab352799187f0980",
        "value": "0x0",
        "input": "0x2a31f6b4000000000000000000000000ee9f85a6128182d83d7f27492f515a89bec0c13b00000000000000000000000000000000000000000000000000000000000000400000000000000000000000000000000000000000000000000000000000000104a8e68463000000000000000000000000912ce59144191c1204e64559fe8253a0e49e654800000000000000000000000034e24c8b1b5413a3031248eb079a4b5db353245b00000000000000000000000000000000000000000000000000000000000000000000000000000000000000000000000000000000000000000000000000000000000000000000000000000000000000000000000000000000000000000000000100000000000000000000000000000000000000000000000000000000000000000000000000000000000000000000000000000000000000000000000000000000000000000000000000000000000000000000000000000000000000000000000100000000000000000000000000000000000000000000000000000000",
        "nonce": "0xad",
        "chainId": "0xa4b1"
      },
      "additionalContracts": [],
      "isFixedGasLimit": false
    },
    {
      "hash": "0x99c066e5c533aab366f9ae47f20df130a16b6319ae5711ba22ef6bf51f846a83",
      "transactionType": "CALL",
      "contractName": null,
      "contractAddress": "0xe0b42df543e04bc1a5e92d74ab352799187f0980",
      "function": "proxyCall(address,bytes)",
      "arguments": [
        "0x6A3C07bc08EEf97ceA3FA9b62Dc2c13D6E28A294",
        "0xa34286f20000000000000000000000000000000000000000000000000000000000000040000000000000000000000000912ce59144191c1204e64559fe8253a0e49e654800000000000000000000000000000000000000000000000000000000000000034152420000000000000000000000000000000000000000000000000000000000"
      ],
      "transaction": {
        "from": "0x93af6d19a1738e52295014ac0103b005048df388",
        "to": "0xe0b42df543e04bc1a5e92d74ab352799187f0980",
        "value": "0x0",
        "input": "0x2a31f6b40000000000000000000000006a3c07bc08eef97cea3fa9b62dc2c13d6e28a29400000000000000000000000000000000000000000000000000000000000000400000000000000000000000000000000000000000000000000000000000000084a34286f20000000000000000000000000000000000000000000000000000000000000040000000000000000000000000912ce59144191c1204e64559fe8253a0e49e65480000000000000000000000000000000000000000000000000000000000000003415242000000000000000000000000000000000000000000000000000000000000000000000000000000000000000000000000000000000000000000",
        "nonce": "0xae",
        "chainId": "0xa4b1"
      },
      "additionalContracts": [],
      "isFixedGasLimit": false
    }
  ],
  "receipts": [
    {
      "status": "0x1",
      "cumulativeGasUsed": "0x27187",
      "logs": [
        {
          "address": "0x34e24c8b1b5413a3031248eb079a4b5db353245b",
          "topics": [
            "0x3cc8d9cb9370a23a8b9ffa75efa24cecb65c4693980e58260841adc474983c5f",
            "0x000000000000000000000000fd086bc7cd5c481dcc9c85ebe478a1c0b69fcbb9"
          ],
          "data": "0x0000000000000000000000003f3f5df88dc9f13eac63df89ec16ef6e7e25dde70000000000000000000000000000000000000000000000000000000000000e10",
          "blockHash": "0x26d84eff8011f6646c8617c39a87f90ca9c9b0555d2ebd3609cb557de489e358",
          "blockNumber": "0x1a060683",
          "blockTimestamp": "0x69a1e5d3",
          "transactionHash": "0xde9207cf7174c47e8fa6f7cb02c60c930e3885efab40f39f1f0d2cd912538715",
          "transactionIndex": "0x2",
          "logIndex": "0x0",
          "removed": false
        }
      ],
      "logsBloom": "0x00000000000000000000000000000000000000000000000000000000000000000000000000000000000000000000000000000000000000000000000000000000000000010001000000000000000000000000000000000000004000000000000000002000000000000000000000000000000000000800000000000000020000000000000000000000000000000000000000000000000000000000000000000000000000000000000000000000000000000000000000000000000000000000000000000000000000000000000000000000000000000000200000000000000000000000000000000000000000000000000000000000000000000000080000020000",
      "type": "0x2",
      "transactionHash": "0xde9207cf7174c47e8fa6f7cb02c60c930e3885efab40f39f1f0d2cd912538715",
      "transactionIndex": "0x2",
      "blockHash": "0x26d84eff8011f6646c8617c39a87f90ca9c9b0555d2ebd3609cb557de489e358",
      "blockNumber": "0x1a060683",
      "gasUsed": "0x1b328",
      "effectiveGasPrice": "0x1312d00",
      "from": "0x93af6d19a1738e52295014ac0103b005048df388",
      "to": "0xe0b42df543e04bc1a5e92d74ab352799187f0980",
      "contractAddress": null,
      "gasUsedForL1": "0x11c",
      "l1BlockNumber": "0x1769af5",
      "timeboosted": false
    },
    {
      "status": "0x1",
      "cumulativeGasUsed": "0xbbfba",
      "logs": [
        {
          "address": "0xee9f85a6128182d83d7f27492f515a89bec0c13b",
          "topics": [
            "0xa51ad01e2270c314a7b78f0c60fe66c723f2d06c121d63fcdce776e654878fc1",
            "0x000000000000000000000000fd086bc7cd5c481dcc9c85ebe478a1c0b69fcbb9",
            "0x00000000000000000000000034e24c8b1b5413a3031248eb079a4b5db353245b",
            "0x0000000000000000000000000000000000000000000000000000000000000000"
          ],
          "data": "0x0000000000000000000000000000000000000000000000000000000000000000",
          "blockHash": "0x86d486b77ca3e61297d57fa41ce85b152a3c1aba8179da1720481047f33869e1",
          "blockNumber": "0x1a06068c",
          "blockTimestamp": "0x69a1e5d5",
          "transactionHash": "0xfa3d34d862e9ac5df025a49f728d5c2d1c9724126bd06ad22a898d078fd1e7d2",
          "transactionIndex": "0x6",
          "logIndex": "0x0",
          "removed": false
        },
        {
          "address": "0xee9f85a6128182d83d7f27492f515a89bec0c13b",
          "topics": [
            "0xca250c5374abedcbf71c0e3eda7ff4cf940fa9e6561d8cd31d2bf480a140a93f",
            "0x000000000000000000000000fd086bc7cd5c481dcc9c85ebe478a1c0b69fcbb9",
            "0x0000000000000000000000000000000000000000000000000000000000000001"
          ],
          "data": "0x",
          "blockHash": "0x86d486b77ca3e61297d57fa41ce85b152a3c1aba8179da1720481047f33869e1",
          "blockNumber": "0x1a06068c",
          "blockTimestamp": "0x69a1e5d5",
          "transactionHash": "0xfa3d34d862e9ac5df025a49f728d5c2d1c9724126bd06ad22a898d078fd1e7d2",
          "transactionIndex": "0x6",
          "logIndex": "0x1",
          "removed": false
        }
      ],
      "logsBloom": "0x00000000000000000000000000000040000000108000400000000000000040000000000000000000000000000000000000000000000000000000000000040000080000000000000000000000000000000080000000440000004000000000000000000000020000000000000000000800000000000000000000000000000000000000000000000000000000000000000000000000000000000000000000000000000000000000000000000000000000000000000000000000000000000800000040000000000002000000000000000000000000000000200000000000000060000000000000000000000000000000000000000000000010000000080000000000",
      "type": "0x2",
      "transactionHash": "0xfa3d34d862e9ac5df025a49f728d5c2d1c9724126bd06ad22a898d078fd1e7d2",
      "transactionIndex": "0x6",
      "blockHash": "0x86d486b77ca3e61297d57fa41ce85b152a3c1aba8179da1720481047f33869e1",
      "blockNumber": "0x1a06068c",
      "gasUsed": "0x25bbb",
      "effectiveGasPrice": "0x1327520",
      "from": "0x93af6d19a1738e52295014ac0103b005048df388",
      "to": "0xe0b42df543e04bc1a5e92d74ab352799187f0980",
      "contractAddress": null,
      "gasUsedForL1": "0x12a",
      "l1BlockNumber": "0x1769af5",
      "timeboosted": false
    },
    {
      "status": "0x1",
      "cumulativeGasUsed": "0x55ff8",
      "logs": [
        {
          "address": "0x6a3c07bc08eef97cea3fa9b62dc2c13d6e28a294",
          "topics": [
            "0x755e629f5586668cfa19c975ad3df60babb106c31673f67180f934423dca3a4c",
            "0x8b1a1d9c2b109e527c9134b25b1a1833b16b6594f92daa9f6d9b7a6024bce9d0",
            "0x8b1a1d9c2b109e527c9134b25b1a1833b16b6594f92daa9f6d9b7a6024bce9d0",
            "0x000000000000000000000000fd086bc7cd5c481dcc9c85ebe478a1c0b69fcbb9"
          ],
          "data": "0x",
          "blockHash": "0x833f9a23d1994b150ca824677bd505bfe66f7b8e48ec379987cc883b61bab7f5",
          "blockNumber": "0x1a060695",
          "blockTimestamp": "0x69a1e5d7",
          "transactionHash": "0x48564fadcb08cded3149ee579d31e4cc2c7896cad7825e3118b411501a2a4077",
          "transactionIndex": "0x4",
          "logIndex": "0x5",
          "removed": false
        }
      ],
      "logsBloom": "0x00000000000000000000000000000000000000000000000000000000000000000000000000000000000000000000000000000000004000000000000000000040000000000000000000000000000000020000000000000000004000000000000000000000000000040000000000000000000000000000000000000000000000000000000000000000000000000000000000000000000000000000000000000000000000000400000000000000004080000000000000000800000000000000000000000000000200000000000000000000000000000000200000000000000000000000000000000000000000000000000000000000000000000000080000000000",
      "type": "0x2",
      "transactionHash": "0x48564fadcb08cded3149ee579d31e4cc2c7896cad7825e3118b411501a2a4077",
      "transactionIndex": "0x4",
      "blockHash": "0x833f9a23d1994b150ca824677bd505bfe66f7b8e48ec379987cc883b61bab7f5",
      "blockNumber": "0x1a060695",
      "gasUsed": "0xda1b",
      "effectiveGasPrice": "0x131b9a0",
      "from": "0x93af6d19a1738e52295014ac0103b005048df388",
      "to": "0xe0b42df543e04bc1a5e92d74ab352799187f0980",
      "contractAddress": null,
      "gasUsedForL1": "0x107",
      "l1BlockNumber": "0x1769af6",
      "timeboosted": false
    },
    {
      "status": "0x1",
      "cumulativeGasUsed": "0x4954f",
      "logs": [
        {
          "address": "0x34e24c8b1b5413a3031248eb079a4b5db353245b",
          "topics": [
            "0x3cc8d9cb9370a23a8b9ffa75efa24cecb65c4693980e58260841adc474983c5f",
            "0x000000000000000000000000912ce59144191c1204e64559fe8253a0e49e6548"
          ],
          "data": "0x000000000000000000000000b2a824043730fe05f3da2efafa1cbbe83fa548d60000000000000000000000000000000000000000000000000000000000000e10",
          "blockHash": "0x56495a0f3b306eef0ec2198149e6aeee000a4fb9c993ae52c5670207a991704c",
          "blockNumber": "0x1a06069e",
          "blockTimestamp": "0x69a1e5da",
          "transactionHash": "0xf2f1319906ef9a58c3598f2799ce62dadf16ced912d0bff14fa3579873e31d3a",
          "transactionIndex": "0x4",
          "logIndex": "0x2",
          "removed": false
        }
      ],
      "logsBloom": "0x00000000000000000000000000000000000000000000000000000000000000000000000000000000000000000000000000000000000000000000000000000080000000010001000000000000000000000000000000000000000000000000000010002000000000000000000000000000000000000800000000000000020000000000000000000000000000000000000000000000000000000000000000000000000000000000000000000000000000000000000000000000000000000000000000000000000000000000000000000000000000000000000000000000000000000000000000002000000000000000000000000000000000000000000000020000",
      "type": "0x2",
      "transactionHash": "0xf2f1319906ef9a58c3598f2799ce62dadf16ced912d0bff14fa3579873e31d3a",
      "transactionIndex": "0x4",
      "blockHash": "0x56495a0f3b306eef0ec2198149e6aeee000a4fb9c993ae52c5670207a991704c",
      "blockNumber": "0x1a06069e",
      "gasUsed": "0x1b324",
      "effectiveGasPrice": "0x134fd90",
      "from": "0x93af6d19a1738e52295014ac0103b005048df388",
      "to": "0xe0b42df543e04bc1a5e92d74ab352799187f0980",
      "contractAddress": null,
      "gasUsedForL1": "0x118",
      "l1BlockNumber": "0x1769af6",
      "timeboosted": false
    },
    {
      "status": "0x1",
      "cumulativeGasUsed": "0x37e8d",
      "logs": [
        {
          "address": "0xee9f85a6128182d83d7f27492f515a89bec0c13b",
          "topics": [
            "0xa51ad01e2270c314a7b78f0c60fe66c723f2d06c121d63fcdce776e654878fc1",
            "0x000000000000000000000000912ce59144191c1204e64559fe8253a0e49e6548",
            "0x00000000000000000000000034e24c8b1b5413a3031248eb079a4b5db353245b",
            "0x0000000000000000000000000000000000000000000000000000000000000000"
          ],
          "data": "0x0000000000000000000000000000000000000000000000000000000000000000",
          "blockHash": "0x1fd173123803370675fbb3012940eb7c3dd64c9b290dce2842f3eab715924b9e",
          "blockNumber": "0x1a0606a7",
          "blockTimestamp": "0x69a1e5dc",
          "transactionHash": "0x0acbfc35037ad55ea6319e90f1d66dc66281222548109cfc5d2a65e4b95bb440",
          "transactionIndex": "0x3",
          "logIndex": "0x1",
          "removed": false
        },
        {
          "address": "0xee9f85a6128182d83d7f27492f515a89bec0c13b",
          "topics": [
            "0xca250c5374abedcbf71c0e3eda7ff4cf940fa9e6561d8cd31d2bf480a140a93f",
            "0x000000000000000000000000912ce59144191c1204e64559fe8253a0e49e6548",
            "0x0000000000000000000000000000000000000000000000000000000000000001"
          ],
          "data": "0x",
          "blockHash": "0x1fd173123803370675fbb3012940eb7c3dd64c9b290dce2842f3eab715924b9e",
          "blockNumber": "0x1a0606a7",
          "blockTimestamp": "0x69a1e5dc",
          "transactionHash": "0x0acbfc35037ad55ea6319e90f1d66dc66281222548109cfc5d2a65e4b95bb440",
          "transactionIndex": "0x3",
          "logIndex": "0x2",
          "removed": false
        }
      ],
      "logsBloom": "0x00000000000000000000000000000040000000108000400000000000000040000000000000000000000000000000000000000000000000000000000000040080080000000000000000000000000000000080000000440000000000000000000010000000020000000000000000000800000000000000000000000000000000000000000000000000000000000000000000000000000000000000000000000000000000000000000000000000000000000000000000000000000000000800000040000000000002000000000000000000000000000000000000000000000060000000000000002000000000000000000000000000000010000000000000000000",
      "type": "0x2",
      "transactionHash": "0x0acbfc35037ad55ea6319e90f1d66dc66281222548109cfc5d2a65e4b95bb440",
      "transactionIndex": "0x3",
      "blockHash": "0x1fd173123803370675fbb3012940eb7c3dd64c9b290dce2842f3eab715924b9e",
      "blockNumber": "0x1a0606a7",
      "gasUsed": "0x25bb2",
      "effectiveGasPrice": "0x1312d00",
      "from": "0x93af6d19a1738e52295014ac0103b005048df388",
      "to": "0xe0b42df543e04bc1a5e92d74ab352799187f0980",
      "contractAddress": null,
      "gasUsedForL1": "0x121",
      "l1BlockNumber": "0x1769af6",
      "timeboosted": false
    },
    {
      "status": "0x1",
      "cumulativeGasUsed": "0x19a4c",
      "logs": [
        {
          "address": "0x6a3c07bc08eef97cea3fa9b62dc2c13d6e28a294",
          "topics": [
            "0x755e629f5586668cfa19c975ad3df60babb106c31673f67180f934423dca3a4c",
            "0xc07524b7a4eecc2784fc7ac17ff2730f877f3cf7a2ceb4e2375fa40a103115d0",
            "0xc07524b7a4eecc2784fc7ac17ff2730f877f3cf7a2ceb4e2375fa40a103115d0",
            "0x000000000000000000000000912ce59144191c1204e64559fe8253a0e49e6548"
          ],
          "data": "0x",
          "blockHash": "0x43c910136888a106ec3ebd93e6e203bf2e1ea4db5b21ced827fcf2c38f9c2877",
          "blockNumber": "0x1a0606b0",
          "blockTimestamp": "0x69a1e5de",
          "transactionHash": "0x99c066e5c533aab366f9ae47f20df130a16b6319ae5711ba22ef6bf51f846a83",
          "transactionIndex": "0x2",
          "logIndex": "0x0",
          "removed": false
        }
      ],
      "logsBloom": "0x00000000000000000000000000000000000000000000000000000000000000000000000000000000000000000000000000000000000000000000000000000080000000000000000000000000000000020000000000000000000000000000000010000000000000040000000000000000000000000000000000000000000000000000000000000000000000000000000000000000000000000000004000000000000000000400000000000000004080000000000000000000002000000000000000000000000200000000000000000000000000000000080000000000000000000000000000002000000000000000000000000000000000000000000000000000",
      "type": "0x2",
      "transactionHash": "0x99c066e5c533aab366f9ae47f20df130a16b6319ae5711ba22ef6bf51f846a83",
      "transactionIndex": "0x2",
      "blockHash": "0x43c910136888a106ec3ebd93e6e203bf2e1ea4db5b21ced827fcf2c38f9c2877",
      "blockNumber": "0x1a0606b0",
      "gasUsed": "0xda12",
      "effectiveGasPrice": "0x1314470",
      "from": "0x93af6d19a1738e52295014ac0103b005048df388",
      "to": "0xe0b42df543e04bc1a5e92d74ab352799187f0980",
      "contractAddress": null,
      "gasUsedForL1": "0x10a",
      "l1BlockNumber": "0x1769af6",
      "timeboosted": false
    }
  ],
  "libraries": [],
  "pending": [],
  "returns": {},
  "timestamp": 1772217823432,
  "chain": 42161,
  "commit": "a62abb27"
}