{
  "transactions": [
    {
      "hash": "0xe1711e48556af274ff91aa574bce9eaa6f9a15d964d9da56d447fb5e61754f7e",
      "transactionType": "CALL",
      "contractName": null,
      "contractAddress": "0xa8853c9f8bd2d34d798b38497893c748b82215a0",
      "function": "proxyCall(address,bytes)",
      "arguments": [
        "0x112d498aa6dE897C0c9c89061A83FFE7979D3Ce6",
        "0x392787d2000000000000000000000000fd086bc7cd5c481dcc9c85ebe478a1c0b69fcbb90000000000000000000000003f3f5df88dc9f13eac63df89ec16ef6e7e25dde70000000000000000000000000000000000000000000000000000000000015180"
      ],
      "transaction": {
        "from": "0x93af6d19a1738e52295014ac0103b005048df388",
        "to": "0xa8853c9f8bd2d34d798b38497893c748b82215a0",
        "value": "0x0",
        "input": "0x2a31f6b4000000000000000000000000112d498aa6de897c0c9c89061a83ffe7979d3ce600000000000000000000000000000000000000000000000000000000000000400000000000000000000000000000000000000000000000000000000000000064392787d2000000000000000000000000fd086bc7cd5c481dcc9c85ebe478a1c0b69fcbb90000000000000000000000003f3f5df88dc9f13eac63df89ec16ef6e7e25dde7000000000000000000000000000000000000000000000000000000000001518000000000000000000000000000000000000000000000000000000000",
        "nonce": "0x11e",
        "chainId": "0xa4b1"
      },
      "additionalContracts": [],
      "isFixedGasLimit": false
    },
    {
      "hash": "0x7742ff1a505dd193db2a79f011ef98d54a3e3cf96266b1cbee46c5a3cfe88857",
      "transactionType": "CALL",
      "contractName": null,
      "contractAddress": "0xa8853c9f8bd2d34d798b38497893c748b82215a0",
      "function": "proxyCall(address,bytes)",
      "arguments": [
        "0x6f0741DB7072034fe71Cb60eD690FbF5fA70Bf43",
        "0xa8e68463000000000000000000000000fd086bc7cd5c481dcc9c85ebe478a1c0b69fcbb9000000000000000000000000112d498aa6de897c0c9c89061a83ffe7979d3ce6000000000000000000000000000000000000000000000000000000000000000000000000000000000000000000000000000000000000000000000000000000000000000000000000000000000000000000000000000000000000000000000001000000000000000000000000000000000000000000000000000000000000000000000000000000000000000000000000000000000000000000000000000000000000000000000000000000000000000000000000000000000000000000000001"
      ],
      "transaction": {
        "from": "0x93af6d19a1738e52295014ac0103b005048df388",
        "to": "0xa8853c9f8bd2d34d798b38497893c748b82215a0",
        "value": "0x0",
        "input": "0x2a31f6b40000000000000000000000006f0741db7072034fe71cb60ed690fbf5fa70bf4300000000000000000000000000000000000000000000000000000000000000400000000000000000000000000000000000000000000000000000000000000104a8e68463000000000000000000000000fd086bc7cd5c481dcc9c85ebe478a1c0b69fcbb9000000000000000000000000112d498aa6de897c0c9c89061a83ffe7979d3ce600000000000000000000000000000000000000000000000000000000000000000000000000000000000000000000000000000000000000000000000000000000000000000000000000000000000000000000000000000000000000000000000100000000000000000000000000000000000000000000000000000000000000000000000000000000000000000000000000000000000000000000000000000000000000000000000000000000000000000000000000000000000000000000000100000000000000000000000000000000000000000000000000000000",
        "nonce": "0x11f",
        "chainId": "0xa4b1"
      },
      "additionalContracts": [],
      "isFixedGasLimit": false
    },
    {
      "hash": "0x2527558d2c30d62ad085f8f79ac398406ebff990bae33c470570604174544a00",
      "transactionType": "CALL",
      "contractName": null,
      "contractAddress": "0xa8853c9f8bd2d34d798b38497893c748b82215a0",
      "function": "proxyCall(address,bytes)",
      "arguments": [
        "0x290F374717E357ef98E510900fd235BF6adcd6d5",
        "0xa34286f20000000000000000000000000000000000000000000000000000000000000040000000000000000000000000fd086bc7cd5c481dcc9c85ebe478a1c0b69fcbb900000000000000000000000000000000000000000000000000000000000000045553445400000000000000000000000000000000000000000000000000000000"
      ],
      "transaction": {
        "from": "0x93af6d19a1738e52295014ac0103b005048df388",
        "to": "0xa8853c9f8bd2d34d798b38497893c748b82215a0",
        "value": "0x0",
        "input": "0x2a31f6b4000000000000000000000000290f374717e357ef98e510900fd235bf6adcd6d500000000000000000000000000000000000000000000000000000000000000400000000000000000000000000000000000000000000000000000000000000084a34286f20000000000000000000000000000000000000000000000000000000000000040000000000000000000000000fd086bc7cd5c481dcc9c85ebe478a1c0b69fcbb90000000000000000000000000000000000000000000000000000000000000004555344540000000000000000000000000000000000000000000000000000000000000000000000000000000000000000000000000000000000000000",
        "nonce": "0x120",
        "chainId": "0xa4b1"
      },
      "additionalContracts": [],
      "isFixedGasLimit": false
    },
    {
      "hash": "0x2e3846805758b3bc64c6c5cda7c769cc809117f443dc78aa38ff9b9df9253fba",
      "transactionType": "CALL",
      "contractName": null,
      "contractAddress": "0xa8853c9f8bd2d34d798b38497893c748b82215a0",
      "function": "proxyCall(address,bytes)",
      "arguments": [
        "0x112d498aa6dE897C0c9c89061A83FFE7979D3Ce6",
        "0x392787d2000000000000000000000000912ce59144191c1204e64559fe8253a0e49e6548000000000000000000000000b2a824043730fe05f3da2efafa1cbbe83fa548d60000000000000000000000000000000000000000000000000000000000000e10"
      ],
      "transaction": {
        "from": "0x93af6d19a1738e52295014ac0103b005048df388",
        "to": "0xa8853c9f8bd2d34d798b38497893c748b82215a0",
        "value": "0x0",
        "input": "0x2a31f6b4000000000000000000000000112d498aa6de897c0c9c89061a83ffe7979d3ce600000000000000000000000000000000000000000000000000000000000000400000000000000000000000000000000000000000000000000000000000000064392787d2000000000000000000000000912ce59144191c1204e64559fe8253a0e49e6548000000000000000000000000b2a824043730fe05f3da2efafa1cbbe83fa548d60000000000000000000000000000000000000000000000000000000000000e1000000000000000000000000000000000000000000000000000000000",
        "nonce": "0x121",
        "chainId": "0xa4b1"
      },
      "additionalContracts": [],
      "isFixedGasLimit": false
    },
    {
      "hash": "0xaf9014721c4203a33a198168baf1cd920c59336ca0310056d89c38292055ef7e",
      "transactionType": "CALL",
      "contractName": null,
      "contractAddress": "0xa8853c9f8bd2d34d798b38497893c748b82215a0",
      "function": "proxyCall(address,bytes)",
      "arguments": [
        "0x6f0741DB7072034fe71Cb60eD690FbF5fA70Bf43",
        "0xa8e68463000000000000000000000000912ce59144191c1204e64559fe8253a0e49e6548000000000000000000000000112d498aa6de897c0c9c89061a83ffe7979d3ce6000000000000000000000000000000000000000000000000000000000000000000000000000000000000000000000000000000000000000000000000000000000000000000000000000000000000000000000000000000000000000000000001000000000000000000000000000000000000000000000000000000000000000000000000000000000000000000000000000000000000000000000000000000000000000000000000000000000000000000000000000000000000000000000001"
      ],
      "transaction": {
        "from": "0x93af6d19a1738e52295014ac0103b005048df388",
        "to": "0xa8853c9f8bd2d34d798b38497893c748b82215a0",
        "value": "0x0",
        "input": "0x2a31f6b40000000000000000000000006f0741db7072034fe71cb60ed690fbf5fa70bf4300000000000000000000000000000000000000000000000000000000000000400000000000000000000000000000000000000000000000000000000000000104a8e68463000000000000000000000000912ce59144191c1204e64559fe8253a0e49e6548000000000000000000000000112d498aa6de897c0c9c89061a83ffe7979d3ce600000000000000000000000000000000000000000000000000000000000000000000000000000000000000000000000000000000000000000000000000000000000000000000000000000000000000000000000000000000000000000000000100000000000000000000000000000000000000000000000000000000000000000000000000000000000000000000000000000000000000000000000000000000000000000000000000000000000000000000000000000000000000000000000100000000000000000000000000000000000000000000000000000000",
        "nonce": "0x122",
        "chainId": "0xa4b1"
      },
      "additionalContracts": [],
      "isFixedGasLimit": false
    },
    {
      "hash": "0x4e1650932c72677f9c2d86701c6fb0af7e757d7b2a4560148285e8aeb7ab93d6",
      "transactionType": "CALL",
      "contractName": null,
      "contractAddress": "0xa8853c9f8bd2d34d798b38497893c748b82215a0",
      "function": "proxyCall(address,bytes)",
      "arguments": [
        "0x290F374717E357ef98E510900fd235BF6adcd6d5",
        "0xa34286f20000000000000000000000000000000000000000000000000000000000000040000000000000000000000000912ce59144191c1204e64559fe8253a0e49e654800000000000000000000000000000000000000000000000000000000000000034152420000000000000000000000000000000000000000000000000000000000"
      ],
      "transaction": {
        "from": "0x93af6d19a1738e52295014ac0103b005048df388",
        "to": "0xa8853c9f8bd2d34d798b38497893c748b82215a0",
        "value": "0x0",
        "input": "0x2a31f6b4000000000000000000000000290f374717e357ef98e510900fd235bf6adcd6d500000000000000000000000000000000000000000000000000000000000000400000000000000000000000000000000000000000000000000000000000000084a34286f20000000000000000000000000000000000000000000000000000000000000040000000000000000000000000912ce59144191c1204e64559fe8253a0e49e65480000000000000000000000000000000000000000000000000000000000000003415242000000000000000000000000000000000000000000000000000000000000000000000000000000000000000000000000000000000000000000",
        "nonce": "0x123",
        "chainId": "0xa4b1"
      },
      "additionalContracts": [],
      "isFixedGasLimit": false
    },
    {
      "hash": "0xa1ca8b880ecb58cee0a246926186212d194406ecaf919f896a7135e3f2950292",
      "transactionType": "CALL",
      "contractName": null,
      "contractAddress": "0xa8853c9f8bd2d34d798b38497893c748b82215a0",
      "function": "proxyCall(address,bytes)",
      "arguments": [
        "0x112d498aa6dE897C0c9c89061A83FFE7979D3Ce6",
        "0x392787d200000000000000000000000082af49447d8a07e3bd95bd0d56f35241523fbab1000000000000000000000000639fe6ab55c921f74e7fac1ee960c0b6293ba6120000000000000000000000000000000000000000000000000000000000015180"
      ],
      "transaction": {
        "from": "0x93af6d19a1738e52295014ac0103b005048df388",
        "to": "0xa8853c9f8bd2d34d798b38497893c748b82215a0",
        "value": "0x0",
        "input": "0x2a31f6b4000000000000000000000000112d498aa6de897c0c9c89061a83ffe7979d3ce600000000000000000000000000000000000000000000000000000000000000400000000000000000000000000000000000000000000000000000000000000064392787d200000000000000000000000082af49447d8a07e3bd95bd0d56f35241523fbab1000000000000000000000000639fe6ab55c921f74e7fac1ee960c0b6293ba612000000000000000000000000000000000000000000000000000000000001518000000000000000000000000000000000000000000000000000000000",
        "nonce": "0x124",
        "chainId": "0xa4b1"
      },
      "additionalContracts": [],
      "isFixedGasLimit": false
    },
    {
      "hash": "0xc0fc94b14ef5bfd276f8b159662d0b864f2dd71043a1f7002b9ac9cd22e8e9d0",
      "transactionType": "CALL",
      "contractName": null,
      "contractAddress": "0xa8853c9f8bd2d34d798b38497893c748b82215a0",
      "function": "proxyCall(address,bytes)",
      "arguments": [
        "0x6f0741DB7072034fe71Cb60eD690FbF5fA70Bf43",
        "0xa8e6846300000000000000000000000082af49447d8a07e3bd95bd0d56f35241523fbab1000000000000000000000000112d498aa6de897c0c9c89061a83ffe7979d3ce6000000000000000000000000000000000000000000000000000000000000000000000000000000000000000000000000000000000000000000000000000000000000000000000000000000000000000000000000000000000000000000000001000000000000000000000000000000000000000000000000000000000000000000000000000000000000000000000000000000000000000000000000000000000000000000000000000000000000000000000000000000000000000000000001"
      ],
      "transaction": {
        "from": "0x93af6d19a1738e52295014ac0103b005048df388",
        "to": "0xa8853c9f8bd2d34d798b38497893c748b82215a0",
        "value": "0x0",
        "input": "0x2a31f6b40000000000000000000000006f0741db7072034fe71cb60ed690fbf5fa70bf4300000000000000000000000000000000000000000000000000000000000000400000000000000000000000000000000000000000000000000000000000000104a8e6846300000000000000000000000082af49447d8a07e3bd95bd0d56f35241523fbab1000000000000000000000000112d498aa6de897c0c9c89061a83ffe7979d3ce600000000000000000000000000000000000000000000000000000000000000000000000000000000000000000000000000000000000000000000000000000000000000000000000000000000000000000000000000000000000000000000000100000000000000000000000000000000000000000000000000000000000000000000000000000000000000000000000000000000000000000000000000000000000000000000000000000000000000000000000000000000000000000000000100000000000000000000000000000000000000000000000000000000",
        "nonce": "0x125",
        "chainId": "0xa4b1"
      },
      "additionalContracts": [],
      "isFixedGasLimit": false
    },
    {
      "hash": "0x91acfb652c7fbfb53e6a998ed7527a510c80b139b031c9454136e3888ba6b972",
      "transactionType": "CALL",
      "contractName": null,
      "contractAddress": "0xa8853c9f8bd2d34d798b38497893c748b82215a0",
      "function": "proxyCall(address,bytes)",
      "arguments": [
        "0x290F374717E357ef98E510900fd235BF6adcd6d5",
        "0xa34286f2000000000000000000000000000000000000000000000000000000000000004000000000000000000000000082af49447d8a07e3bd95bd0d56f35241523fbab100000000000000000000000000000000000000000000000000000000000000045745544800000000000000000000000000000000000000000000000000000000"
      ],
      "transaction": {
        "from": "0x93af6d19a1738e52295014ac0103b005048df388",
        "to": "0xa8853c9f8bd2d34d798b38497893c748b82215a0",
        "value": "0x0",
        "input": "0x2a31f6b4000000000000000000000000290f374717e357ef98e510900fd235bf6adcd6d500000000000000000000000000000000000000000000000000000000000000400000000000000000000000000000000000000000000000000000000000000084a34286f2000000000000000000000000000000000000000000000000000000000000004000000000000000000000000082af49447d8a07e3bd95bd0d56f35241523fbab10000000000000000000000000000000000000000000000000000000000000004574554480000000000000000000000000000000000000000000000000000000000000000000000000000000000000000000000000000000000000000",
        "nonce": "0x126",
        "chainId": "0xa4b1"
      },
      "additionalContracts": [],
      "isFixedGasLimit": false
    }
  ],
  "receipts": [
    {
      "status": "0x1",
      "cumulativeGasUsed": "0x1bda2",
      "logs": [
        {
          "address": "0x112d498aa6de897c0c9c89061a83ffe7979d3ce6",
          "topics": [
            "0x3cc8d9cb9370a23a8b9ffa75efa24cecb65c4693980e58260841adc474983c5f",
            "0x000000000000000000000000fd086bc7cd5c481dcc9c85ebe478a1c0b69fcbb9"
          ],
          "data": "0x0000000000000000000000003f3f5df88dc9f13eac63df89ec16ef6e7e25dde70000000000000000000000000000000000000000000000000000000000015180",
          "blockHash": "0x97c8c7259f914c3b10a5e73a5d17eff88d6085c16cffedf50b8e1c3cc423bf8f",
          "blockNumber": "0x1b25b461",
          "blockTimestamp": "0x69e9e031",
          "transactionHash": "0xe1711e48556af274ff91aa574bce9eaa6f9a15d964d9da56d447fb5e61754f7e",
          "transactionIndex": "0x1",
          "logIndex": "0x0",
          "removed": false
        }
      ],
      "logsBloom": "0x00000000000000000000000000000000000000000000000000000000000000000000000000000000000000000000000000000000000000000000000000000000000000000001000000000000000000800000000000000000004000000000000000002000000000000000000000000000000000000000000000000000020000000000000000000000000000000000000000000000000020000000000000000000000000800000000000000000000000000000000000000000000000000000000000000000000000000000000000000000000000000000200000000000000000000000000000000000000000000000000000000000000000000000080000000000",
      "type": "0x2",
      "transactionHash": "0xe1711e48556af274ff91aa574bce9eaa6f9a15d964d9da56d447fb5e61754f7e",
      "transactionIndex": "0x1",
      "blockHash": "0x97c8c7259f914c3b10a5e73a5d17eff88d6085c16cffedf50b8e1c3cc423bf8f",
      "blockNumber": "0x1b25b461",
      "gasUsed": "0x1bda2",
      "effectiveGasPrice": "0x1312d00",
      "from": "0x93af6d19a1738e52295014ac0103b005048df388",
      "to": "0xa8853c9f8bd2d34d798b38497893c748b82215a0",
      "contractAddress": null,
      "gasUsedForL1": "0xb8a",
      "l1BlockNumber": "0x17c9433",
      "timeboosted": false
    },
    {
      "status": "0x1",
      "cumulativeGasUsed": "0x3420a",
      "logs": [
        {
          "address": "0x6f0741db7072034fe71cb60ed690fbf5fa70bf43",
          "topics": [
            "0xa51ad01e2270c314a7b78f0c60fe66c723f2d06c121d63fcdce776e654878fc1",
            "0x000000000000000000000000fd086bc7cd5c481dcc9c85ebe478a1c0b69fcbb9",
            "0x000000000000000000000000112d498aa6de897c0c9c89061a83ffe7979d3ce6",
            "0x0000000000000000000000000000000000000000000000000000000000000000"
          ],
          "data": "0x0000000000000000000000000000000000000000000000000000000000000000",
          "blockHash": "0x7ee9684c1c86e72c189de6afbed8514f443bb6ae9a6e5aebb1a8e7e2e9421cdc",
          "blockNumber": "0x1b25b466",
          "blockTimestamp": "0x69e9e032",
          "transactionHash": "0x7742ff1a505dd193db2a79f011ef98d54a3e3cf96266b1cbee46c5a3cfe88857",
          "transactionIndex": "0x2",
          "logIndex": "0x1",
          "removed": false
        },
        {
          "address": "0x6f0741db7072034fe71cb60ed690fbf5fa70bf43",
          "topics": [
            "0xca250c5374abedcbf71c0e3eda7ff4cf940fa9e6561d8cd31d2bf480a140a93f",
            "0x000000000000000000000000fd086bc7cd5c481dcc9c85ebe478a1c0b69fcbb9",
            "0x0000000000000000000000000000000000000000000000000000000000000001"
          ],
          "data": "0x",
          "blockHash": "0x7ee9684c1c86e72c189de6afbed8514f443bb6ae9a6e5aebb1a8e7e2e9421cdc",
          "blockNumber": "0x1b25b466",
          "blockTimestamp": "0x69e9e032",
          "transactionHash": "0x7742ff1a505dd193db2a79f011ef98d54a3e3cf96266b1cbee46c5a3cfe88857",
          "transactionIndex": "0x2",
          "logIndex": "0x2",
          "removed": false
        }
      ],
      "logsBloom": "0x00000000000000000000000000040000000000100000400000000000000000000000000000000000000000000000000000000000000000000000000000040000080000000000100000000000000000000000000000440000004000000000000000000000020000000000000000000800000000000000000000000000000000000000000000000100000000000000000000000000000400000000000008000000000000000000000000000000000000000000000000000000000000000800080000000000000000000000000000000000000000000000200000000000000060000000000000000000000000000000000000000000000010000000080000000000",
      "type": "0x2",
      "transactionHash": "0x7742ff1a505dd193db2a79f011ef98d54a3e3cf96266b1cbee46c5a3cfe88857",
      "transactionIndex": "0x2",
      "blockHash": "0x7ee9684c1c86e72c189de6afbed8514f443bb6ae9a6e5aebb1a8e7e2e9421cdc",
      "blockNumber": "0x1b25b466",
      "gasUsed": "0x26638",
      "effectiveGasPrice": "0x131f820",
      "from": "0x93af6d19a1738e52295014ac0103b005048df388",
      "to": "0xa8853c9f8bd2d34d798b38497893c748b82215a0",
      "contractAddress": null,
      "gasUsedForL1": "0xba7",
      "l1BlockNumber": "0x17c9433",
      "timeboosted": false
    },
    {
      "status": "0x1",
      "cumulativeGasUsed": "0x18fca",
      "logs": [
        {
          "address": "0x290f374717e357ef98e510900fd235bf6adcd6d5",
          "topics": [
            "0x755e629f5586668cfa19c975ad3df60babb106c31673f67180f934423dca3a4c",
            "0x8b1a1d9c2b109e527c9134b25b1a1833b16b6594f92daa9f6d9b7a6024bce9d0",
            "0x8b1a1d9c2b109e527c9134b25b1a1833b16b6594f92daa9f6d9b7a6024bce9d0",
            "0x000000000000000000000000fd086bc7cd5c481dcc9c85ebe478a1c0b69fcbb9"
          ],
          "data": "0x",
          "blockHash": "0x96058d41fa988a953bf42ecbc8aa18a41ebfb1d037095d524fdad3104924cea3",
          "blockNumber": "0x1b25b46b",
          "blockTimestamp": "0x69e9e033",
          "transactionHash": "0x2527558d2c30d62ad085f8f79ac398406ebff990bae33c470570604174544a00",
          "transactionIndex": "0x3",
          "logIndex": "0x0",
          "removed": false
        }
      ],
      "logsBloom": "0x00000000000000000000000000000000000000000000000000000000000000000000000000000000000000000000000000000000004000000000000000000040000000000000000000000000000000000000000000000000004000000000000000000000000000040004004000000000000000000000000000000000000000000000000000000000000000000000000000000000000000000000000000000000000000000000000000000000004080000000000000000800000000000000000000000002000000000000000000000000000000000000200000000000000000000000000000000000000000000000000000000000000000000000080000000000",
      "type": "0x2",
      "transactionHash": "0x2527558d2c30d62ad085f8f79ac398406ebff990bae33c470570604174544a00",
      "transactionIndex": "0x3",
      "blockHash": "0x96058d41fa988a953bf42ecbc8aa18a41ebfb1d037095d524fdad3104924cea3",
      "blockNumber": "0x1b25b46b",
      "gasUsed": "0xe366",
      "effectiveGasPrice": "0x131e880",
      "from": "0x93af6d19a1738e52295014ac0103b005048df388",
      "to": "0xa8853c9f8bd2d34d798b38497893c748b82215a0",
      "contractAddress": null,
      "gasUsedForL1": "0xa55",
      "l1BlockNumber": "0x17c9433",
      "timeboosted": false
    },
    {
      "status": "0x1",
      "cumulativeGasUsed": "0x1bd72",
      "logs": [
        {
          "address": "0x112d498aa6de897c0c9c89061a83ffe7979d3ce6",
          "topics": [
            "0x3cc8d9cb9370a23a8b9ffa75efa24cecb65c4693980e58260841adc474983c5f",
            "0x000000000000000000000000912ce59144191c1204e64559fe8253a0e49e6548"
          ],
          "data": "0x000000000000000000000000b2a824043730fe05f3da2efafa1cbbe83fa548d60000000000000000000000000000000000000000000000000000000000000e10",
          "blockHash": "0x69ca03ea2a672d958747c820bf5abce26de6e357688be34322c02cd0b2b636ec",
          "blockNumber": "0x1b25b470",
          "blockTimestamp": "0x69e9e035",
          "transactionHash": "0x2e3846805758b3bc64c6c5cda7c769cc809117f443dc78aa38ff9b9df9253fba",
          "transactionIndex": "0x1",
          "logIndex": "0x0",
          "removed": false
        }
      ],
      "logsBloom": "0x00000000000000000000000000000000000000000000000000000000000000000000000000000000000000000000000000000000000000000000000000000080000000000001000000000000000000800000000000000000000000000000000010002000000000000000000000000000000000000000000000000000020000000000000000000000000000000000000000000000000020000000000000000000000000800000000000000000000000000000000000000000000000000000000000000000000000000000000000000000000000000000000000000000000000000000000000002000000000000000000000000000000000000000000000000000",
      "type": "0x2",
      "transactionHash": "0x2e3846805758b3bc64c6c5cda7c769cc809117f443dc78aa38ff9b9df9253fba",
      "transactionIndex": "0x1",
      "blockHash": "0x69ca03ea2a672d958747c820bf5abce26de6e357688be34322c02cd0b2b636ec",
      "blockNumber": "0x1b25b470",
      "gasUsed": "0x1bd72",
      "effectiveGasPrice": "0x1321760",
      "from": "0x93af6d19a1738e52295014ac0103b005048df388",
      "to": "0xa8853c9f8bd2d34d798b38497893c748b82215a0",
      "contractAddress": null,
      "gasUsedForL1": "0xb66",
      "l1BlockNumber": "0x17c9433",
      "timeboosted": false
    },
    {
      "status": "0x1",
      "cumulativeGasUsed": "0x89dcd",
      "logs": [
        {
          "address": "0x6f0741db7072034fe71cb60ed690fbf5fa70bf43",
          "topics": [
            "0xa51ad01e2270c314a7b78f0c60fe66c723f2d06c121d63fcdce776e654878fc1",
            "0x000000000000000000000000912ce59144191c1204e64559fe8253a0e49e6548",
            "0x000000000000000000000000112d498aa6de897c0c9c89061a83ffe7979d3ce6",
            "0x0000000000000000000000000000000000000000000000000000000000000000"
          ],
          "data": "0x0000000000000000000000000000000000000000000000000000000000000000",
          "blockHash": "0x9c620c0d4119ebc8015847407d001a8723266c01c910b9c49b9e3b652d2d92a7",
          "blockNumber": "0x1b25b475",
          "blockTimestamp": "0x69e9e036",
          "transactionHash": "0xaf9014721c4203a33a198168baf1cd920c59336ca0310056d89c38292055ef7e",
          "transactionIndex": "0x3",
          "logIndex": "0xa",
          "removed": false
        },
        {
          "address": "0x6f0741db7072034fe71cb60ed690fbf5fa70bf43",
          "topics": [
            "0xca250c5374abedcbf71c0e3eda7ff4cf940fa9e6561d8cd31d2bf480a140a93f",
            "0x000000000000000000000000912ce59144191c1204e64559fe8253a0e49e6548",
            "0x0000000000000000000000000000000000000000000000000000000000000001"
          ],
          "data": "0x",
          "blockHash": "0x9c620c0d4119ebc8015847407d001a8723266c01c910b9c49b9e3b652d2d92a7",
          "blockNumber": "0x1b25b475",
          "blockTimestamp": "0x69e9e036",
          "transactionHash": "0xaf9014721c4203a33a198168baf1cd920c59336ca0310056d89c38292055ef7e",
          "transactionIndex": "0x3",
          "logIndex": "0xb",
          "removed": false
        }
      ],
      "logsBloom": "0x00000000000000000000000000040000000000100000400000000000000000000000000000000000000000000000000000000000000000000000000000040080080000000000100000000000000000000000000000440000000000000000000010000000020000000000000000000800000000000000000000000000000000000000000000000100000000000000000000000000000400000000000008000000000000000000000000000000000000000000000000000000000000000800080000000000000000000000000000000000000000000000000000000000000060000000000000002000000000000000000000000000000010000000000000000000",
      "type": "0x2",
      "transactionHash": "0xaf9014721c4203a33a198168baf1cd920c59336ca0310056d89c38292055ef7e",
      "transactionIndex": "0x3",
      "blockHash": "0x9c620c0d4119ebc8015847407d001a8723266c01c910b9c49b9e3b652d2d92a7",
      "blockNumber": "0x1b25b475",
      "gasUsed": "0x265ff",
      "effectiveGasPrice": "0x1312d00",
      "from": "0x93af6d19a1738e52295014ac0103b005048df388",
      "to": "0xa8853c9f8bd2d34d798b38497893c748b82215a0",
      "contractAddress": null,
      "gasUsedForL1": "0xb6e",
      "l1BlockNumber": "0x17c9433",
      "timeboosted": false
    },
    {
      "status": "0x1",
      "cumulativeGasUsed": "0x44c18",
      "logs": [
        {
          "address": "0x290f374717e357ef98e510900fd235bf6adcd6d5",
          "topics": [
            "0x755e629f5586668cfa19c975ad3df60babb106c31673f67180f934423dca3a4c",
            "0xc07524b7a4eecc2784fc7ac17ff2730f877f3cf7a2ceb4e2375fa40a103115d0",
            "0xc07524b7a4eecc2784fc7ac17ff2730f877f3cf7a2ceb4e2375fa40a103115d0",
            "0x000000000000000000000000912ce59144191c1204e64559fe8253a0e49e6548"
          ],
          "data": "0x",
          "blockHash": "0x15034a454166385c24ec37a18caa22a5125c1a636630c09634990a9dab0f2f0f",
          "blockNumber": "0x1b25b47a",
          "blockTimestamp": "0x69e9e037",
          "transactionHash": "0x4e1650932c72677f9c2d86701c6fb0af7e757d7b2a4560148285e8aeb7ab93d6",
          "transactionIndex": "0x2",
          "logIndex": "0x3",
          "removed": false
        }
      ],
      "logsBloom": "0x00000000000000000000000000000000000000000000000000000000000000000000000000000000000000000000000000000000000000000000000000000080000000000000000000000000000000000000000000000000000000000000000010000000000000040004004000000000000000000000000000000000000000000000000000000000000000000000000000000000000000000000004000000000000000000000000000000000004080000000000000000000002000000000000000000002000000000000000000000000000000000000080000000000000000000000000000002000000000000000000000000000000000000000000000000000",
      "type": "0x2",
      "transactionHash": "0x4e1650932c72677f9c2d86701c6fb0af7e757d7b2a4560148285e8aeb7ab93d6",
      "transactionIndex": "0x2",
      "blockHash": "0x15034a454166385c24ec37a18caa22a5125c1a636630c09634990a9dab0f2f0f",
      "blockNumber": "0x1b25b47a",
      "gasUsed": "0xe391",
      "effectiveGasPrice": "0x131e0b0",
      "from": "0x93af6d19a1738e52295014ac0103b005048df388",
      "to": "0xa8853c9f8bd2d34d798b38497893c748b82215a0",
      "contractAddress": null,
      "gasUsedForL1": "0xa8c",
      "l1BlockNumber": "0x17c9433",
      "timeboosted": false
    },
    {
      "status": "0x1",
      "cumulativeGasUsed": "0x2136d",
      "logs": [
        {
          "address": "0x112d498aa6de897c0c9c89061a83ffe7979d3ce6",
          "topics": [
            "0x3cc8d9cb9370a23a8b9ffa75efa24cecb65c4693980e58260841adc474983c5f",
            "0x00000000000000000000000082af49447d8a07e3bd95bd0d56f35241523fbab1"
          ],
          "data": "0x000000000000000000000000639fe6ab55c921f74e7fac1ee960c0b6293ba6120000000000000000000000000000000000000000000000000000000000015180",
          "blockHash": "0xba35ac0514f067ab6eb9098f8cdbc6851ab52cdfd223ef81b00cee27f3580747",
          "blockNumber": "0x1b25b47f",
          "blockTimestamp": "0x69e9e038",
          "transactionHash": "0xa1ca8b880ecb58cee0a246926186212d194406ecaf919f896a7135e3f2950292",
          "transactionIndex": "0x2",
          "logIndex": "0x0",
          "removed": false
        }
      ],
      "logsBloom": "0x00000000000000000000000000000000000000000000000000000000000000000000000000000000000000000000000000000000000000000000000000000000000000000001000000000000000000810000000000000000000000000000000000002000000000000000000000000000000000000000000000000000020000000000000000000000000000000000000000000000000020000000000000000000000000800000000000000000000000000000000000000000000000000000000000000000000000000000000000000000000000000000000000000000000000000000000000000000020000000000000000000000000000800000000000000000",
      "type": "0x2",
      "transactionHash": "0xa1ca8b880ecb58cee0a246926186212d194406ecaf919f896a7135e3f2950292",
      "transactionIndex": "0x2",
      "blockHash": "0xba35ac0514f067ab6eb9098f8cdbc6851ab52cdfd223ef81b00cee27f3580747",
      "blockNumber": "0x1b25b47f",
      "gasUsed": "0x1bd54",
      "effectiveGasPrice": "0x132a400",
      "from": "0x93af6d19a1738e52295014ac0103b005048df388",
      "to": "0xa8853c9f8bd2d34d798b38497893c748b82215a0",
      "contractAddress": null,
      "gasUsedForL1": "0xb3c",
      "l1BlockNumber": "0x17c9433",
      "timeboosted": false
    },
    {
      "status": "0x1",
      "cumulativeGasUsed": "0x265f4",
      "logs": [
        {
          "address": "0x6f0741db7072034fe71cb60ed690fbf5fa70bf43",
          "topics": [
            "0xa51ad01e2270c314a7b78f0c60fe66c723f2d06c121d63fcdce776e654878fc1",
            "0x00000000000000000000000082af49447d8a07e3bd95bd0d56f35241523fbab1",
            "0x000000000000000000000000112d498aa6de897c0c9c89061a83ffe7979d3ce6",
            "0x0000000000000000000000000000000000000000000000000000000000000000"
          ],
          "data": "0x0000000000000000000000000000000000000000000000000000000000000000",
          "blockHash": "0x0a94bb093b3561db4608487f7efbb25c1c1803e8666672507ed9bd00c3e391b3",
          "blockNumber": "0x1b25b484",
          "blockTimestamp": "0x69e9e03a",
          "transactionHash": "0xc0fc94b14ef5bfd276f8b159662d0b864f2dd71043a1f7002b9ac9cd22e8e9d0",
          "transactionIndex": "0x1",
          "logIndex": "0x0",
          "removed": false
        },
        {
          "address": "0x6f0741db7072034fe71cb60ed690fbf5fa70bf43",
          "topics": [
            "0xca250c5374abedcbf71c0e3eda7ff4cf940fa9e6561d8cd31d2bf480a140a93f",
            "0x00000000000000000000000082af49447d8a07e3bd95bd0d56f35241523fbab1",
            "0x0000000000000000000000000000000000000000000000000000000000000001"
          ],
          "data": "0x",
          "blockHash": "0x0a94bb093b3561db4608487f7efbb25c1c1803e8666672507ed9bd00c3e391b3",
          "blockNumber": "0x1b25b484",
          "blockTimestamp": "0x69e9e03a",
          "transactionHash": "0xc0fc94b14ef5bfd276f8b159662d0b864f2dd71043a1f7002b9ac9cd22e8e9d0",
          "transactionIndex": "0x1",
          "logIndex": "0x1",
          "removed": false
        }
      ],
      "logsBloom": "0x00000000000000000000000000040000000000100000400000000000000000000000000000000000000000000000000000000000000000000000000000040000080000000000100000000000000000010000000000440000000000000000000000000000020000000000000000000800000000000000000000000000000000000000000000000100000000000000000000000000000400000000000008000000000000000000000000000000000000000000000000000000000000000800080000000000000000000000000000000000000000000000000000000000000060000000000000000000020000000000000000000000000010800000000000000000",
      "type": "0x2",
      "transactionHash": "0xc0fc94b14ef5bfd276f8b159662d0b864f2dd71043a1f7002b9ac9cd22e8e9d0",
      "transactionIndex": "0x1",
      "blockHash": "0x0a94bb093b3561db4608487f7efbb25c1c1803e8666672507ed9bd00c3e391b3",
      "blockNumber": "0x1b25b484",
      "gasUsed": "0x265f4",
      "effectiveGasPrice": "0x1362e40",
      "from": "0x93af6d19a1738e52295014ac0103b005048df388",
      "to": "0xa8853c9f8bd2d34d798b38497893c748b82215a0",
      "contractAddress": null,
      "gasUsedForL1": "0xb63",
      "l1BlockNumber": "0x17c9433",
      "timeboosted": false
    },
    {
      "status": "0x1",
      "cumulativeGasUsed": "0x277fe",
      "logs": [
        {
          "address": "0x290f374717e357ef98e510900fd235bf6adcd6d5",
          "topics": [
            "0x755e629f5586668cfa19c975ad3df60babb106c31673f67180f934423dca3a4c",
            "0x0f8a193ff464434486c0daf7db2a895884365d2bc84ba47a68fcf89c1b14b5b8",
            "0x0f8a193ff464434486c0daf7db2a895884365d2bc84ba47a68fcf89c1b14b5b8",
            "0x00000000000000000000000082af49447d8a07e3bd95bd0d56f35241523fbab1"
          ],
          "data": "0x",
          "blockHash": "0xb23003280ff1beac9c3e059b2acdb5d3d24cd0c46765e3f25eefa5e82080f452",
          "blockNumber": "0x1b25b48a",
          "blockTimestamp": "0x69e9e03b",
          "transactionHash": "0x91acfb652c7fbfb53e6a998ed7527a510c80b139b031c9454136e3888ba6b972",
          "transactionIndex": "0x3",
          "logIndex": "0x1",
          "removed": false
        }
      ],
      "logsBloom": "0x00000000000000000000000000000000000000000000000000000000000000000000000000000000000000000000000000000000000000000000000000000000000000000000000000000020000000010000000100000000000000000000000000000000000000040004004000000000000000000000000000000000000000000000000000000000000000000000000000000000000000000000000000000000000000000000000000000000004080000000000000000000000000000000000000000002000000000000000000000000000000000000000000000000000000000000000000000000020000000000000000000000000000800000000000000002",
      "type": "0x2",
      "transactionHash": "0x91acfb652c7fbfb53e6a998ed7527a510c80b139b031c9454136e3888ba6b972",
      "transactionIndex": "0x3",
      "blockHash": "0xb23003280ff1beac9c3e059b2acdb5d3d24cd0c46765e3f25eefa5e82080f452",
      "blockNumber": "0x1b25b48a",
      "gasUsed": "0xe36b",
      "effectiveGasPrice": "0x1314c40",
      "from": "0x93af6d19a1738e52295014ac0103b005048df388",
      "to": "0xa8853c9f8bd2d34d798b38497893c748b82215a0",
      "contractAddress": null,
      "gasUsedForL1": "0xa5a",
      "l1BlockNumber": "0x17c9433",
      "timeboosted": false
    }
  ],
  "libraries": [
    "../evm/src/libraries/LCCFactoryLib.sol:LCCFactoryLinkedLib:0x875B922e2843373772C8a6d88cb7581bbD91C879",
    "../evm/src/libraries/LiquidityHubLinkedLib.sol:LiquidityHubLinkedLib:0xaCc580983f745C1c9edDbE3b5F3d221F13D653F9",
    "../evm/src/libraries/VTSCommitLib.sol:VTSCommitLib:0xBab5960fB71f8096dE37497Dd8D41A6a20C9c9a7",
    "../evm/src/libraries/VTSLifecycleLinkedLib.sol:VTSLifecycleLinkedLib:0x61b4D910E7086a30b14fd8A4986b15b844ac27B9",
    "../evm/src/libraries/VTSPositionLib.sol:VTSPositionLib:0x823bDa51f62B814386408eB4ecC01F4256B1d516",
    "../evm/src/libraries/VTSPositionMMOpsLib.sol:VTSPositionMMOpsLib:0x76b2ea645Cf439D91391dDb7ca20a2E06C53Ca0d",
    "../evm/src/libraries/VTSSwapLib.sol:VTSSwapLib:0x5eE398A9363aD238Cb1c2b38bA8650a05750Db14"
  ],
  "pending": [],
  "returns": {},
  "timestamp": 1776934972092,
  "chain": 42161,
  "commit": "79d06c9a"
}