{
  "transactions": [
    {
      "hash": null,
      "transactionType": "CALL",
      "contractName": null,
      "contractAddress": "0x912ce59144191c1204e64559fe8253a0e49e6548",
      "function": "approve(address,uint256)",
      "arguments": [
        "0x000000000022D473030F116dDEE9F6B43aC78BA3",
        "115792089237316195423570985008687907853269984665640564039457584007913129639935"
      ],
      "transaction": {
        "from": "0x93af6d19a1738e52295014ac0103b005048df388",
        "to": "0x912ce59144191c1204e64559fe8253a0e49e6548",
        "gas": "0xaf5e",
        "value": "0x0",
        "input": "0x095ea7b3000000000000000000000000000000000022d473030f116ddee9f6b43ac78ba3ffffffffffffffffffffffffffffffffffffffffffffffffffffffffffffffff",
        "nonce": "0xbb",
        "chainId": "0xa4b1"
      },
      "additionalContracts": [],
      "isFixedGasLimit": false
    },
    {
      "hash": null,
      "transactionType": "CALL",
      "contractName": null,
      "contractAddress": "0x000000000022d473030f116ddee9f6b43ac78ba3",
      "function": "approve(address,address,uint160,uint48)",
      "arguments": [
        "0x912CE59144191C1204E64559FE8253a0e49E6548",
        "0xA51afAFe0263b40EdaEf0Df8781eA9aa03E381a3",
        "1461501637330902918203684832716283019655932542975",
        "1772722869"
      ],
      "transaction": {
        "from": "0x93af6d19a1738e52295014ac0103b005048df388",
        "to": "0x000000000022d473030f116ddee9f6b43ac78ba3",
        "gas": "0xf6f4",
        "value": "0x0",
        "input": "0x87517c45000000000000000000000000912ce59144191c1204e64559fe8253a0e49e6548000000000000000000000000a51afafe0263b40edaef0df8781ea9aa03e381a3000000000000000000000000ffffffffffffffffffffffffffffffffffffffff0000000000000000000000000000000000000000000000000000000069a99ab5",
        "nonce": "0xbc",
        "chainId": "0xa4b1"
      },
      "additionalContracts": [],
      "isFixedGasLimit": false
    },
    {
      "hash": null,
      "transactionType": "CALL",
      "contractName": null,
      "contractAddress": "0xfd086bc7cd5c481dcc9c85ebe478a1c0b69fcbb9",
      "function": "approve(address,uint256)",
      "arguments": [
        "0x000000000022D473030F116dDEE9F6B43aC78BA3",
        "115792089237316195423570985008687907853269984665640564039457584007913129639935"
      ],
      "transaction": {
        "from": "0x93af6d19a1738e52295014ac0103b005048df388",
        "to": "0xfd086bc7cd5c481dcc9c85ebe478a1c0b69fcbb9",
        "gas": "0xbe41",
        "value": "0x0",
        "input": "0x095ea7b3000000000000000000000000000000000022d473030f116ddee9f6b43ac78ba3ffffffffffffffffffffffffffffffffffffffffffffffffffffffffffffffff",
        "nonce": "0xbd",
        "chainId": "0xa4b1"
      },
      "additionalContracts": [],
      "isFixedGasLimit": false
    },
    {
      "hash": null,
      "transactionType": "CALL",
      "contractName": null,
      "contractAddress": "0x000000000022d473030f116ddee9f6b43ac78ba3",
      "function": "approve(address,address,uint160,uint48)",
      "arguments": [
        "0xFd086bC7CD5C481DCC9C85ebE478A1C0b69FCbb9",
        "0xA51afAFe0263b40EdaEf0Df8781eA9aa03E381a3",
        "1461501637330902918203684832716283019655932542975",
        "1772722869"
      ],
      "transaction": {
        "from": "0x93af6d19a1738e52295014ac0103b005048df388",
        "to": "0x000000000022d473030f116ddee9f6b43ac78ba3",
        "gas": "0x9ff2",
        "value": "0x0",
        "input": "0x87517c45000000000000000000000000fd086bc7cd5c481dcc9c85ebe478a1c0b69fcbb9000000000000000000000000a51afafe0263b40edaef0df8781ea9aa03e381a3000000000000000000000000ffffffffffffffffffffffffffffffffffffffff0000000000000000000000000000000000000000000000000000000069a99ab5",
        "nonce": "0xbe",
        "chainId": "0xa4b1"
      },
      "additionalContracts": [],
      "isFixedGasLimit": false
    },
    {
      "hash": null,
      "transactionType": "CALL",
      "contractName": null,
      "contractAddress": "0xa51afafe0263b40edaef0df8781ea9aa03e381a3",
      "function": "execute(bytes,bytes[],uint256)",
      "arguments": [
        "0x10",
        "[0x000000000000000000000000000000000000000000000000000000000000004000000000000000000000000000000000000000000000000000000000000000800000000000000000000000000000000000000000000000000000000000000003060c0f00000000000000000000000000000000000000000000000000000000000000000000000000000000000000000000000000000000000000000000000003000000000000000000000000000000000000000000000000000000000000006000000000000000000000000000000000000000000000000000000000000001e0000000000000000000000000000000000000000000000000000000000000024000000000000000000000000000000000000000000000000000000000000001600000000000000000000000000000000000000000000000000000000000000020000000000000000000000000912ce59144191c1204e64559fe8253a0e49e6548000000000000000000000000fd086bc7cd5c481dcc9c85ebe478a1c0b69fcbb90000000000000000000000000000000000000000000000000000000000000000000000000000000000000000000000000000000000000000000000000000000a000000000000000000000000fd55530f772784902e91ef952cffe9a569bf2888000000000000000000000000000000000000000000000000000000000000000000000000000000000000000000000000000000000000000000000000000f42400000000000000000000000000000000000000000000000000000000000000000000000000000000000000000000000000000000000000000000000000000012000000000000000000000000000000000000000000000000000000000000000000000000000000000000000000000000000000000000000000000000000000040000000000000000000000000fd086bc7cd5c481dcc9c85ebe478a1c0b69fcbb9ffffffffffffffffffffffffffffffffffffffffffffffffffffffffffffffff0000000000000000000000000000000000000000000000000000000000000040000000000000000000000000912ce59144191c1204e64559fe8253a0e49e65480000000000000000000000000000000000000000000000000000000000000000]",
        "1772722169"
      ],
      "transaction": {
        "from": "0x93af6d19a1738e52295014ac0103b005048df388",
        "to": "0xa51afafe0263b40edaef0df8781ea9aa03e381a3",
        "gas": "0x91a8c",
        "value": "0x0",
        "input": "0x3593564c000000000000000000000000000000000000000000000000000000000000006000000000000000000000000000000000000000000000000000000000000000a00000000000000000000000000000000000000000000000000000000069a997f900000000000000000000000000000000000000000000000000000000000000011000000000000000000000000000000000000000000000000000000000000000000000000000000000000000000000000000000000000000000000000000000100000000000000000000000000000000000000000000000000000000000000200000000000000000000000000000000000000000000000000000000000000340000000000000000000000000000000000000000000000000000000000000004000000000000000000000000000000000000000000000000000000000000000800000000000000000000000000000000000000000000000000000000000000003060c0f00000000000000000000000000000000000000000000000000000000000000000000000000000000000000000000000000000000000000000000000003000000000000000000000000000000000000000000000000000000000000006000000000000000000000000000000000000000000000000000000000000001e0000000000000000000000000000000000000000000000000000000000000024000000000000000000000000000000000000000000000000000000000000001600000000000000000000000000000000000000000000000000000000000000020000000000000000000000000912ce59144191c1204e64559fe8253a0e49e6548000000000000000000000000fd086bc7cd5c481dcc9c85ebe478a1c0b69fcbb90000000000000000000000000000000000000000000000000000000000000000000000000000000000000000000000000000000000000000000000000000000a000000000000000000000000fd55530f772784902e91ef952cffe9a569bf2888000000000000000000000000000000000000000000000000000000000000000000000000000000000000000000000000000000000000000000000000000f42400000000000000000000000000000000000000000000000000000000000000000000000000000000000000000000000000000000000000000000000000000012000000000000000000000000000000000000000000000000000000000000000000000000000000000000000000000000000000000000000000000000000000040000000000000000000000000fd086bc7cd5c481dcc9c85ebe478a1c0b69fcbb9ffffffffffffffffffffffffffffffffffffffffffffffffffffffffffffffff0000000000000000000000000000000000000000000000000000000000000040000000000000000000000000912ce59144191c1204e64559fe8253a0e49e65480000000000000000000000000000000000000000000000000000000000000000",
        "nonce": "0xbf",
        "chainId": "0xa4b1"
      },
      "additionalContracts": [],
      "isFixedGasLimit": false
    }
  ],
  "receipts": [],
  "libraries": [],
  "pending": [],
  "returns": {},
  "timestamp": 1772721926373,
  "chain": 42161,
  "commit": "b658fb76"
}