{
  "transactions": [
    {
      "hash": "0x7c6eaac8834106b1fd03d9a69ae6c4f3aa6b565e55d150b2be1b4e30224e8314",
      "transactionType": "CALL",
      "contractName": null,
      "contractAddress": "0x912ce59144191c1204e64559fe8253a0e49e6548",
      "function": "approve(address,uint256)",
      "arguments": [
        "0x000000000022D473030F116dDEE9F6B43aC78BA3",
        "115792089237316195423570985008687907853269984665640564039457584007913129639935"
      ],
      "transaction": {
        "from": "0x93af6d19a1738e52295014ac0103b005048df388",
        "to": "0x912ce59144191c1204e64559fe8253a0e49e6548",
        "gas": "0xaede",
        "value": "0x0",
        "input": "0x095ea7b3000000000000000000000000000000000022d473030f116ddee9f6b43ac78ba3ffffffffffffffffffffffffffffffffffffffffffffffffffffffffffffffff",
        "nonce": "0xbb",
        "chainId": "0xa4b1"
      },
      "additionalContracts": [],
      "isFixedGasLimit": false
    },
    {
      "hash": "0x8e155474e0e9a60531da18b1a0c8c638418022c19ec389628099fbe28bb8e480",
      "transactionType": "CALL",
      "contractName": null,
      "contractAddress": "0x000000000022d473030f116ddee9f6b43ac78ba3",
      "function": "approve(address,address,uint160,uint48)",
      "arguments": [
        "0x912CE59144191C1204E64559FE8253a0e49E6548",
        "0xA51afAFe0263b40EdaEf0Df8781eA9aa03E381a3",
        "1461501637330902918203684832716283019655932542975",
        "1772724133"
      ],
      "transaction": {
        "from": "0x93af6d19a1738e52295014ac0103b005048df388",
        "to": "0x000000000022d473030f116ddee9f6b43ac78ba3",
        "gas": "0xf64d",
        "value": "0x0",
        "input": "0x87517c45000000000000000000000000912ce59144191c1204e64559fe8253a0e49e6548000000000000000000000000a51afafe0263b40edaef0df8781ea9aa03e381a3000000000000000000000000ffffffffffffffffffffffffffffffffffffffff0000000000000000000000000000000000000000000000000000000069a99fa5",
        "nonce": "0xbc",
        "chainId": "0xa4b1"
      },
      "additionalContracts": [],
      "isFixedGasLimit": false
    },
    {
      "hash": "0x467f1cc3f0d086c203e50fbcb691b5f4b0b108822d34d2d99c86d38690077725",
      "transactionType": "CALL",
      "contractName": null,
      "contractAddress": "0xfd086bc7cd5c481dcc9c85ebe478a1c0b69fcbb9",
      "function": "approve(address,uint256)",
      "arguments": [
        "0x000000000022D473030F116dDEE9F6B43aC78BA3",
        "115792089237316195423570985008687907853269984665640564039457584007913129639935"
      ],
      "transaction": {
        "from": "0x93af6d19a1738e52295014ac0103b005048df388",
        "to": "0xfd086bc7cd5c481dcc9c85ebe478a1c0b69fcbb9",
        "gas": "0xbdc2",
        "value": "0x0",
        "input": "0x095ea7b3000000000000000000000000000000000022d473030f116ddee9f6b43ac78ba3ffffffffffffffffffffffffffffffffffffffffffffffffffffffffffffffff",
        "nonce": "0xbd",
        "chainId": "0xa4b1"
      },
      "additionalContracts": [],
      "isFixedGasLimit": false
    },
    {
      "hash": "0x7319a1ddc7ad9c7087c9bfa3172b98b0f94396b1ce0fbb6542868faa8c17bcfc",
      "transactionType": "CALL",
      "contractName": null,
      "contractAddress": "0x000000000022d473030f116ddee9f6b43ac78ba3",
      "function": "approve(address,address,uint160,uint48)",
      "arguments": [
        "0xFd086bC7CD5C481DCC9C85ebE478A1C0b69FCbb9",
        "0xA51afAFe0263b40EdaEf0Df8781eA9aa03E381a3",
        "1461501637330902918203684832716283019655932542975",
        "1772724133"
      ],
      "transaction": {
        "from": "0x93af6d19a1738e52295014ac0103b005048df388",
        "to": "0x000000000022d473030f116ddee9f6b43ac78ba3",
        "gas": "0x9f4b",
        "value": "0x0",
        "input": "0x87517c45000000000000000000000000fd086bc7cd5c481dcc9c85ebe478a1c0b69fcbb9000000000000000000000000a51afafe0263b40edaef0df8781ea9aa03e381a3000000000000000000000000ffffffffffffffffffffffffffffffffffffffff0000000000000000000000000000000000000000000000000000000069a99fa5",
        "nonce": "0xbe",
        "chainId": "0xa4b1"
      },
      "additionalContracts": [],
      "isFixedGasLimit": false
    },
    {
      "hash": "0x539a7a684661c265442f2a7e157893256caa4d5c649150c1762b44b1580e6f7d",
      "transactionType": "CALL",
      "contractName": null,
      "contractAddress": "0xa51afafe0263b40edaef0df8781ea9aa03e381a3",
      "function": "execute(bytes,bytes[],uint256)",
      "arguments": [
        "0x10",
        "[0x000000000000000000000000000000000000000000000000000000000000004000000000000000000000000000000000000000000000000000000000000000800000000000000000000000000000000000000000000000000000000000000003060c0f00000000000000000000000000000000000000000000000000000000000000000000000000000000000000000000000000000000000000000000000003000000000000000000000000000000000000000000000000000000000000006000000000000000000000000000000000000000000000000000000000000001e0000000000000000000000000000000000000000000000000000000000000024000000000000000000000000000000000000000000000000000000000000001600000000000000000000000000000000000000000000000000000000000000020000000000000000000000000912ce59144191c1204e64559fe8253a0e49e6548000000000000000000000000fd086bc7cd5c481dcc9c85ebe478a1c0b69fcbb90000000000000000000000000000000000000000000000000000000000000000000000000000000000000000000000000000000000000000000000000000000a000000000000000000000000fd55530f772784902e91ef952cffe9a569bf2888000000000000000000000000000000000000000000000000000000000000000000000000000000000000000000000000000000000000000000000000000f42400000000000000000000000000000000000000000000000000000000000000000000000000000000000000000000000000000000000000000000000000000012000000000000000000000000000000000000000000000000000000000000000000000000000000000000000000000000000000000000000000000000000000040000000000000000000000000fd086bc7cd5c481dcc9c85ebe478a1c0b69fcbb9ffffffffffffffffffffffffffffffffffffffffffffffffffffffffffffffff0000000000000000000000000000000000000000000000000000000000000040000000000000000000000000912ce59144191c1204e64559fe8253a0e49e65480000000000000000000000000000000000000000000000000000000000000000]",
        "1772723433"
      ],
      "transaction": {
        "from": "0x93af6d19a1738e52295014ac0103b005048df388",
        "to": "0xa51afafe0263b40edaef0df8781ea9aa03e381a3",
        "gas": "0x91a8c",
        "value": "0x0",
        "input": "0x3593564c000000000000000000000000000000000000000000000000000000000000006000000000000000000000000000000000000000000000000000000000000000a00000000000000000000000000000000000000000000000000000000069a99ce900000000000000000000000000000000000000000000000000000000000000011000000000000000000000000000000000000000000000000000000000000000000000000000000000000000000000000000000000000000000000000000000100000000000000000000000000000000000000000000000000000000000000200000000000000000000000000000000000000000000000000000000000000340000000000000000000000000000000000000000000000000000000000000004000000000000000000000000000000000000000000000000000000000000000800000000000000000000000000000000000000000000000000000000000000003060c0f00000000000000000000000000000000000000000000000000000000000000000000000000000000000000000000000000000000000000000000000003000000000000000000000000000000000000000000000000000000000000006000000000000000000000000000000000000000000000000000000000000001e0000000000000000000000000000000000000000000000000000000000000024000000000000000000000000000000000000000000000000000000000000001600000000000000000000000000000000000000000000000000000000000000020000000000000000000000000912ce59144191c1204e64559fe8253a0e49e6548000000000000000000000000fd086bc7cd5c481dcc9c85ebe478a1c0b69fcbb90000000000000000000000000000000000000000000000000000000000000000000000000000000000000000000000000000000000000000000000000000000a000000000000000000000000fd55530f772784902e91ef952cffe9a569bf2888000000000000000000000000000000000000000000000000000000000000000000000000000000000000000000000000000000000000000000000000000f42400000000000000000000000000000000000000000000000000000000000000000000000000000000000000000000000000000000000000000000000000000012000000000000000000000000000000000000000000000000000000000000000000000000000000000000000000000000000000000000000000000000000000040000000000000000000000000fd086bc7cd5c481dcc9c85ebe478a1c0b69fcbb9ffffffffffffffffffffffffffffffffffffffffffffffffffffffffffffffff0000000000000000000000000000000000000000000000000000000000000040000000000000000000000000912ce59144191c1204e64559fe8253a0e49e65480000000000000000000000000000000000000000000000000000000000000000",
        "nonce": "0xbf",
        "chainId": "0xa4b1"
      },
      "additionalContracts": [],
      "isFixedGasLimit": false
    }
  ],
  "receipts": [
    {
      "status": "0x1",
      "cumulativeGasUsed": "0xd387b",
      "logs": [
        {
          "address": "0x912ce59144191c1204e64559fe8253a0e49e6548",
          "topics": [
            "0x8c5be1e5ebec7d5bd14f71427d1e84f3dd0314c0f7b2291e5b200ac8c7c3b925",
            "0x00000000000000000000000093af6d19a1738e52295014ac0103b005048df388",
            "0x000000000000000000000000000000000022d473030f116ddee9f6b43ac78ba3"
          ],
          "data": "0xffffffffffffffffffffffffffffffffffffffffffffffffffffffffffffffff",
          "blockHash": "0xc93a8bc08e647d862903379c8d26515ef36e2e53892b442f5be621ef7a8b9a33",
          "blockNumber": "0x1a24f24d",
          "blockTimestamp": "0x69a99be0",
          "transactionHash": "0x7c6eaac8834106b1fd03d9a69ae6c4f3aa6b565e55d150b2be1b4e30224e8314",
          "transactionIndex": "0xb",
          "logIndex": "0x12",
          "removed": false
        }
      ],
      "logsBloom": "0x00000000000000000000000000000000000000000000000000000000001000000000000000000000000000000000000000000000800000000000010000200000000000000000000000004000000100000000000000000800000000000000000000000000000000000000000000000000000000000000400000000000000000000000000000000000000000000000000000000000008000000000000000000000020000000000000000000000000000000000000000000000000000000000000000000000008000000000000000000000000000000000000000000000000000000010000000000000000000000000000000000000000000000000000000000000",
      "type": "0x2",
      "transactionHash": "0x7c6eaac8834106b1fd03d9a69ae6c4f3aa6b565e55d150b2be1b4e30224e8314",
      "transactionIndex": "0xb",
      "blockHash": "0xc93a8bc08e647d862903379c8d26515ef36e2e53892b442f5be621ef7a8b9a33",
      "blockNumber": "0x1a24f24d",
      "gasUsed": "0x84ea",
      "effectiveGasPrice": "0x1344210",
      "from": "0x93af6d19a1738e52295014ac0103b005048df388",
      "to": "0x912ce59144191c1204e64559fe8253a0e49e6548",
      "contractAddress": null,
      "gasUsedForL1": "0xc2",
      "l1BlockNumber": "0x1773eb7",
      "timeboosted": false
    },
    {
      "status": "0x1",
      "cumulativeGasUsed": "0x30d138",
      "logs": [
        {
          "address": "0x000000000022d473030f116ddee9f6b43ac78ba3",
          "topics": [
            "0xda9fa7c1b00402c17d0161b249b1ab8bbec047c5a52207b9c112deffd817036b",
            "0x00000000000000000000000093af6d19a1738e52295014ac0103b005048df388",
            "0x000000000000000000000000912ce59144191c1204e64559fe8253a0e49e6548",
            "0x000000000000000000000000a51afafe0263b40edaef0df8781ea9aa03e381a3"
          ],
          "data": "0x000000000000000000000000ffffffffffffffffffffffffffffffffffffffff0000000000000000000000000000000000000000000000000000000069a99fa5",
          "blockHash": "0xdd5f42453d3201c9e2cea0d4b93d27f20fcd0731372e156484d71b7a959def9e",
          "blockNumber": "0x1a24f263",
          "blockTimestamp": "0x69a99be3",
          "transactionHash": "0x8e155474e0e9a60531da18b1a0c8c638418022c19ec389628099fbe28bb8e480",
          "transactionIndex": "0x10",
          "logIndex": "0x80",
          "removed": false
        }
      ],
      "logsBloom": "0x00010000000000000000000040000000000000000000000000000000000000000000000000000000000000000000000000000000000000000000010000080080000000000000000000000000000000040000000000000000000000000000000010000000000000000000000000000000000000000000000000000000000000000020000000000000000000000000000000000000008000000000000000000000000000000000000000000000000000000000000000000000000000080000000000000000008000000000000000000000000000000000000040000000000000000000000000002000000000000000000000000000000000000000000000000400",
      "type": "0x2",
      "transactionHash": "0x8e155474e0e9a60531da18b1a0c8c638418022c19ec389628099fbe28bb8e480",
      "transactionIndex": "0x10",
      "blockHash": "0xdd5f42453d3201c9e2cea0d4b93d27f20fcd0731372e156484d71b7a959def9e",
      "blockNumber": "0x1a24f263",
      "gasUsed": "0xbac3",
      "effectiveGasPrice": "0x13664f0",
      "from": "0x93af6d19a1738e52295014ac0103b005048df388",
      "to": "0x000000000022d473030f116ddee9f6b43ac78ba3",
      "contractAddress": null,
      "gasUsedForL1": "0x11",
      "l1BlockNumber": "0x1773eb8",
      "timeboosted": false
    },
    {
      "status": "0x1",
      "cumulativeGasUsed": "0x8fa3",
      "logs": [
        {
          "address": "0xfd086bc7cd5c481dcc9c85ebe478a1c0b69fcbb9",
          "topics": [
            "0x8c5be1e5ebec7d5bd14f71427d1e84f3dd0314c0f7b2291e5b200ac8c7c3b925",
            "0x00000000000000000000000093af6d19a1738e52295014ac0103b005048df388",
            "0x000000000000000000000000000000000022d473030f116ddee9f6b43ac78ba3"
          ],
          "data": "0xffffffffffffffffffffffffffffffffffffffffffffffffffffffffffffffff",
          "blockHash": "0x7d147df4d7ca50b749da438f7af5ebbd851d256462509449f679b95d330c486a",
          "blockNumber": "0x1a24f28b",
          "blockTimestamp": "0x69a99bed",
          "transactionHash": "0x467f1cc3f0d086c203e50fbcb691b5f4b0b108822d34d2d99c86d38690077725",
          "transactionIndex": "0x1",
          "logIndex": "0x0",
          "removed": false
        }
      ],
      "logsBloom": "0x00000000000000000000000000000000000000000000000000000000000000000000000000000000000000000000000000000000800000000000010000200000000010000000000000004000000000000000000000000800000000000000000000000000000000000000000000000000000000000000000000000000000000000000000000000000000000000000000000000000008000000000000000000000020000000000000000000000000000000000000000000000000000000000000000008000008000000000000000000000000000000000000000000000000000000010000000000000000000000000000010000000000000000000000000000000",
      "type": "0x2",
      "transactionHash": "0x467f1cc3f0d086c203e50fbcb691b5f4b0b108822d34d2d99c86d38690077725",
      "transactionIndex": "0x1",
      "blockHash": "0x7d147df4d7ca50b749da438f7af5ebbd851d256462509449f679b95d330c486a",
      "blockNumber": "0x1a24f28b",
      "gasUsed": "0x8fa3",
      "effectiveGasPrice": "0x138ed60",
      "from": "0x93af6d19a1738e52295014ac0103b005048df388",
      "to": "0xfd086bc7cd5c481dcc9c85ebe478a1c0b69fcbb9",
      "contractAddress": null,
      "gasUsedForL1": "0xd",
      "l1BlockNumber": "0x1773eb8",
      "timeboosted": false
    },
    {
      "status": "0x1",
      "cumulativeGasUsed": "0xce2dc",
      "logs": [
        {
          "address": "0x000000000022d473030f116ddee9f6b43ac78ba3",
          "topics": [
            "0xda9fa7c1b00402c17d0161b249b1ab8bbec047c5a52207b9c112deffd817036b",
            "0x00000000000000000000000093af6d19a1738e52295014ac0103b005048df388",
            "0x000000000000000000000000fd086bc7cd5c481dcc9c85ebe478a1c0b69fcbb9",
            "0x000000000000000000000000a51afafe0263b40edaef0df8781ea9aa03e381a3"
          ],
          "data": "0x000000000000000000000000ffffffffffffffffffffffffffffffffffffffff0000000000000000000000000000000000000000000000000000000069a99fa5",
          "blockHash": "0x0d1a4dd56f4390de28b94f3286260d8b740cfbc66c8a5fe58c1c9452241878c1",
          "blockNumber": "0x1a24f291",
          "blockTimestamp": "0x69a99bee",
          "transactionHash": "0x7319a1ddc7ad9c7087c9bfa3172b98b0f94396b1ce0fbb6542868faa8c17bcfc",
          "transactionIndex": "0xb",
          "logIndex": "0x8",
          "removed": false
        }
      ],
      "logsBloom": "0x00010000000000000000000040000000000000000000000000000000000000000000000000000000000000000000000000000000000000000000010000080000000000000000000000000000000000040000000000000000004000000000000000000000000000000000000000000000000000000000000000000000000000000020000000000000000000000000000000000000008000000000000000000000000000000000000000000000000000000000000000000000000000080000000000000000008000000000000000000000000000000000200040000000000000000000000000000000000000000000000000000000000000000000080000000400",
      "type": "0x2",
      "transactionHash": "0x7319a1ddc7ad9c7087c9bfa3172b98b0f94396b1ce0fbb6542868faa8c17bcfc",
      "transactionIndex": "0xb",
      "blockHash": "0x0d1a4dd56f4390de28b94f3286260d8b740cfbc66c8a5fe58c1c9452241878c1",
      "blockNumber": "0x1a24f291",
      "gasUsed": "0x77f7",
      "effectiveGasPrice": "0x1361ea0",
      "from": "0x93af6d19a1738e52295014ac0103b005048df388",
      "to": "0x000000000022d473030f116ddee9f6b43ac78ba3",
      "contractAddress": null,
      "gasUsedForL1": "0x11",
      "l1BlockNumber": "0x1773eb8",
      "timeboosted": false
    },
    {
      "status": "0x1",
      "cumulativeGasUsed": "0x2947eb",
      "logs": [
        {
          "address": "0x360e68faccca8ca495c1b759fd9eee466db9fb32",
          "topics": [
            "0x40e9cecb9f5f1f1c5b9c97dec2917b7ee92e57ba5563708daca94dd84ad7112f",
            "0x732538106e68eaea89c67f5105e83c00ac90a689f16ae6ab8708aeec26cd70bf",
            "0x000000000000000000000000fd55530f772784902e91ef952cffe9a569bf2888"
          ],
          "data": "0xfffffffffffffffffffffffffffffffffffffffffffffffffffffffffff0bdc000000000000000000000000000000000000000000000000084c96a4ea5d43a8a00000000000000000000000000000000002f2a07f0b1a88ee6563d7702191acd00000000000000000000000000000000000000000000000000058069792e91420000000000000000000000000000000000000000000000000000000000048f8e00000000000000000000000000000000000000000000000000000000000001f4",
          "blockHash": "0xcbca33173324c508459641c476dae9c09574afd93cb2056540beca0087305786",
          "blockNumber": "0x1a24f29b",
          "blockTimestamp": "0x69a99bf1",
          "transactionHash": "0x539a7a684661c265442f2a7e157893256caa4d5c649150c1762b44b1580e6f7d",
          "transactionIndex": "0x11",
          "logIndex": "0x34",
          "removed": false
        },
        {
          "address": "0x360e68faccca8ca495c1b759fd9eee466db9fb32",
          "topics": [
            "0x1b3d7edb2e9c0b0e7c525b20aaaef0f5940d2ed71663c7d39266ecafac728859",
            "0x0000000000000000000000000000000000000000000000000000000000000000",
            "0x000000000000000000000000fd55530f772784902e91ef952cffe9a569bf2888",
            "0x000000000000000000000000fd086bc7cd5c481dcc9c85ebe478a1c0b69fcbb9"
          ],
          "data": "0x000000000000000000000000fd55530f772784902e91ef952cffe9a569bf288800000000000000000000000000000000000000000000000000000000000f4240",
          "blockHash": "0xcbca33173324c508459641c476dae9c09574afd93cb2056540beca0087305786",
          "blockNumber": "0x1a24f29b",
          "blockTimestamp": "0x69a99bf1",
          "transactionHash": "0x539a7a684661c265442f2a7e157893256caa4d5c649150c1762b44b1580e6f7d",
          "transactionIndex": "0x11",
          "logIndex": "0x35",
          "removed": false
        },
        {
          "address": "0x667a8a91d6a6b99f455212bf2036d28b3170156a",
          "topics": [
            "0xddf252ad1be2c89b69c2b068fc378daa952ba7f163c4a11628f55a4df523b3ef",
            "0x0000000000000000000000000000000000000000000000000000000000000000",
            "0x000000000000000000000000fd55530f772784902e91ef952cffe9a569bf2888"
          ],
          "data": "0x00000000000000000000000000000000000000000000000000000000000f4240",
          "blockHash": "0xcbca33173324c508459641c476dae9c09574afd93cb2056540beca0087305786",
          "blockNumber": "0x1a24f29b",
          "blockTimestamp": "0x69a99bf1",
          "transactionHash": "0x539a7a684661c265442f2a7e157893256caa4d5c649150c1762b44b1580e6f7d",
          "transactionIndex": "0x11",
          "logIndex": "0x36",
          "removed": false
        },
        {
          "address": "0x667a8a91d6a6b99f455212bf2036d28b3170156a",
          "topics": [
            "0xddf252ad1be2c89b69c2b068fc378daa952ba7f163c4a11628f55a4df523b3ef",
            "0x000000000000000000000000fd55530f772784902e91ef952cffe9a569bf2888",
            "0x000000000000000000000000360e68faccca8ca495c1b759fd9eee466db9fb32"
          ],
          "data": "0x00000000000000000000000000000000000000000000000000000000000f4240",
          "blockHash": "0xcbca33173324c508459641c476dae9c09574afd93cb2056540beca0087305786",
          "blockNumber": "0x1a24f29b",
          "blockTimestamp": "0x69a99bf1",
          "transactionHash": "0x539a7a684661c265442f2a7e157893256caa4d5c649150c1762b44b1580e6f7d",
          "transactionIndex": "0x11",
          "logIndex": "0x37",
          "removed": false
        },
        {
          "address": "0xb59d6359d6532b8551ffec0530e95c2de00e5983",
          "topics": [
            "0xddf252ad1be2c89b69c2b068fc378daa952ba7f163c4a11628f55a4df523b3ef",
            "0x000000000000000000000000360e68faccca8ca495c1b759fd9eee466db9fb32",
            "0x000000000000000000000000fd55530f772784902e91ef952cffe9a569bf2888"
          ],
          "data": "0x00000000000000000000000000000000000000000000000084c96a4ea5d43a8a",
          "blockHash": "0xcbca33173324c508459641c476dae9c09574afd93cb2056540beca0087305786",
          "blockNumber": "0x1a24f29b",
          "blockTimestamp": "0x69a99bf1",
          "transactionHash": "0x539a7a684661c265442f2a7e157893256caa4d5c649150c1762b44b1580e6f7d",
          "transactionIndex": "0x11",
          "logIndex": "0x38",
          "removed": false
        },
        {
          "address": "0xb59d6359d6532b8551ffec0530e95c2de00e5983",
          "topics": [
            "0xddf252ad1be2c89b69c2b068fc378daa952ba7f163c4a11628f55a4df523b3ef",
            "0x000000000000000000000000fd55530f772784902e91ef952cffe9a569bf2888",
            "0x0000000000000000000000000000000000000000000000000000000000000000"
          ],
          "data": "0x00000000000000000000000000000000000000000000000084c96a4ea5d43a8a",
          "blockHash": "0xcbca33173324c508459641c476dae9c09574afd93cb2056540beca0087305786",
          "blockNumber": "0x1a24f29b",
          "blockTimestamp": "0x69a99bf1",
          "transactionHash": "0x539a7a684661c265442f2a7e157893256caa4d5c649150c1762b44b1580e6f7d",
          "transactionIndex": "0x11",
          "logIndex": "0x39",
          "removed": false
        },
        {
          "address": "0x360e68faccca8ca495c1b759fd9eee466db9fb32",
          "topics": [
            "0x1b3d7edb2e9c0b0e7c525b20aaaef0f5940d2ed71663c7d39266ecafac728859",
            "0x000000000000000000000000fd55530f772784902e91ef952cffe9a569bf2888",
            "0x0000000000000000000000000000000000000000000000000000000000000000",
            "0x000000000000000000000000912ce59144191c1204e64559fe8253a0e49e6548"
          ],
          "data": "0x000000000000000000000000fd55530f772784902e91ef952cffe9a569bf288800000000000000000000000000000000000000000000000084c96a4ea5d43a8a",
          "blockHash": "0xcbca33173324c508459641c476dae9c09574afd93cb2056540beca0087305786",
          "blockNumber": "0x1a24f29b",
          "blockTimestamp": "0x69a99bf1",
          "transactionHash": "0x539a7a684661c265442f2a7e157893256caa4d5c649150c1762b44b1580e6f7d",
          "transactionIndex": "0x11",
          "logIndex": "0x3a",
          "removed": false
        },
        {
          "address": "0x360e68faccca8ca495c1b759fd9eee466db9fb32",
          "topics": [
            "0x40e9cecb9f5f1f1c5b9c97dec2917b7ee92e57ba5563708daca94dd84ad7112f",
            "0xc1db6bb5aa4212ab09ede542afbf4bf0fd7675e565c1dba0a0b69422278a18ab",
            "0x000000000000000000000000a51afafe0263b40edaef0df8781ea9aa03e381a3"
          ],
          "data": "0x0000000000000000000000000000000000000000000000000000000000000000000000000000000000000000000000000000000000000000000000000000000000000000000000000000000000000000000000000000056ac1c11b43f8b17bdc0000000000000000000000000000000000000000000000000000000000000000fffffffffffffffffffffffffffffffffffffffffffffffffffffffffffb70490000000000000000000000000000000000000000000000000000000000000000",
          "blockHash": "0xcbca33173324c508459641c476dae9c09574afd93cb2056540beca0087305786",
          "blockNumber": "0x1a24f29b",
          "blockTimestamp": "0x69a99bf1",
          "transactionHash": "0x539a7a684661c265442f2a7e157893256caa4d5c649150c1762b44b1580e6f7d",
          "transactionIndex": "0x11",
          "logIndex": "0x3b",
          "removed": false
        },
        {
          "address": "0xfd086bc7cd5c481dcc9c85ebe478a1c0b69fcbb9",
          "topics": [
            "0xddf252ad1be2c89b69c2b068fc378daa952ba7f163c4a11628f55a4df523b3ef",
            "0x00000000000000000000000093af6d19a1738e52295014ac0103b005048df388",
            "0x000000000000000000000000360e68faccca8ca495c1b759fd9eee466db9fb32"
          ],
          "data": "0x00000000000000000000000000000000000000000000000000000000000f4240",
          "blockHash": "0xcbca33173324c508459641c476dae9c09574afd93cb2056540beca0087305786",
          "blockNumber": "0x1a24f29b",
          "blockTimestamp": "0x69a99bf1",
          "transactionHash": "0x539a7a684661c265442f2a7e157893256caa4d5c649150c1762b44b1580e6f7d",
          "transactionIndex": "0x11",
          "logIndex": "0x3c",
          "removed": false
        },
        {
          "address": "0xfd086bc7cd5c481dcc9c85ebe478a1c0b69fcbb9",
          "topics": [
            "0x8c5be1e5ebec7d5bd14f71427d1e84f3dd0314c0f7b2291e5b200ac8c7c3b925",
            "0x00000000000000000000000093af6d19a1738e52295014ac0103b005048df388",
            "0x000000000000000000000000000000000022d473030f116ddee9f6b43ac78ba3"
          ],
          "data": "0xfffffffffffffffffffffffffffffffffffffffffffffffffffffffffff0bdbf",
          "blockHash": "0xcbca33173324c508459641c476dae9c09574afd93cb2056540beca0087305786",
          "blockNumber": "0x1a24f29b",
          "blockTimestamp": "0x69a99bf1",
          "transactionHash": "0x539a7a684661c265442f2a7e157893256caa4d5c649150c1762b44b1580e6f7d",
          "transactionIndex": "0x11",
          "logIndex": "0x3d",
          "removed": false
        },
        {
          "address": "0x912ce59144191c1204e64559fe8253a0e49e6548",
          "topics": [
            "0xddf252ad1be2c89b69c2b068fc378daa952ba7f163c4a11628f55a4df523b3ef",
            "0x000000000000000000000000360e68faccca8ca495c1b759fd9eee466db9fb32",
            "0x00000000000000000000000093af6d19a1738e52295014ac0103b005048df388"
          ],
          "data": "0x00000000000000000000000000000000000000000000000084c96a4ea5d43a8a",
          "blockHash": "0xcbca33173324c508459641c476dae9c09574afd93cb2056540beca0087305786",
          "blockNumber": "0x1a24f29b",
          "blockTimestamp": "0x69a99bf1",
          "transactionHash": "0x539a7a684661c265442f2a7e157893256caa4d5c649150c1762b44b1580e6f7d",
          "transactionIndex": "0x11",
          "logIndex": "0x3e",
          "removed": false
        }
      ],
      "logsBloom": "0x00010000000000000000000040000020000000000000000000000000001000000000006000000000000000000800000000000000840000400000010000200080000010000000000001204008000104040000000000000820004800000000000010000000020000000000000000000800000000000000400000000010000000000000020000000000000000000000001000000000008000002000000000000000020000000000000000000000000020080000000001000000000000000000000000008002008000000400000000000000000004000008200000000001000020000010000040002000004020080000000010000000000000000000080004000008",
      "type": "0x2",
      "transactionHash": "0x539a7a684661c265442f2a7e157893256caa4d5c649150c1762b44b1580e6f7d",
      "transactionIndex": "0x11",
      "blockHash": "0xcbca33173324c508459641c476dae9c09574afd93cb2056540beca0087305786",
      "blockNumber": "0x1a24f29b",
      "gasUsed": "0x639a7",
      "effectiveGasPrice": "0x133f3f0",
      "from": "0x93af6d19a1738e52295014ac0103b005048df388",
      "to": "0xa51afafe0263b40edaef0df8781ea9aa03e381a3",
      "contractAddress": null,
      "gasUsedForL1": "0x1d",
      "l1BlockNumber": "0x1773eb9",
      "timeboosted": false
    }
  ],
  "libraries": [],
  "pending": [],
  "returns": {},
  "timestamp": 1772723185856,
  "chain": 42161,
  "commit": "b658fb76"
}