{
  "transactions": [
    {
      "hash": "0x3255a326ae71961ac8b7f204b7cbda2fb045a04e9386f199222770254cc1f497",
      "transactionType": "CALL",
      "contractName": null,
      "contractAddress": "0xe0b42df543e04bc1a5e92d74ab352799187f0980",
      "function": "proxyCall(address,bytes)",
      "arguments": [
        "0xf738a943e140315Ac9B2a09FE2f709ED7B0dcF83",
        "0x584f6b60000000000000000000000000ee9f85a6128182d83d7f27492f515a89bec0c13b0000000000000000000000000000000000000000000000000000000000000060000000000000000000000000e0b42df543e04bc1a5e92d74ab352799187f0980000000000000000000000000000000000000000000000000000000000000001b736574546f6b656e436f6e66696728546f6b656e436f6e666967290000000000"
      ],
      "transaction": {
        "from": "0x93af6d19a1738e52295014ac0103b005048df388",
        "to": "0xe0b42df543e04bc1a5e92d74ab352799187f0980",
        "gas": "0x13e2b",
        "value": "0x0",
        "input": "0x2a31f6b4000000000000000000000000f738a943e140315ac9b2a09fe2f709ed7b0dcf83000000000000000000000000000000000000000000000000000000000000004000000000000000000000000000000000000000000000000000000000000000a4584f6b60000000000000000000000000ee9f85a6128182d83d7f27492f515a89bec0c13b0000000000000000000000000000000000000000000000000000000000000060000000000000000000000000e0b42df543e04bc1a5e92d74ab352799187f0980000000000000000000000000000000000000000000000000000000000000001b736574546f6b656e436f6e66696728546f6b656e436f6e66696729000000000000000000000000000000000000000000000000000000000000000000",
        "nonce": "0xa8",
        "chainId": "0xa4b1"
      },
      "additionalContracts": [],
      "isFixedGasLimit": false
    }
  ],
  "receipts": [
    {
      "status": "0x1",
      "cumulativeGasUsed": "0x12d041",
      "logs": [
        {
          "address": "0xf738a943e140315ac9b2a09fe2f709ed7b0dcf83",
          "topics": [
            "0x2f8788117e7eff1d82e926ec794901d17c78024a50270940304540a733656f0d",
            "0x2d538c215e179618cdd0d2768b1ed69fc339d483ce5b26d8a92c80fbcfc69b96",
            "0x000000000000000000000000e0b42df543e04bc1a5e92d74ab352799187f0980",
            "0x000000000000000000000000e0b42df543e04bc1a5e92d74ab352799187f0980"
          ],
          "data": "0x",
          "blockHash": "0x03a43c6a5a7d9ba18a7712150eefaf79ced371dd9b0cf4d31fb28361d9055143",
          "blockNumber": "0x1a0604a7",
          "blockTimestamp": "0x69a1e55c",
          "transactionHash": "0x3255a326ae71961ac8b7f204b7cbda2fb045a04e9386f199222770254cc1f497",
          "transactionIndex": "0xe",
          "logIndex": "0xe",
          "removed": false
        },
        {
          "address": "0xf738a943e140315ac9b2a09fe2f709ed7b0dcf83",
          "topics": [
            "0x69c5ce2d658fea352a2464f87ffbe1f09746c918a91da0994044c3767d641b3f"
          ],
          "data": "0x000000000000000000000000e0b42df543e04bc1a5e92d74ab352799187f0980000000000000000000000000ee9f85a6128182d83d7f27492f515a89bec0c13b0000000000000000000000000000000000000000000000000000000000000060000000000000000000000000000000000000000000000000000000000000001b736574546f6b656e436f6e66696728546f6b656e436f6e666967290000000000",
          "blockHash": "0x03a43c6a5a7d9ba18a7712150eefaf79ced371dd9b0cf4d31fb28361d9055143",
          "blockNumber": "0x1a0604a7",
          "blockTimestamp": "0x69a1e55c",
          "transactionHash": "0x3255a326ae71961ac8b7f204b7cbda2fb045a04e9386f199222770254cc1f497",
          "transactionIndex": "0xe",
          "logIndex": "0xf",
          "removed": false
        }
      ],
      "logsBloom": "0x00000004000000000000000000000000000000000000400000000000000000000000000002000000000000000000000000000000000000000000000000000000000000000000000000000000000000000000000000000000000000000000000000000000000000000000000000000000000000004000020000000000000000000000000008000000000000000000000000000000040000000000000000000000000000000000000000000000000000000000400000000000001004000000000000000000000000000000000000200000000000040000000100000000000000000000004000000000000000000000000000000000000000000000000000200000",
      "type": "0x2",
      "transactionHash": "0x3255a326ae71961ac8b7f204b7cbda2fb045a04e9386f199222770254cc1f497",
      "transactionIndex": "0xe",
      "blockHash": "0x03a43c6a5a7d9ba18a7712150eefaf79ced371dd9b0cf4d31fb28361d9055143",
      "blockNumber": "0x1a0604a7",
      "gasUsed": "0xf144",
      "effectiveGasPrice": "0x1338e60",
      "from": "0x93af6d19a1738e52295014ac0103b005048df388",
      "to": "0xe0b42df543e04bc1a5e92d74ab352799187f0980",
      "contractAddress": null,
      "gasUsedForL1": "0x11a",
      "l1BlockNumber": "0x1769aeb",
      "timeboosted": false
    }
  ],
  "libraries": [],
  "pending": [],
  "returns": {},
  "timestamp": 1772217692894,
  "chain": 42161,
  "commit": "a62abb27"
}