{
  "transactions": [
    {
      "hash": "0x92d536d1da613937ee31c678e6f0894a35dc94ba6707641a85bb2dab4dee495c",
      "transactionType": "CALL",
      "contractName": null,
      "contractAddress": "0xe0b42df543e04bc1a5e92d74ab352799187f0980",
      "function": "proxyCall(address,bytes)",
      "arguments": [
        "0xf738a943e140315Ac9B2a09FE2f709ED7B0dcF83",
        "0x584f6b600000000000000000000000004535b26eea5ec9ad573248c3a5c0abff430788040000000000000000000000000000000000000000000000000000000000000060000000000000000000000000e0b42df543e04bc1a5e92d74ab352799187f0980000000000000000000000000000000000000000000000000000000000000002173657456616c6964617465436f6e6669672856616c6964617465436f6e6669672900000000000000000000000000000000000000000000000000000000000000"
      ],
      "transaction": {
        "from": "0x93af6d19a1738e52295014ac0103b005048df388",
        "to": "0xe0b42df543e04bc1a5e92d74ab352799187f0980",
        "gas": "0x14098",
        "value": "0x0",
        "input": "0x2a31f6b4000000000000000000000000f738a943e140315ac9b2a09fe2f709ed7b0dcf83000000000000000000000000000000000000000000000000000000000000004000000000000000000000000000000000000000000000000000000000000000c4584f6b600000000000000000000000004535b26eea5ec9ad573248c3a5c0abff430788040000000000000000000000000000000000000000000000000000000000000060000000000000000000000000e0b42df543e04bc1a5e92d74ab352799187f0980000000000000000000000000000000000000000000000000000000000000002173657456616c6964617465436f6e6669672856616c6964617465436f6e666967290000000000000000000000000000000000000000000000000000000000000000000000000000000000000000000000000000000000000000000000",
        "nonce": "0xa7",
        "chainId": "0xa4b1"
      },
      "additionalContracts": [],
      "isFixedGasLimit": false
    }
  ],
  "receipts": [
    {
      "status": "0x1",
      "cumulativeGasUsed": "0x4ba80",
      "logs": [
        {
          "address": "0xf738a943e140315ac9b2a09fe2f709ed7b0dcf83",
          "topics": [
            "0x2f8788117e7eff1d82e926ec794901d17c78024a50270940304540a733656f0d",
            "0x57f200dd0c2c0c2a5eb27692231ae4cb41f0c42fa5db7e69591bd5d694fbe2ce",
            "0x000000000000000000000000e0b42df543e04bc1a5e92d74ab352799187f0980",
            "0x000000000000000000000000e0b42df543e04bc1a5e92d74ab352799187f0980"
          ],
          "data": "0x",
          "blockHash": "0xc2fdf608b5db82d07f294e6bceb28c7539a1475cc2b1df57acb61ec286626cec",
          "blockNumber": "0x1a06040e",
          "blockTimestamp": "0x69a1e535",
          "transactionHash": "0x92d536d1da613937ee31c678e6f0894a35dc94ba6707641a85bb2dab4dee495c",
          "transactionIndex": "0x6",
          "logIndex": "0x3",
          "removed": false
        },
        {
          "address": "0xf738a943e140315ac9b2a09fe2f709ed7b0dcf83",
          "topics": [
            "0x69c5ce2d658fea352a2464f87ffbe1f09746c918a91da0994044c3767d641b3f"
          ],
          "data": "0x000000000000000000000000e0b42df543e04bc1a5e92d74ab352799187f09800000000000000000000000004535b26eea5ec9ad573248c3a5c0abff430788040000000000000000000000000000000000000000000000000000000000000060000000000000000000000000000000000000000000000000000000000000002173657456616c6964617465436f6e6669672856616c6964617465436f6e6669672900000000000000000000000000000000000000000000000000000000000000",
          "blockHash": "0xc2fdf608b5db82d07f294e6bceb28c7539a1475cc2b1df57acb61ec286626cec",
          "blockNumber": "0x1a06040e",
          "blockTimestamp": "0x69a1e535",
          "transactionHash": "0x92d536d1da613937ee31c678e6f0894a35dc94ba6707641a85bb2dab4dee495c",
          "transactionIndex": "0x6",
          "logIndex": "0x4",
          "removed": false
        }
      ],
      "logsBloom": "0x00000004000000000000000000000000000000000000400000000000000002000000000002000000000000000000000000000000000000000000000000000000000000000000000000000000000000000000800000000000000000000000000000000000000000000000000000000000000000004000020000000000000000000000000008000000000000000000000000000000000000000000000000000000000000000000000000000000000000000000000000000000001004000000000000000000000000000000000000200000000000040000000100000000000000000000004000000000000000000000002000000000000000000000000000000000",
      "type": "0x2",
      "transactionHash": "0x92d536d1da613937ee31c678e6f0894a35dc94ba6707641a85bb2dab4dee495c",
      "transactionIndex": "0x6",
      "blockHash": "0xc2fdf608b5db82d07f294e6bceb28c7539a1475cc2b1df57acb61ec286626cec",
      "blockNumber": "0x1a06040e",
      "gasUsed": "0xf322",
      "effectiveGasPrice": "0x1314470",
      "from": "0x93af6d19a1738e52295014ac0103b005048df388",
      "to": "0xe0b42df543e04bc1a5e92d74ab352799187f0980",
      "contractAddress": null,
      "gasUsedForL1": "0x124",
      "l1BlockNumber": "0x1769ae8",
      "timeboosted": false
    }
  ],
  "libraries": [],
  "pending": [],
  "returns": {},
  "timestamp": 1772217654522,
  "chain": 42161,
  "commit": "a62abb27"
}