{
  "transactions": [
    {
      "hash": "0x2cc7c779d323bd69f04e6bcc58f5ed6367abdc343fed51be6d98952cf94d53b1",
      "transactionType": "CALL",
      "contractName": null,
      "contractAddress": "0xa8853c9f8bd2d34d798b38497893c748b82215a0",
      "function": "proxyCall(address,bytes)",
      "arguments": [
        "0x3672fcc62A46918bc21b0B8c602c2698B7Fa6C2D",
        "0x584f6b60000000000000000000000000112d498aa6de897c0c9c89061a83ffe7979d3ce60000000000000000000000000000000000000000000000000000000000000060000000000000000000000000a8853c9f8bd2d34d798b38497893c748b82215a00000000000000000000000000000000000000000000000000000000000000029736574546f6b656e436f6e6669672828616464726573732c616464726573732c75696e7432353629290000000000000000000000000000000000000000000000"
      ],
      "transaction": {
        "from": "0x93af6d19a1738e52295014ac0103b005048df388",
        "to": "0xa8853c9f8bd2d34d798b38497893c748b82215a0",
        "gas": "0x15a0d",
        "value": "0x0",
        "input": "0x2a31f6b40000000000000000000000003672fcc62a46918bc21b0b8c602c2698b7fa6c2d000000000000000000000000000000000000000000000000000000000000004000000000000000000000000000000000000000000000000000000000000000c4584f6b60000000000000000000000000112d498aa6de897c0c9c89061a83ffe7979d3ce60000000000000000000000000000000000000000000000000000000000000060000000000000000000000000a8853c9f8bd2d34d798b38497893c748b82215a00000000000000000000000000000000000000000000000000000000000000029736574546f6b656e436f6e6669672828616464726573732c616464726573732c75696e743235362929000000000000000000000000000000000000000000000000000000000000000000000000000000000000000000000000000000",
        "nonce": "0x11b",
        "chainId": "0xa4b1"
      },
      "additionalContracts": [],
      "isFixedGasLimit": false
    }
  ],
  "receipts": [
    {
      "status": "0x1",
      "cumulativeGasUsed": "0x79ec5",
      "logs": [
        {
          "address": "0x3672fcc62a46918bc21b0b8c602c2698b7fa6c2d",
          "topics": [
            "0x2f8788117e7eff1d82e926ec794901d17c78024a50270940304540a733656f0d",
            "0xf06a501af484d03cfa57d6974c74890000b7b1bf524390932219163e137d5050",
            "0x000000000000000000000000a8853c9f8bd2d34d798b38497893c748b82215a0",
            "0x000000000000000000000000a8853c9f8bd2d34d798b38497893c748b82215a0"
          ],
          "data": "0x",
          "blockHash": "0x9c114b01f860e5eae30052987fdf140d1a4b7b5ab564ade0e8445ba3c3f929fb",
          "blockNumber": "0x1b25a08b",
          "blockTimestamp": "0x69e9db3d",
          "transactionHash": "0x2cc7c779d323bd69f04e6bcc58f5ed6367abdc343fed51be6d98952cf94d53b1",
          "transactionIndex": "0x5",
          "logIndex": "0xa",
          "removed": false
        },
        {
          "address": "0x3672fcc62a46918bc21b0b8c602c2698b7fa6c2d",
          "topics": [
            "0x69c5ce2d658fea352a2464f87ffbe1f09746c918a91da0994044c3767d641b3f"
          ],
          "data": "0x000000000000000000000000a8853c9f8bd2d34d798b38497893c748b82215a0000000000000000000000000112d498aa6de897c0c9c89061a83ffe7979d3ce600000000000000000000000000000000000000000000000000000000000000600000000000000000000000000000000000000000000000000000000000000029736574546f6b656e436f6e6669672828616464726573732c616464726573732c75696e7432353629290000000000000000000000000000000000000000000000",
          "blockHash": "0x9c114b01f860e5eae30052987fdf140d1a4b7b5ab564ade0e8445ba3c3f929fb",
          "blockNumber": "0x1b25a08b",
          "blockTimestamp": "0x69e9db3d",
          "transactionHash": "0x2cc7c779d323bd69f04e6bcc58f5ed6367abdc343fed51be6d98952cf94d53b1",
          "transactionIndex": "0x5",
          "logIndex": "0xb",
          "removed": false
        }
      ],
      "logsBloom": "0x00000004000000010000800000000000000000000000000000000000000000000000000000000000000000000000000000000000000000000000000040000000000000000000000000000000000000002000000000000000000000000000000000000000000000000000000000000000000000000000000000000000000000000000000000000000000000000010000000000000000000000000000000000000000000000000000000000000020000000000000000000080001004000000000000000000000000000000000000200000000000000000000100000010000000000000004000000000000000000000000000000000000000000200000000000000",
      "type": "0x2",
      "transactionHash": "0x2cc7c779d323bd69f04e6bcc58f5ed6367abdc343fed51be6d98952cf94d53b1",
      "transactionIndex": "0x5",
      "blockHash": "0x9c114b01f860e5eae30052987fdf140d1a4b7b5ab564ade0e8445ba3c3f929fb",
      "blockNumber": "0x1b25a08b",
      "gasUsed": "0x10305",
      "effectiveGasPrice": "0x132b3a0",
      "from": "0x93af6d19a1738e52295014ac0103b005048df388",
      "to": "0xa8853c9f8bd2d34d798b38497893c748b82215a0",
      "contractAddress": null,
      "gasUsedForL1": "0x10a4",
      "l1BlockNumber": "0x17c93c9",
      "timeboosted": false
    }
  ],
  "libraries": [
    "../evm/src/libraries/LCCFactoryLib.sol:LCCFactoryLinkedLib:0x875B922e2843373772C8a6d88cb7581bbD91C879",
    "../evm/src/libraries/LiquidityHubLinkedLib.sol:LiquidityHubLinkedLib:0xaCc580983f745C1c9edDbE3b5F3d221F13D653F9",
    "../evm/src/libraries/VTSCommitLib.sol:VTSCommitLib:0xBab5960fB71f8096dE37497Dd8D41A6a20C9c9a7",
    "../evm/src/libraries/VTSLifecycleLinkedLib.sol:VTSLifecycleLinkedLib:0x61b4D910E7086a30b14fd8A4986b15b844ac27B9",
    "../evm/src/libraries/VTSPositionLib.sol:VTSPositionLib:0x823bDa51f62B814386408eB4ecC01F4256B1d516",
    "../evm/src/libraries/VTSPositionMMOpsLib.sol:VTSPositionMMOpsLib:0x76b2ea645Cf439D91391dDb7ca20a2E06C53Ca0d",
    "../evm/src/libraries/VTSSwapLib.sol:VTSSwapLib:0x5eE398A9363aD238Cb1c2b38bA8650a05750Db14"
  ],
  "pending": [],
  "returns": {},
  "timestamp": 1776933693627,
  "chain": 42161,
  "commit": "c94ce52a"
}