{
  "transactions": [
    {
      "hash": "0xa8ccbb42cb4b1bf24a7dbbef17d5f08aafbc6ff7b010d2e92e5af3f8f08ad7f6",
      "transactionType": "CALL",
      "contractName": null,
      "contractAddress": "0xe0b42df543e04bc1a5e92d74ab352799187f0980",
      "function": "proxyCall(address,bytes)",
      "arguments": [
        "0xf738a943e140315Ac9B2a09FE2f709ED7B0dcF83",
        "0x584f6b6000000000000000000000000034e24c8b1b5413a3031248eb079a4b5db353245b0000000000000000000000000000000000000000000000000000000000000060000000000000000000000000e0b42df543e04bc1a5e92d74ab352799187f09800000000000000000000000000000000000000000000000000000000000000029736574546f6b656e436f6e6669672828616464726573732c616464726573732c75696e7432353629290000000000000000000000000000000000000000000000"
      ],
      "transaction": {
        "from": "0x93af6d19a1738e52295014ac0103b005048df388",
        "to": "0xe0b42df543e04bc1a5e92d74ab352799187f0980",
        "gas": "0x1412f",
        "value": "0x0",
        "input": "0x2a31f6b4000000000000000000000000f738a943e140315ac9b2a09fe2f709ed7b0dcf83000000000000000000000000000000000000000000000000000000000000004000000000000000000000000000000000000000000000000000000000000000c4584f6b6000000000000000000000000034e24c8b1b5413a3031248eb079a4b5db353245b0000000000000000000000000000000000000000000000000000000000000060000000000000000000000000e0b42df543e04bc1a5e92d74ab352799187f09800000000000000000000000000000000000000000000000000000000000000029736574546f6b656e436f6e6669672828616464726573732c616464726573732c75696e743235362929000000000000000000000000000000000000000000000000000000000000000000000000000000000000000000000000000000",
        "nonce": "0xa6",
        "chainId": "0xa4b1"
      },
      "additionalContracts": [],
      "isFixedGasLimit": false
    }
  ],
  "receipts": [
    {
      "status": "0x1",
      "cumulativeGasUsed": "0xf397",
      "logs": [
        {
          "address": "0xf738a943e140315ac9b2a09fe2f709ed7b0dcf83",
          "topics": [
            "0x2f8788117e7eff1d82e926ec794901d17c78024a50270940304540a733656f0d",
            "0x7dc44985ffd09936a23bbc28eedfe52c1d4b78f003d444806be126628ea561ea",
            "0x000000000000000000000000e0b42df543e04bc1a5e92d74ab352799187f0980",
            "0x000000000000000000000000e0b42df543e04bc1a5e92d74ab352799187f0980"
          ],
          "data": "0x",
          "blockHash": "0x202f028d330fb54158c9877f5e1426cf9a1ff72b6133fab9346c17974f513af4",
          "blockNumber": "0x1a06035b",
          "blockTimestamp": "0x69a1e508",
          "transactionHash": "0xa8ccbb42cb4b1bf24a7dbbef17d5f08aafbc6ff7b010d2e92e5af3f8f08ad7f6",
          "transactionIndex": "0x1",
          "logIndex": "0x0",
          "removed": false
        },
        {
          "address": "0xf738a943e140315ac9b2a09fe2f709ed7b0dcf83",
          "topics": [
            "0x69c5ce2d658fea352a2464f87ffbe1f09746c918a91da0994044c3767d641b3f"
          ],
          "data": "0x000000000000000000000000e0b42df543e04bc1a5e92d74ab352799187f098000000000000000000000000034e24c8b1b5413a3031248eb079a4b5db353245b00000000000000000000000000000000000000000000000000000000000000600000000000000000000000000000000000000000000000000000000000000029736574546f6b656e436f6e6669672828616464726573732c616464726573732c75696e7432353629290000000000000000000000000000000000000000000000",
          "blockHash": "0x202f028d330fb54158c9877f5e1426cf9a1ff72b6133fab9346c17974f513af4",
          "blockNumber": "0x1a06035b",
          "blockTimestamp": "0x69a1e508",
          "transactionHash": "0xa8ccbb42cb4b1bf24a7dbbef17d5f08aafbc6ff7b010d2e92e5af3f8f08ad7f6",
          "transactionIndex": "0x1",
          "logIndex": "0x1",
          "removed": false
        }
      ],
      "logsBloom": "0x00000004000000000000000000000000000000000000400000000000000000000000000002000000000000000000000000100000000000000000000000000000000000000000000000000000000000000000000000000000000000000000000000000000000000000000000000000000000000004000020000000000000000000000000008000000000000000000000000000000000000000000000000000000000000000000000000000000000000000000080000000000001004000000000000000000000000000000000000200000000000040000000100000000000000000000004000000000000000000000000000000000000000000000000000001000",
      "type": "0x2",
      "transactionHash": "0xa8ccbb42cb4b1bf24a7dbbef17d5f08aafbc6ff7b010d2e92e5af3f8f08ad7f6",
      "transactionIndex": "0x1",
      "blockHash": "0x202f028d330fb54158c9877f5e1426cf9a1ff72b6133fab9346c17974f513af4",
      "blockNumber": "0x1a06035b",
      "gasUsed": "0xf397",
      "effectiveGasPrice": "0x131d110",
      "from": "0x93af6d19a1738e52295014ac0103b005048df388",
      "to": "0xe0b42df543e04bc1a5e92d74ab352799187f0980",
      "contractAddress": null,
      "gasUsedForL1": "0x136",
      "l1BlockNumber": "0x1769ae5",
      "timeboosted": false
    }
  ],
  "libraries": [],
  "pending": [],
  "returns": {},
  "timestamp": 1772217609727,
  "chain": 42161,
  "commit": "a62abb27"
}