{
  "transactions": [
    {
      "hash": "0x4a40a97657737e472fe4c3468c4ab059820ba65bca70709f0ad7662d9c325e94",
      "transactionType": "CALL",
      "contractName": null,
      "contractAddress": "0xa8853c9f8bd2d34d798b38497893c748b82215a0",
      "function": "proxyCall(address,bytes)",
      "arguments": [
        "0x3672fcc62A46918bc21b0B8c602c2698B7Fa6C2D",
        "0x584f6b600000000000000000000000006f0741db7072034fe71cb60ed690fbf5fa70bf430000000000000000000000000000000000000000000000000000000000000060000000000000000000000000a8853c9f8bd2d34d798b38497893c748b82215a0000000000000000000000000000000000000000000000000000000000000001b736574546f6b656e436f6e66696728546f6b656e436f6e666967290000000000"
      ],
      "transaction": {
        "from": "0x93af6d19a1738e52295014ac0103b005048df388",
        "to": "0xa8853c9f8bd2d34d798b38497893c748b82215a0",
        "gas": "0x1559c",
        "value": "0x0",
        "input": "0x2a31f6b40000000000000000000000003672fcc62a46918bc21b0b8c602c2698b7fa6c2d000000000000000000000000000000000000000000000000000000000000004000000000000000000000000000000000000000000000000000000000000000a4584f6b600000000000000000000000006f0741db7072034fe71cb60ed690fbf5fa70bf430000000000000000000000000000000000000000000000000000000000000060000000000000000000000000a8853c9f8bd2d34d798b38497893c748b82215a0000000000000000000000000000000000000000000000000000000000000001b736574546f6b656e436f6e66696728546f6b656e436f6e66696729000000000000000000000000000000000000000000000000000000000000000000",
        "nonce": "0x11d",
        "chainId": "0xa4b1"
      },
      "additionalContracts": [],
      "isFixedGasLimit": false
    }
  ],
  "receipts": [
    {
      "status": "0x1",
      "cumulativeGasUsed": "0x76223",
      "logs": [
        {
          "address": "0x3672fcc62a46918bc21b0b8c602c2698b7fa6c2d",
          "topics": [
            "0x2f8788117e7eff1d82e926ec794901d17c78024a50270940304540a733656f0d",
            "0x1790eb8ff4b7c6473da87a164435d3f03f41f31967ad3e6f4aac513c4d2a6af4",
            "0x000000000000000000000000a8853c9f8bd2d34d798b38497893c748b82215a0",
            "0x000000000000000000000000a8853c9f8bd2d34d798b38497893c748b82215a0"
          ],
          "data": "0x",
          "blockHash": "0x93e74d259d1c37f171931733ae5147a489dd6c36363e9db70e08fb23ef186933",
          "blockNumber": "0x1b25a0ee",
          "blockTimestamp": "0x69e9db56",
          "transactionHash": "0x4a40a97657737e472fe4c3468c4ab059820ba65bca70709f0ad7662d9c325e94",
          "transactionIndex": "0x4",
          "logIndex": "0x6",
          "removed": false
        },
        {
          "address": "0x3672fcc62a46918bc21b0b8c602c2698b7fa6c2d",
          "topics": [
            "0x69c5ce2d658fea352a2464f87ffbe1f09746c918a91da0994044c3767d641b3f"
          ],
          "data": "0x000000000000000000000000a8853c9f8bd2d34d798b38497893c748b82215a00000000000000000000000006f0741db7072034fe71cb60ed690fbf5fa70bf430000000000000000000000000000000000000000000000000000000000000060000000000000000000000000000000000000000000000000000000000000001b736574546f6b656e436f6e66696728546f6b656e436f6e666967290000000000",
          "blockHash": "0x93e74d259d1c37f171931733ae5147a489dd6c36363e9db70e08fb23ef186933",
          "blockNumber": "0x1b25a0ee",
          "blockTimestamp": "0x69e9db56",
          "transactionHash": "0x4a40a97657737e472fe4c3468c4ab059820ba65bca70709f0ad7662d9c325e94",
          "transactionIndex": "0x4",
          "logIndex": "0x7",
          "removed": false
        }
      ],
      "logsBloom": "0x00000004000000010000000000000000000000000000000000a00000000000000000000000000000000000000000000000000000000000000000000000000000000000000000000000000000000000002000000000000000000000000000000000000000000000000000000000000000000000000000000000000000000000000000000000000000000000000010000000000000000000000000000000000000000000000000000000000000020000000000000000000000001004000000000000000000000000020000000000200000000000000000000100000010000000000000004000000000000000000000000000000000000000000200000000000000",
      "type": "0x2",
      "transactionHash": "0x4a40a97657737e472fe4c3468c4ab059820ba65bca70709f0ad7662d9c325e94",
      "transactionIndex": "0x4",
      "blockHash": "0x93e74d259d1c37f171931733ae5147a489dd6c36363e9db70e08fb23ef186933",
      "blockNumber": "0x1b25a0ee",
      "gasUsed": "0xffe9",
      "effectiveGasPrice": "0x1317b20",
      "from": "0x93af6d19a1738e52295014ac0103b005048df388",
      "to": "0xa8853c9f8bd2d34d798b38497893c748b82215a0",
      "contractAddress": null,
      "gasUsedForL1": "0xfbf",
      "l1BlockNumber": "0x17c93cc",
      "timeboosted": false
    }
  ],
  "libraries": [
    "../evm/src/libraries/LCCFactoryLib.sol:LCCFactoryLinkedLib:0x875B922e2843373772C8a6d88cb7581bbD91C879",
    "../evm/src/libraries/LiquidityHubLinkedLib.sol:LiquidityHubLinkedLib:0xaCc580983f745C1c9edDbE3b5F3d221F13D653F9",
    "../evm/src/libraries/VTSCommitLib.sol:VTSCommitLib:0xBab5960fB71f8096dE37497Dd8D41A6a20C9c9a7",
    "../evm/src/libraries/VTSLifecycleLinkedLib.sol:VTSLifecycleLinkedLib:0x61b4D910E7086a30b14fd8A4986b15b844ac27B9",
    "../evm/src/libraries/VTSPositionLib.sol:VTSPositionLib:0x823bDa51f62B814386408eB4ecC01F4256B1d516",
    "../evm/src/libraries/VTSPositionMMOpsLib.sol:VTSPositionMMOpsLib:0x76b2ea645Cf439D91391dDb7ca20a2E06C53Ca0d",
    "../evm/src/libraries/VTSSwapLib.sol:VTSSwapLib:0x5eE398A9363aD238Cb1c2b38bA8650a05750Db14"
  ],
  "pending": [],
  "returns": {},
  "timestamp": 1776933718441,
  "chain": 42161,
  "commit": "c94ce52a"
}