{
  "transactions": [
    {
      "hash": "0x6d609f2a2905365b33ac6590c6fe0da82c9a0a5ec8468bd363f286070b4f3a04",
      "transactionType": "CALL",
      "contractName": null,
      "contractAddress": "0xe0b42df543e04bc1a5e92d74ab352799187f0980",
      "function": "proxyCall(address,bytes)",
      "arguments": [
        "0xf738a943e140315Ac9B2a09FE2f709ED7B0dcF83",
        "0x584f6b6000000000000000000000000034e24c8b1b5413a3031248eb079a4b5db353245b0000000000000000000000000000000000000000000000000000000000000060000000000000000000000000e0b42df543e04bc1a5e92d74ab352799187f0980000000000000000000000000000000000000000000000000000000000000001b736574546f6b656e436f6e66696728546f6b656e436f6e666967290000000000"
      ],
      "transaction": {
        "from": "0x93af6d19a1738e52295014ac0103b005048df388",
        "to": "0xe0b42df543e04bc1a5e92d74ab352799187f0980",
        "gas": "0x13e27",
        "value": "0x0",
        "input": "0x2a31f6b4000000000000000000000000f738a943e140315ac9b2a09fe2f709ed7b0dcf83000000000000000000000000000000000000000000000000000000000000004000000000000000000000000000000000000000000000000000000000000000a4584f6b6000000000000000000000000034e24c8b1b5413a3031248eb079a4b5db353245b0000000000000000000000000000000000000000000000000000000000000060000000000000000000000000e0b42df543e04bc1a5e92d74ab352799187f0980000000000000000000000000000000000000000000000000000000000000001b736574546f6b656e436f6e66696728546f6b656e436f6e66696729000000000000000000000000000000000000000000000000000000000000000000",
        "nonce": "0xa5",
        "chainId": "0xa4b1"
      },
      "additionalContracts": [],
      "isFixedGasLimit": false
    }
  ],
  "receipts": [
    {
      "status": "0x1",
      "cumulativeGasUsed": "0xaa8e3",
      "logs": [
        {
          "address": "0xf738a943e140315ac9b2a09fe2f709ed7b0dcf83",
          "topics": [
            "0x2f8788117e7eff1d82e926ec794901d17c78024a50270940304540a733656f0d",
            "0x005d17709e6e8e4291bd2f40828e1da09272e4889c91b83ee2611300ac07e029",
            "0x000000000000000000000000e0b42df543e04bc1a5e92d74ab352799187f0980",
            "0x000000000000000000000000e0b42df543e04bc1a5e92d74ab352799187f0980"
          ],
          "data": "0x",
          "blockHash": "0x6f5995b12f1a8433c5ad8a355df272a6a91cd2580e7b52986f172988e2f6325c",
          "blockNumber": "0x1a0602cf",
          "blockTimestamp": "0x69a1e4e5",
          "transactionHash": "0x6d609f2a2905365b33ac6590c6fe0da82c9a0a5ec8468bd363f286070b4f3a04",
          "transactionIndex": "0x7",
          "logIndex": "0x14",
          "removed": false
        },
        {
          "address": "0xf738a943e140315ac9b2a09fe2f709ed7b0dcf83",
          "topics": [
            "0x69c5ce2d658fea352a2464f87ffbe1f09746c918a91da0994044c3767d641b3f"
          ],
          "data": "0x000000000000000000000000e0b42df543e04bc1a5e92d74ab352799187f098000000000000000000000000034e24c8b1b5413a3031248eb079a4b5db353245b0000000000000000000000000000000000000000000000000000000000000060000000000000000000000000000000000000000000000000000000000000001b736574546f6b656e436f6e66696728546f6b656e436f6e666967290000000000",
          "blockHash": "0x6f5995b12f1a8433c5ad8a355df272a6a91cd2580e7b52986f172988e2f6325c",
          "blockNumber": "0x1a0602cf",
          "blockTimestamp": "0x69a1e4e5",
          "transactionHash": "0x6d609f2a2905365b33ac6590c6fe0da82c9a0a5ec8468bd363f286070b4f3a04",
          "transactionIndex": "0x7",
          "logIndex": "0x15",
          "removed": false
        }
      ],
      "logsBloom": "0x00000004000000000000000000000000000000000000500000000000000000000000000002000000000000000000000000000000000000000000000000000000000000000000000000000000000000000000000000000000000000000000000000000000000000000000000000000000000000004000020000000000000000000000000008000000000000000000000000000000000000000000000000000000000000000000000000000000000000000000000000000000001004000000000001000000000000000000000000200000000000040000000100000000000000000000004000000000000000000000000000000000800000000000000000000000",
      "type": "0x2",
      "transactionHash": "0x6d609f2a2905365b33ac6590c6fe0da82c9a0a5ec8468bd363f286070b4f3a04",
      "transactionIndex": "0x7",
      "blockHash": "0x6f5995b12f1a8433c5ad8a355df272a6a91cd2580e7b52986f172988e2f6325c",
      "blockNumber": "0x1a0602cf",
      "gasUsed": "0xf14e",
      "effectiveGasPrice": "0x1328c90",
      "from": "0x93af6d19a1738e52295014ac0103b005048df388",
      "to": "0xe0b42df543e04bc1a5e92d74ab352799187f0980",
      "contractAddress": null,
      "gasUsedForL1": "0x124",
      "l1BlockNumber": "0x1769ae1",
      "timeboosted": false
    }
  ],
  "libraries": [],
  "pending": [],
  "returns": {},
  "timestamp": 1772217574680,
  "chain": 42161,
  "commit": "a62abb27"
}