{
  "transactions": [
    {
      "hash": "0xb5fa9b16c35eee7f45e6589c0feb9a2af22aebdddb489f76a89918e75cabb76d",
      "transactionType": "CALL",
      "contractName": null,
      "contractAddress": "0xb39a803559a8f0de279f78814aa7de66b7bdd0cf",
      "function": "grantRole(bytes32,address)",
      "arguments": [
        "0x0000000000000000000000000000000000000000000000000000000000000000",
        "0xCa06Bc58b110911e2e9E47C6e839582395ce13E4"
      ],
      "transaction": {
        "from": "0x93af6d19a1738e52295014ac0103b005048df388",
        "to": "0xb39a803559a8f0de279f78814aa7de66b7bdd0cf",
        "gas": "0x10e9a",
        "value": "0x0",
        "input": "0x2f2ff15d0000000000000000000000000000000000000000000000000000000000000000000000000000000000000000ca06bc58b110911e2e9e47c6e839582395ce13e4",
        "nonce": "0xec",
        "chainId": "0xa4b1"
      },
      "additionalContracts": [],
      "isFixedGasLimit": false
    },
    {
      "hash": "0x6279a2dad5423fd12a036ca7506c370f07a4b716eee16d0f3382492a4131a8ca",
      "transactionType": "CALL",
      "contractName": null,
      "contractAddress": "0xca06bc58b110911e2e9e47c6e839582395ce13e4",
      "function": "proxyCall(address,bytes)",
      "arguments": [
        "0xB39a803559a8F0dE279f78814aA7DE66b7bdd0CF",
        "0xd547741f000000000000000000000000000000000000000000000000000000000000000000000000000000000000000093af6d19a1738e52295014ac0103b005048df388"
      ],
      "transaction": {
        "from": "0x93af6d19a1738e52295014ac0103b005048df388",
        "to": "0xca06bc58b110911e2e9e47c6e839582395ce13e4",
        "gas": "0xcc07",
        "value": "0x0",
        "input": "0x2a31f6b4000000000000000000000000b39a803559a8f0de279f78814aa7de66b7bdd0cf00000000000000000000000000000000000000000000000000000000000000400000000000000000000000000000000000000000000000000000000000000044d547741f000000000000000000000000000000000000000000000000000000000000000000000000000000000000000093af6d19a1738e52295014ac0103b005048df38800000000000000000000000000000000000000000000000000000000",
        "nonce": "0xed",
        "chainId": "0xa4b1"
      },
      "additionalContracts": [],
      "isFixedGasLimit": false
    },
    {
      "hash": "0xde3c628c2faba2f374ab6f28523742d9998c536cefffc564793eb1b7f88f9132",
      "transactionType": "CALL",
      "contractName": null,
      "contractAddress": "0xe57343fb025ff289b4e0e9d42c448c998e797661",
      "function": "transferOwnership(address)",
      "arguments": [
        "0xCa06Bc58b110911e2e9E47C6e839582395ce13E4"
      ],
      "transaction": {
        "from": "0x93af6d19a1738e52295014ac0103b005048df388",
        "to": "0xe57343fb025ff289b4e0e9d42c448c998e797661",
        "gas": "0x116ae",
        "value": "0x0",
        "input": "0xf2fde38b000000000000000000000000ca06bc58b110911e2e9e47c6e839582395ce13e4",
        "nonce": "0xee",
        "chainId": "0xa4b1"
      },
      "additionalContracts": [],
      "isFixedGasLimit": false
    },
    {
      "hash": null,
      "transactionType": "CALL",
      "contractName": null,
      "contractAddress": "0xca06bc58b110911e2e9e47c6e839582395ce13e4",
      "function": "proxyCall(address,bytes)",
      "arguments": [
        "0xE57343fb025FF289B4e0e9D42c448c998E797661",
        "0x79ba5097"
      ],
      "transaction": {
        "from": "0x93af6d19a1738e52295014ac0103b005048df388",
        "to": "0xca06bc58b110911e2e9e47c6e839582395ce13e4",
        "gas": "0xe42a",
        "value": "0x0",
        "input": "0x2a31f6b4000000000000000000000000e57343fb025ff289b4e0e9d42c448c998e7976610000000000000000000000000000000000000000000000000000000000000040000000000000000000000000000000000000000000000000000000000000000479ba509700000000000000000000000000000000000000000000000000000000",
        "nonce": "0xef",
        "chainId": "0xa4b1"
      },
      "additionalContracts": [],
      "isFixedGasLimit": false
    },
    {
      "hash": null,
      "transactionType": "CALL",
      "contractName": null,
      "contractAddress": "0x51873985a5b53e63f33053829637a54b565b8e56",
      "function": "transferOwnership(address)",
      "arguments": [
        "0xCa06Bc58b110911e2e9E47C6e839582395ce13E4"
      ],
      "transaction": {
        "from": "0x93af6d19a1738e52295014ac0103b005048df388",
        "to": "0x51873985a5b53e63f33053829637a54b565b8e56",
        "gas": "0x116d4",
        "value": "0x0",
        "input": "0xf2fde38b000000000000000000000000ca06bc58b110911e2e9e47c6e839582395ce13e4",
        "nonce": "0xf0",
        "chainId": "0xa4b1"
      },
      "additionalContracts": [],
      "isFixedGasLimit": false
    },
    {
      "hash": null,
      "transactionType": "CALL",
      "contractName": null,
      "contractAddress": "0xca06bc58b110911e2e9e47c6e839582395ce13e4",
      "function": "proxyCall(address,bytes)",
      "arguments": [
        "0x51873985A5b53E63F33053829637A54B565b8E56",
        "0x79ba5097"
      ],
      "transaction": {
        "from": "0x93af6d19a1738e52295014ac0103b005048df388",
        "to": "0xca06bc58b110911e2e9e47c6e839582395ce13e4",
        "gas": "0xd73f",
        "value": "0x0",
        "input": "0x2a31f6b400000000000000000000000051873985a5b53e63f33053829637a54b565b8e560000000000000000000000000000000000000000000000000000000000000040000000000000000000000000000000000000000000000000000000000000000479ba509700000000000000000000000000000000000000000000000000000000",
        "nonce": "0xf1",
        "chainId": "0xa4b1"
      },
      "additionalContracts": [],
      "isFixedGasLimit": false
    },
    {
      "hash": null,
      "transactionType": "CALL",
      "contractName": null,
      "contractAddress": "0x64e18ae5ede26359cf83b424ad9487c61ebc4911",
      "function": "transferOwnership(address)",
      "arguments": [
        "0xCa06Bc58b110911e2e9E47C6e839582395ce13E4"
      ],
      "transaction": {
        "from": "0x93af6d19a1738e52295014ac0103b005048df388",
        "to": "0x64e18ae5ede26359cf83b424ad9487c61ebc4911",
        "gas": "0x116d4",
        "value": "0x0",
        "input": "0xf2fde38b000000000000000000000000ca06bc58b110911e2e9e47c6e839582395ce13e4",
        "nonce": "0xf2",
        "chainId": "0xa4b1"
      },
      "additionalContracts": [],
      "isFixedGasLimit": false
    },
    {
      "hash": null,
      "transactionType": "CALL",
      "contractName": null,
      "contractAddress": "0xca06bc58b110911e2e9e47c6e839582395ce13e4",
      "function": "proxyCall(address,bytes)",
      "arguments": [
        "0x64e18AE5EDe26359cF83b424Ad9487C61Ebc4911",
        "0x79ba5097"
      ],
      "transaction": {
        "from": "0x93af6d19a1738e52295014ac0103b005048df388",
        "to": "0xca06bc58b110911e2e9e47c6e839582395ce13e4",
        "gas": "0xd721",
        "value": "0x0",
        "input": "0x2a31f6b400000000000000000000000064e18ae5ede26359cf83b424ad9487c61ebc49110000000000000000000000000000000000000000000000000000000000000040000000000000000000000000000000000000000000000000000000000000000479ba509700000000000000000000000000000000000000000000000000000000",
        "nonce": "0xf3",
        "chainId": "0xa4b1"
      },
      "additionalContracts": [],
      "isFixedGasLimit": false
    },
    {
      "hash": null,
      "transactionType": "CALL",
      "contractName": null,
      "contractAddress": "0xca06bc58b110911e2e9e47c6e839582395ce13e4",
      "function": "transferOwnership(address)",
      "arguments": [
        "0xCa06Bc58b110911e2e9E47C6e839582395ce13E4"
      ],
      "transaction": {
        "from": "0x93af6d19a1738e52295014ac0103b005048df388",
        "to": "0xca06bc58b110911e2e9e47c6e839582395ce13e4",
        "gas": "0xf9b2",
        "value": "0x0",
        "input": "0xf2fde38b000000000000000000000000ca06bc58b110911e2e9e47c6e839582395ce13e4",
        "nonce": "0xf4",
        "chainId": "0xa4b1"
      },
      "additionalContracts": [],
      "isFixedGasLimit": false
    },
    {
      "hash": null,
      "transactionType": "CALL",
      "contractName": null,
      "contractAddress": "0xca06bc58b110911e2e9e47c6e839582395ce13e4",
      "function": "proxyCall(address,bytes)",
      "arguments": [
        "0xCa06Bc58b110911e2e9E47C6e839582395ce13E4",
        "0x79ba5097"
      ],
      "transaction": {
        "from": "0x93af6d19a1738e52295014ac0103b005048df388",
        "to": "0xca06bc58b110911e2e9e47c6e839582395ce13e4",
        "gas": "0xa28e",
        "value": "0x0",
        "input": "0x2a31f6b4000000000000000000000000ca06bc58b110911e2e9e47c6e839582395ce13e40000000000000000000000000000000000000000000000000000000000000040000000000000000000000000000000000000000000000000000000000000000479ba509700000000000000000000000000000000000000000000000000000000",
        "nonce": "0xf5",
        "chainId": "0xa4b1"
      },
      "additionalContracts": [],
      "isFixedGasLimit": false
    }
  ],
  "receipts": [
    {
      "status": "0x1",
      "cumulativeGasUsed": "0x513e2",
      "logs": [
        {
          "address": "0xb39a803559a8f0de279f78814aa7de66b7bdd0cf",
          "topics": [
            "0x2f8788117e7eff1d82e926ec794901d17c78024a50270940304540a733656f0d",
            "0x0000000000000000000000000000000000000000000000000000000000000000",
            "0x000000000000000000000000ca06bc58b110911e2e9e47c6e839582395ce13e4",
            "0x00000000000000000000000093af6d19a1738e52295014ac0103b005048df388"
          ],
          "data": "0x",
          "blockHash": "0xcd7099b11b2f51e3f191cde4eb1b72cbbda6b98136da00b614fdacbaf4eb4991",
          "blockNumber": "0x1b253f2c",
          "blockTimestamp": "0x69e9c2eb",
          "transactionHash": "0xb5fa9b16c35eee7f45e6589c0feb9a2af22aebdddb489f76a89918e75cabb76d",
          "transactionIndex": "0x4",
          "logIndex": "0x4",
          "removed": false
        }
      ],
      "logsBloom": "0x00000004000000000000000000000000000000000000000000000000000000000000000000000000000000000000000000000000000000000000010000000000000000000000000000000000000008000000000000020000000000000000000000000000020008000000000000000800000000000000000000000000000000000000000000000000000000000000000000000000008000000000000000000000000000000000000000000000000000000000000000000000001000000040000000000040008000000000000000000000000000000000000100000000000020000000100000000000000000000000000000000000000000000000000000000000",
      "type": "0x2",
      "transactionHash": "0xb5fa9b16c35eee7f45e6589c0feb9a2af22aebdddb489f76a89918e75cabb76d",
      "transactionIndex": "0x4",
      "blockHash": "0xcd7099b11b2f51e3f191cde4eb1b72cbbda6b98136da00b614fdacbaf4eb4991",
      "blockNumber": "0x1b253f2c",
      "gasUsed": "0xcbf7",
      "effectiveGasPrice": "0x132ea50",
      "from": "0x93af6d19a1738e52295014ac0103b005048df388",
      "to": "0xb39a803559a8f0de279f78814aa7de66b7bdd0cf",
      "contractAddress": null,
      "gasUsedForL1": "0x45f",
      "l1BlockNumber": "0x17c91c2",
      "timeboosted": false
    },
    {
      "status": "0x1",
      "cumulativeGasUsed": "0x9233",
      "logs": [
        {
          "address": "0xb39a803559a8f0de279f78814aa7de66b7bdd0cf",
          "topics": [
            "0xf6391f5c32d9c69d2a47ea670b442974b53935d1edc7fd64eb21e047a839171b",
            "0x0000000000000000000000000000000000000000000000000000000000000000",
            "0x00000000000000000000000093af6d19a1738e52295014ac0103b005048df388",
            "0x000000000000000000000000ca06bc58b110911e2e9e47c6e839582395ce13e4"
          ],
          "data": "0x",
          "blockHash": "0x77dc12269b743f4ca905ba1254340425284d90bc0ebf91d3474682e88f60b964",
          "blockNumber": "0x1b253f50",
          "blockTimestamp": "0x69e9c2f4",
          "transactionHash": "0x6279a2dad5423fd12a036ca7506c370f07a4b716eee16d0f3382492a4131a8ca",
          "transactionIndex": "0x1",
          "logIndex": "0x0",
          "removed": false
        }
      ],
      "logsBloom": "0x00000000000000000000000000000000000000000000000000000000000000000000000000000000000000000000000000200000000000000000010000000000000000000000000000000000000008000000000000020000000000000000000040000000020008000000000000000800000000000000000000000000000000000000000040000000000000000000000000000000008000000000000000000000000000000000000000000000000000000000000000000000000000000040000000000040008000000000000000000000000000000000000000000000000020000000100000000000000000000000000000000000000000000000000000000000",
      "type": "0x2",
      "transactionHash": "0x6279a2dad5423fd12a036ca7506c370f07a4b716eee16d0f3382492a4131a8ca",
      "transactionIndex": "0x1",
      "blockHash": "0x77dc12269b743f4ca905ba1254340425284d90bc0ebf91d3474682e88f60b964",
      "blockNumber": "0x1b253f50",
      "gasUsed": "0x9233",
      "effectiveGasPrice": "0x1324e10",
      "from": "0x93af6d19a1738e52295014ac0103b005048df388",
      "to": "0xca06bc58b110911e2e9e47c6e839582395ce13e4",
      "contractAddress": null,
      "gasUsedForL1": "0x6b1",
      "l1BlockNumber": "0x17c91c3",
      "timeboosted": false
    },
    {
      "status": "0x1",
      "cumulativeGasUsed": "0x1561b",
      "logs": [
        {
          "address": "0xe57343fb025ff289b4e0e9d42c448c998e797661",
          "topics": [
            "0x38d16b8cac22d99fc7c124b9cd0de2d3fa1faef420bfe791d8c362d765e22700",
            "0x00000000000000000000000093af6d19a1738e52295014ac0103b005048df388",
            "0x000000000000000000000000ca06bc58b110911e2e9e47c6e839582395ce13e4"
          ],
          "data": "0x",
          "blockHash": "0x9fdfbc2f218a4bfd83dcf68380772ece754815deda51e0c7a89008b82172758d",
          "blockNumber": "0x1b253f63",
          "blockTimestamp": "0x69e9c2f9",
          "transactionHash": "0xde3c628c2faba2f374ab6f28523742d9998c536cefffc564793eb1b7f88f9132",
          "transactionIndex": "0x2",
          "logIndex": "0x0",
          "removed": false
        }
      ],
      "logsBloom": "0x00000000000000000000000000000000000000000000000000000000000000000000000000000000000000000000000000000000000000000000010000000000004000000000000001000000000000000000000000000000000000000000000000000000000008000000000000000000000800000000000000000000000000000000000000000000000000000000000000000000008000000000000000000000000000000000020000000000000000000000000000000000000000000000000000002040008000000000000000000000000000000000000000000000000000000000100000000000000000000000000008000000000000000000000000000000",
      "type": "0x2",
      "transactionHash": "0xde3c628c2faba2f374ab6f28523742d9998c536cefffc564793eb1b7f88f9132",
      "transactionIndex": "0x2",
      "blockHash": "0x9fdfbc2f218a4bfd83dcf68380772ece754815deda51e0c7a89008b82172758d",
      "blockNumber": "0x1b253f63",
      "gasUsed": "0xd244",
      "effectiveGasPrice": "0x1315be0",
      "from": "0x93af6d19a1738e52295014ac0103b005048df388",
      "to": "0xe57343fb025ff289b4e0e9d42c448c998e797661",
      "contractAddress": null,
      "gasUsedForL1": "0x399",
      "l1BlockNumber": "0x17c91c3",
      "timeboosted": false
    }
  ],
  "libraries": [
    "../evm/src/libraries/LCCFactoryLib.sol:LCCFactoryLinkedLib:0x875B922e2843373772C8a6d88cb7581bbD91C879",
    "../evm/src/libraries/LiquidityHubLinkedLib.sol:LiquidityHubLinkedLib:0xaCc580983f745C1c9edDbE3b5F3d221F13D653F9",
    "../evm/src/libraries/VTSCommitLib.sol:VTSCommitLib:0xBab5960fB71f8096dE37497Dd8D41A6a20C9c9a7",
    "../evm/src/libraries/VTSLifecycleLinkedLib.sol:VTSLifecycleLinkedLib:0x61b4D910E7086a30b14fd8A4986b15b844ac27B9",
    "../evm/src/libraries/VTSPositionLib.sol:VTSPositionLib:0x823bDa51f62B814386408eB4ecC01F4256B1d516",
    "../evm/src/libraries/VTSPositionMMOpsLib.sol:VTSPositionMMOpsLib:0x76b2ea645Cf439D91391dDb7ca20a2E06C53Ca0d",
    "../evm/src/libraries/VTSSwapLib.sol:VTSSwapLib:0x5eE398A9363aD238Cb1c2b38bA8650a05750Db14"
  ],
  "pending": [],
  "returns": {},
  "timestamp": 1776927493585,
  "chain": 42161,
  "commit": "645448ed"
}