{
  "transactions": [
    {
      "hash": "0xbf2e2c0619fa64f3830df1bbc7e099ad34d6460278959f2cb9869f4525a18889",
      "transactionType": "CALL",
      "contractName": null,
      "contractAddress": "0x3672fcc62a46918bc21b0b8c602c2698b7fa6c2d",
      "function": "grantRole(bytes32,address)",
      "arguments": [
        "0x0000000000000000000000000000000000000000000000000000000000000000",
        "0xA8853C9f8BD2D34D798B38497893C748b82215A0"
      ],
      "transaction": {
        "from": "0x93af6d19a1738e52295014ac0103b005048df388",
        "to": "0x3672fcc62a46918bc21b0b8c602c2698b7fa6c2d",
        "gas": "0x112c3",
        "value": "0x0",
        "input": "0x2f2ff15d0000000000000000000000000000000000000000000000000000000000000000000000000000000000000000a8853c9f8bd2d34d798b38497893c748b82215a0",
        "nonce": "0x111",
        "chainId": "0xa4b1"
      },
      "additionalContracts": [],
      "isFixedGasLimit": false
    },
    {
      "hash": "0xa3eec6ad171c5ed8e2e399d987ed84cf7795229ae992dc32be6801b0d9d364ce",
      "transactionType": "CALL",
      "contractName": null,
      "contractAddress": "0xa8853c9f8bd2d34d798b38497893c748b82215a0",
      "function": "proxyCall(address,bytes)",
      "arguments": [
        "0x3672fcc62A46918bc21b0B8c602c2698B7Fa6C2D",
        "0xd547741f000000000000000000000000000000000000000000000000000000000000000000000000000000000000000093af6d19a1738e52295014ac0103b005048df388"
      ],
      "transaction": {
        "from": "0x93af6d19a1738e52295014ac0103b005048df388",
        "to": "0xa8853c9f8bd2d34d798b38497893c748b82215a0",
        "gas": "0xcc07",
        "value": "0x0",
        "input": "0x2a31f6b40000000000000000000000003672fcc62a46918bc21b0b8c602c2698b7fa6c2d00000000000000000000000000000000000000000000000000000000000000400000000000000000000000000000000000000000000000000000000000000044d547741f000000000000000000000000000000000000000000000000000000000000000000000000000000000000000093af6d19a1738e52295014ac0103b005048df38800000000000000000000000000000000000000000000000000000000",
        "nonce": "0x112",
        "chainId": "0xa4b1"
      },
      "additionalContracts": [],
      "isFixedGasLimit": false
    },
    {
      "hash": "0xc2b16460860a57fc3b728403125f0fa16ee9389e08c07ad875a74c29df865976",
      "transactionType": "CALL",
      "contractName": null,
      "contractAddress": "0x6f0741db7072034fe71cb60ed690fbf5fa70bf43",
      "function": "transferOwnership(address)",
      "arguments": [
        "0xA8853C9f8BD2D34D798B38497893C748b82215A0"
      ],
      "transaction": {
        "from": "0x93af6d19a1738e52295014ac0103b005048df388",
        "to": "0x6f0741db7072034fe71cb60ed690fbf5fa70bf43",
        "gas": "0x11a2d",
        "value": "0x0",
        "input": "0xf2fde38b000000000000000000000000a8853c9f8bd2d34d798b38497893c748b82215a0",
        "nonce": "0x113",
        "chainId": "0xa4b1"
      },
      "additionalContracts": [],
      "isFixedGasLimit": false
    },
    {
      "hash": "0x1849c7088423a6f73f44747f5eeb59f54211a25b9dc6bfe5fb22455692657d6d",
      "transactionType": "CALL",
      "contractName": null,
      "contractAddress": "0xa8853c9f8bd2d34d798b38497893c748b82215a0",
      "function": "proxyCall(address,bytes)",
      "arguments": [
        "0x6f0741DB7072034fe71Cb60eD690FbF5fA70Bf43",
        "0x79ba5097"
      ],
      "transaction": {
        "from": "0x93af6d19a1738e52295014ac0103b005048df388",
        "to": "0xa8853c9f8bd2d34d798b38497893c748b82215a0",
        "gas": "0xe42a",
        "value": "0x0",
        "input": "0x2a31f6b40000000000000000000000006f0741db7072034fe71cb60ed690fbf5fa70bf430000000000000000000000000000000000000000000000000000000000000040000000000000000000000000000000000000000000000000000000000000000479ba509700000000000000000000000000000000000000000000000000000000",
        "nonce": "0x114",
        "chainId": "0xa4b1"
      },
      "additionalContracts": [],
      "isFixedGasLimit": false
    },
    {
      "hash": "0x0c8392df90a91026e3289e285e3a2d244d5c6f3bc88713cbd491aa9f0ac16824",
      "transactionType": "CALL",
      "contractName": null,
      "contractAddress": "0x4a181f78f0f4901244d29df57c6ea99cacc05d55",
      "function": "transferOwnership(address)",
      "arguments": [
        "0xA8853C9f8BD2D34D798B38497893C748b82215A0"
      ],
      "transaction": {
        "from": "0x93af6d19a1738e52295014ac0103b005048df388",
        "to": "0x4a181f78f0f4901244d29df57c6ea99cacc05d55",
        "gas": "0x11a51",
        "value": "0x0",
        "input": "0xf2fde38b000000000000000000000000a8853c9f8bd2d34d798b38497893c748b82215a0",
        "nonce": "0x115",
        "chainId": "0xa4b1"
      },
      "additionalContracts": [],
      "isFixedGasLimit": false
    },
    {
      "hash": "0x5b5470812bf0aa5685da2a8565d888e34562c4a4bb627be2b14788646829ef4d",
      "transactionType": "CALL",
      "contractName": null,
      "contractAddress": "0xa8853c9f8bd2d34d798b38497893c748b82215a0",
      "function": "proxyCall(address,bytes)",
      "arguments": [
        "0x4a181f78F0f4901244D29DF57C6ea99caCc05d55",
        "0x79ba5097"
      ],
      "transaction": {
        "from": "0x93af6d19a1738e52295014ac0103b005048df388",
        "to": "0xa8853c9f8bd2d34d798b38497893c748b82215a0",
        "gas": "0xd73f",
        "value": "0x0",
        "input": "0x2a31f6b40000000000000000000000004a181f78f0f4901244d29df57c6ea99cacc05d550000000000000000000000000000000000000000000000000000000000000040000000000000000000000000000000000000000000000000000000000000000479ba509700000000000000000000000000000000000000000000000000000000",
        "nonce": "0x116",
        "chainId": "0xa4b1"
      },
      "additionalContracts": [],
      "isFixedGasLimit": false
    },
    {
      "hash": "0x0dcc0454ad978fc48af992db180e234e22acb212daa39540b482360cfede6cf0",
      "transactionType": "CALL",
      "contractName": null,
      "contractAddress": "0x112d498aa6de897c0c9c89061a83ffe7979d3ce6",
      "function": "transferOwnership(address)",
      "arguments": [
        "0xA8853C9f8BD2D34D798B38497893C748b82215A0"
      ],
      "transaction": {
        "from": "0x93af6d19a1738e52295014ac0103b005048df388",
        "to": "0x112d498aa6de897c0c9c89061a83ffe7979d3ce6",
        "gas": "0x11a51",
        "value": "0x0",
        "input": "0xf2fde38b000000000000000000000000a8853c9f8bd2d34d798b38497893c748b82215a0",
        "nonce": "0x117",
        "chainId": "0xa4b1"
      },
      "additionalContracts": [],
      "isFixedGasLimit": false
    },
    {
      "hash": "0x352edad07e30c9320cd53ad8989d6c5da02e42b680cc5086ddca435dcd893745",
      "transactionType": "CALL",
      "contractName": null,
      "contractAddress": "0xa8853c9f8bd2d34d798b38497893c748b82215a0",
      "function": "proxyCall(address,bytes)",
      "arguments": [
        "0x112d498aa6dE897C0c9c89061A83FFE7979D3Ce6",
        "0x79ba5097"
      ],
      "transaction": {
        "from": "0x93af6d19a1738e52295014ac0103b005048df388",
        "to": "0xa8853c9f8bd2d34d798b38497893c748b82215a0",
        "gas": "0xd721",
        "value": "0x0",
        "input": "0x2a31f6b4000000000000000000000000112d498aa6de897c0c9c89061a83ffe7979d3ce60000000000000000000000000000000000000000000000000000000000000040000000000000000000000000000000000000000000000000000000000000000479ba509700000000000000000000000000000000000000000000000000000000",
        "nonce": "0x118",
        "chainId": "0xa4b1"
      },
      "additionalContracts": [],
      "isFixedGasLimit": false
    },
    {
      "hash": "0x7277616c1064ea0bfef9348797b42bff4a0535bed90c19066a31ed39a584a220",
      "transactionType": "CALL",
      "contractName": null,
      "contractAddress": "0x4135b559a1e2cf4c309d80946bc7969a3950e53d",
      "function": "transferOwnership(address)",
      "arguments": [
        "0xA8853C9f8BD2D34D798B38497893C748b82215A0"
      ],
      "transaction": {
        "from": "0x93af6d19a1738e52295014ac0103b005048df388",
        "to": "0x4135b559a1e2cf4c309d80946bc7969a3950e53d",
        "gas": "0x9c55",
        "value": "0x0",
        "input": "0xf2fde38b000000000000000000000000a8853c9f8bd2d34d798b38497893c748b82215a0",
        "nonce": "0x119",
        "chainId": "0xa4b1"
      },
      "additionalContracts": [],
      "isFixedGasLimit": false
    }
  ],
  "receipts": [
    {
      "status": "0x1",
      "cumulativeGasUsed": "0x74e70",
      "logs": [
        {
          "address": "0x3672fcc62a46918bc21b0b8c602c2698b7fa6c2d",
          "topics": [
            "0x2f8788117e7eff1d82e926ec794901d17c78024a50270940304540a733656f0d",
            "0x0000000000000000000000000000000000000000000000000000000000000000",
            "0x000000000000000000000000a8853c9f8bd2d34d798b38497893c748b82215a0",
            "0x00000000000000000000000093af6d19a1738e52295014ac0103b005048df388"
          ],
          "data": "0x",
          "blockHash": "0x908f1f9b1381d43b6281974d9f7e3290a8133c98e48e42d9003d036d2506ab75",
          "blockNumber": "0x1b259a44",
          "blockTimestamp": "0x69e9d9ac",
          "transactionHash": "0xbf2e2c0619fa64f3830df1bbc7e099ad34d6460278959f2cb9869f4525a18889",
          "transactionIndex": "0x4",
          "logIndex": "0x9",
          "removed": false
        }
      ],
      "logsBloom": "0x00000004000000010000000000000000000000000000000000000000000000000000000000000000000000000000000000000000000000000000010000000000000000000000000000000000000000002000000000000000000000000000000000000000020000000000000000000800000000000000000000000000000000000000000000000000000000000010000000000000008000000000000000000000000000000000000000000000020000000000000000000000001000000000000000000000008000000000000000000000000000000000000100000010000020000000000000000000000000000000000000000000000000000200000000000000",
      "type": "0x2",
      "transactionHash": "0xbf2e2c0619fa64f3830df1bbc7e099ad34d6460278959f2cb9869f4525a18889",
      "transactionIndex": "0x4",
      "blockHash": "0x908f1f9b1381d43b6281974d9f7e3290a8133c98e48e42d9003d036d2506ab75",
      "blockNumber": "0x1b259a44",
      "gasUsed": "0xce85",
      "effectiveGasPrice": "0x132abd0",
      "from": "0x93af6d19a1738e52295014ac0103b005048df388",
      "to": "0x3672fcc62a46918bc21b0b8c602c2698b7fa6c2d",
      "contractAddress": null,
      "gasUsedForL1": "0x6ed",
      "l1BlockNumber": "0x17c93a9",
      "timeboosted": false
    },
    {
      "status": "0x1",
      "cumulativeGasUsed": "0x62c50",
      "logs": [
        {
          "address": "0x3672fcc62a46918bc21b0b8c602c2698b7fa6c2d",
          "topics": [
            "0xf6391f5c32d9c69d2a47ea670b442974b53935d1edc7fd64eb21e047a839171b",
            "0x0000000000000000000000000000000000000000000000000000000000000000",
            "0x00000000000000000000000093af6d19a1738e52295014ac0103b005048df388",
            "0x000000000000000000000000a8853c9f8bd2d34d798b38497893c748b82215a0"
          ],
          "data": "0x",
          "blockHash": "0xa546d34237eb2e6c8f8b2860b6b91f96045a46fc0793635f02b1e9cc5c310391",
          "blockNumber": "0x1b259a4a",
          "blockTimestamp": "0x69e9d9ad",
          "transactionHash": "0xa3eec6ad171c5ed8e2e399d987ed84cf7795229ae992dc32be6801b0d9d364ce",
          "transactionIndex": "0x5",
          "logIndex": "0x8",
          "removed": false
        }
      ],
      "logsBloom": "0x00000000000000010000000000000000000000000000000000000000000000000000000000000000000000000000000000200000000000000000010000000000000000000000000000000000000000002000000000000000000000000000000040000000020000000000000000000800000000000000000000000000000000000000000040000000000000000010000000000000008000000000000000000000000000000000000000000000020000000000000000000000000000000000000000000000008000000000000000000000000000000000000000000010000020000000000000000000000000000000000000000000000000000200000000000000",
      "type": "0x2",
      "transactionHash": "0xa3eec6ad171c5ed8e2e399d987ed84cf7795229ae992dc32be6801b0d9d364ce",
      "transactionIndex": "0x5",
      "blockHash": "0xa546d34237eb2e6c8f8b2860b6b91f96045a46fc0793635f02b1e9cc5c310391",
      "blockNumber": "0x1b259a4a",
      "gasUsed": "0x9644",
      "effectiveGasPrice": "0x13163b0",
      "from": "0x93af6d19a1738e52295014ac0103b005048df388",
      "to": "0xa8853c9f8bd2d34d798b38497893c748b82215a0",
      "contractAddress": null,
      "gasUsedForL1": "0xac2",
      "l1BlockNumber": "0x17c93a9",
      "timeboosted": false
    },
    {
      "status": "0x1",
      "cumulativeGasUsed": "0x24ba7",
      "logs": [
        {
          "address": "0x6f0741db7072034fe71cb60ed690fbf5fa70bf43",
          "topics": [
            "0x38d16b8cac22d99fc7c124b9cd0de2d3fa1faef420bfe791d8c362d765e22700",
            "0x00000000000000000000000093af6d19a1738e52295014ac0103b005048df388",
            "0x000000000000000000000000a8853c9f8bd2d34d798b38497893c748b82215a0"
          ],
          "data": "0x",
          "blockHash": "0xd430bda5e39cf7ebda5a2758844cf76bc43a3a7f1bca789f20c9583ff8dbc840",
          "blockNumber": "0x1b259a50",
          "blockTimestamp": "0x69e9d9af",
          "transactionHash": "0xc2b16460860a57fc3b728403125f0fa16ee9389e08c07ad875a74c29df865976",
          "transactionIndex": "0x3",
          "logIndex": "0x0",
          "removed": false
        }
      ],
      "logsBloom": "0x00000000000000000000000000040000000000000000000000000000000000000000000000000000000000000000000000000000000000000000010000000000000000000000000000000000000000002000000000000000000000000000000000000000000000000000000000000000000800000000000000000000000000000000000000000000000000000000000000000000008000000000000008000000000000000000020000000000020000000000000000000000000000000000080000002000008000000000000000000000000000000000000000000000000000000000000000000000000000000000000000000000000000000200000000000000",
      "type": "0x2",
      "transactionHash": "0xc2b16460860a57fc3b728403125f0fa16ee9389e08c07ad875a74c29df865976",
      "transactionIndex": "0x3",
      "blockHash": "0xd430bda5e39cf7ebda5a2758844cf76bc43a3a7f1bca789f20c9583ff8dbc840",
      "blockNumber": "0x1b259a50",
      "gasUsed": "0xd45b",
      "effectiveGasPrice": "0x1321f30",
      "from": "0x93af6d19a1738e52295014ac0103b005048df388",
      "to": "0x6f0741db7072034fe71cb60ed690fbf5fa70bf43",
      "contractAddress": null,
      "gasUsedForL1": "0x5b0",
      "l1BlockNumber": "0x17c93a9",
      "timeboosted": false
    },
    {
      "status": "0x1",
      "cumulativeGasUsed": "0xa559",
      "logs": [
        {
          "address": "0x6f0741db7072034fe71cb60ed690fbf5fa70bf43",
          "topics": [
            "0x8be0079c531659141344cd1fd0a4f28419497f9722a3daafe3b4186f6b6457e0",
            "0x00000000000000000000000093af6d19a1738e52295014ac0103b005048df388",
            "0x000000000000000000000000a8853c9f8bd2d34d798b38497893c748b82215a0"
          ],
          "data": "0x",
          "blockHash": "0x8e124885d0a2c8f14b5497af88b54f7820f844b30ecf88598c91dfbe7c0d2dd7",
          "blockNumber": "0x1b259a56",
          "blockTimestamp": "0x69e9d9b0",
          "transactionHash": "0x1849c7088423a6f73f44747f5eeb59f54211a25b9dc6bfe5fb22455692657d6d",
          "transactionIndex": "0x1",
          "logIndex": "0x0",
          "removed": false
        }
      ],
      "logsBloom": "0x00000000000000000000000000040000000000000000000000800000000000000000000000000000000000000000000000000000000000000000010000000000000000000000000000000000000000002001000000000000000000000000000000000000000000000000000000000000000000000000000000000000000000400000000000000000000000000000000000000000008000000000000008000000000000000000000000000000020000000000000000000000000000000000080000000000008000000000000000000000000000000000000000000000000000000000000000000000000000000000000000000000000000000200000000000000",
      "type": "0x2",
      "transactionHash": "0x1849c7088423a6f73f44747f5eeb59f54211a25b9dc6bfe5fb22455692657d6d",
      "transactionIndex": "0x1",
      "blockHash": "0x8e124885d0a2c8f14b5497af88b54f7820f844b30ecf88598c91dfbe7c0d2dd7",
      "blockNumber": "0x1b259a56",
      "gasUsed": "0xa559",
      "effectiveGasPrice": "0x131e0b0",
      "from": "0x93af6d19a1738e52295014ac0103b005048df388",
      "to": "0xa8853c9f8bd2d34d798b38497893c748b82215a0",
      "contractAddress": null,
      "gasUsedForL1": "0x956",
      "l1BlockNumber": "0x17c93a9",
      "timeboosted": false
    },
    {
      "status": "0x1",
      "cumulativeGasUsed": "0xd473",
      "logs": [
        {
          "address": "0x4a181f78f0f4901244d29df57c6ea99cacc05d55",
          "topics": [
            "0x38d16b8cac22d99fc7c124b9cd0de2d3fa1faef420bfe791d8c362d765e22700",
            "0x00000000000000000000000093af6d19a1738e52295014ac0103b005048df388",
            "0x000000000000000000000000a8853c9f8bd2d34d798b38497893c748b82215a0"
          ],
          "data": "0x",
          "blockHash": "0xe58cc2dfff851fc590b86dca9d9a3c5e7a51509ce81338a3ed34c76fe3b1b566",
          "blockNumber": "0x1b259a5c",
          "blockTimestamp": "0x69e9d9b2",
          "transactionHash": "0x0c8392df90a91026e3289e285e3a2d244d5c6f3bc88713cbd491aa9f0ac16824",
          "transactionIndex": "0x1",
          "logIndex": "0x0",
          "removed": false
        }
      ],
      "logsBloom": "0x00000000000000000000000000000000000000000000000000000000000000000000000000000000000000000000000000000000000000000000010000000080000000000000000000000000000000012000000000000000000000000000000000000000000000000000000000000000000800000000000000000000000000000000000000000000000000000000000000000000008000000000000000000000000000000000020000000000020000000000000000000000000000000000000000002000008000000000000000000000000000000000000001000000000000000000000000000000000000000000000000000000000000000200000000000000",
      "type": "0x2",
      "transactionHash": "0x0c8392df90a91026e3289e285e3a2d244d5c6f3bc88713cbd491aa9f0ac16824",
      "transactionIndex": "0x1",
      "blockHash": "0xe58cc2dfff851fc590b86dca9d9a3c5e7a51509ce81338a3ed34c76fe3b1b566",
      "blockNumber": "0x1b259a5c",
      "gasUsed": "0xd473",
      "effectiveGasPrice": "0x132ea50",
      "from": "0x93af6d19a1738e52295014ac0103b005048df388",
      "to": "0x4a181f78f0f4901244d29df57c6ea99cacc05d55",
      "contractAddress": null,
      "gasUsedForL1": "0x5ac",
      "l1BlockNumber": "0x17c93a9",
      "timeboosted": false
    },
    {
      "status": "0x1",
      "cumulativeGasUsed": "0x21c58",
      "logs": [
        {
          "address": "0x4a181f78f0f4901244d29df57c6ea99cacc05d55",
          "topics": [
            "0x8be0079c531659141344cd1fd0a4f28419497f9722a3daafe3b4186f6b6457e0",
            "0x00000000000000000000000093af6d19a1738e52295014ac0103b005048df388",
            "0x000000000000000000000000a8853c9f8bd2d34d798b38497893c748b82215a0"
          ],
          "data": "0x",
          "blockHash": "0xaeede2cd1674487de26c15dbd4cd5c8d5fd5cd9c4b64cc0959ebe996255c0a80",
          "blockNumber": "0x1b259a62",
          "blockTimestamp": "0x69e9d9b3",
          "transactionHash": "0x5b5470812bf0aa5685da2a8565d888e34562c4a4bb627be2b14788646829ef4d",
          "transactionIndex": "0x3",
          "logIndex": "0x0",
          "removed": false
        }
      ],
      "logsBloom": "0x00000000000000000000000000000000000000000000000000800000000000000000000000000000000000000000000000000000000000000000010000000080000000000000000000000000000000012001000000000000000000000000000000000000000000000000000000000000000000000000000000000000000000400000000000000000000000000000000000000000008000000000000000000000000000000000000000000000020000000000000000000000000000000000000000000000008000000000000000000000000000000000000001000000000000000000000000000000000000000000000000000000000000000200000000000000",
      "type": "0x2",
      "transactionHash": "0x5b5470812bf0aa5685da2a8565d888e34562c4a4bb627be2b14788646829ef4d",
      "transactionIndex": "0x3",
      "blockHash": "0xaeede2cd1674487de26c15dbd4cd5c8d5fd5cd9c4b64cc0959ebe996255c0a80",
      "blockNumber": "0x1b259a62",
      "gasUsed": "0xa531",
      "effectiveGasPrice": "0x1313ca0",
      "from": "0x93af6d19a1738e52295014ac0103b005048df388",
      "to": "0xa8853c9f8bd2d34d798b38497893c748b82215a0",
      "contractAddress": null,
      "gasUsedForL1": "0x95b",
      "l1BlockNumber": "0x17c93a9",
      "timeboosted": false
    },
    {
      "status": "0x1",
      "cumulativeGasUsed": "0x24bb2",
      "logs": [
        {
          "address": "0x112d498aa6de897c0c9c89061a83ffe7979d3ce6",
          "topics": [
            "0x38d16b8cac22d99fc7c124b9cd0de2d3fa1faef420bfe791d8c362d765e22700",
            "0x00000000000000000000000093af6d19a1738e52295014ac0103b005048df388",
            "0x000000000000000000000000a8853c9f8bd2d34d798b38497893c748b82215a0"
          ],
          "data": "0x",
          "blockHash": "0xfdca97b5f172891c694f3dfe70e410646be62424636e9b3ac3eacf2c611a6b79",
          "blockNumber": "0x1b259a68",
          "blockTimestamp": "0x69e9d9b5",
          "transactionHash": "0x0dcc0454ad978fc48af992db180e234e22acb212daa39540b482360cfede6cf0",
          "transactionIndex": "0x3",
          "logIndex": "0x0",
          "removed": false
        }
      ],
      "logsBloom": "0x00000000000000000000000000000000000000000000000000000000000000000000000000000000000000000000000000000000000000000000010000000000000000000000000000000000000000802000000000000000000000000000000000000000000000000000000000000000000800000000000000000000000000000000000000000000000000000000000000000000008020000000000000000000000000800000020000000000020000000000000000000000000000000000000000002000008000000000000000000000000000000000000000000000000000000000000000000000000000000000000000000000000000000200000000000000",
      "type": "0x2",
      "transactionHash": "0x0dcc0454ad978fc48af992db180e234e22acb212daa39540b482360cfede6cf0",
      "transactionIndex": "0x3",
      "blockHash": "0xfdca97b5f172891c694f3dfe70e410646be62424636e9b3ac3eacf2c611a6b79",
      "blockNumber": "0x1b259a68",
      "gasUsed": "0xd479",
      "effectiveGasPrice": "0x131b1d0",
      "from": "0x93af6d19a1738e52295014ac0103b005048df388",
      "to": "0x112d498aa6de897c0c9c89061a83ffe7979d3ce6",
      "contractAddress": null,
      "gasUsedForL1": "0x5b2",
      "l1BlockNumber": "0x17c93a9",
      "timeboosted": false
    },
    {
      "status": "0x1",
      "cumulativeGasUsed": "0x2bc62",
      "logs": [
        {
          "address": "0x112d498aa6de897c0c9c89061a83ffe7979d3ce6",
          "topics": [
            "0x8be0079c531659141344cd1fd0a4f28419497f9722a3daafe3b4186f6b6457e0",
            "0x00000000000000000000000093af6d19a1738e52295014ac0103b005048df388",
            "0x000000000000000000000000a8853c9f8bd2d34d798b38497893c748b82215a0"
          ],
          "data": "0x",
          "blockHash": "0xda0c7672be6dfc68d7f6aab60963f91f7880b1997d0bc1c5f70f72cd34409a73",
          "blockNumber": "0x1b259a6e",
          "blockTimestamp": "0x69e9d9b6",
          "transactionHash": "0x352edad07e30c9320cd53ad8989d6c5da02e42b680cc5086ddca435dcd893745",
          "transactionIndex": "0x4",
          "logIndex": "0x1",
          "removed": false
        }
      ],
      "logsBloom": "0x00000000000000000000000000000000000000000000000000800000000000000000000000000000000000000000000000000000000000000000010000000000000000000000000000000000000000802001000000000000000000000000000000000000000000000000000000000000000000000000000000000000000000400000000000000000000000000000000000000000008020000000000000000000000000800000000000000000020000000000000000000000000000000000000000000000008000000000000000000000000000000000000000000000000000000000000000000000000000000000000000000000000000000200000000000000",
      "type": "0x2",
      "transactionHash": "0x352edad07e30c9320cd53ad8989d6c5da02e42b680cc5086ddca435dcd893745",
      "transactionIndex": "0x4",
      "blockHash": "0xda0c7672be6dfc68d7f6aab60963f91f7880b1997d0bc1c5f70f72cd34409a73",
      "blockNumber": "0x1b259a6e",
      "gasUsed": "0xa517",
      "effectiveGasPrice": "0x131b1d0",
      "from": "0x93af6d19a1738e52295014ac0103b005048df388",
      "to": "0xa8853c9f8bd2d34d798b38497893c748b82215a0",
      "contractAddress": null,
      "gasUsedForL1": "0x957",
      "l1BlockNumber": "0x17c93a9",
      "timeboosted": false
    },
    {
      "status": "0x1",
      "cumulativeGasUsed": "0x1f0b1",
      "logs": [
        {
          "address": "0x4135b559a1e2cf4c309d80946bc7969a3950e53d",
          "topics": [
            "0x8be0079c531659141344cd1fd0a4f28419497f9722a3daafe3b4186f6b6457e0",
            "0x00000000000000000000000093af6d19a1738e52295014ac0103b005048df388",
            "0x000000000000000000000000a8853c9f8bd2d34d798b38497893c748b82215a0"
          ],
          "data": "0x",
          "blockHash": "0x892dbaa9990c129384ed807180998833d7bb2090189d1a1ec5395f5df4430e07",
          "blockNumber": "0x1b259a74",
          "blockTimestamp": "0x69e9d9b8",
          "transactionHash": "0x7277616c1064ea0bfef9348797b42bff4a0535bed90c19066a31ed39a584a220",
          "transactionIndex": "0x3",
          "logIndex": "0x2",
          "removed": false
        }
      ],
      "logsBloom": "0x00000000000000000000000000000000000000000000000000800000000000000000000000000000000000000000000000000000000000000000010000000000000000000000000000000000000000002001000000000000000000000000000000000000000000000000000000000000000001000000000000000000000000400000000000000000000000000000000000000000008000000000000000000000000000000000000000000000020000000000000000000000000000100000000000000000028000000000000000000000000000000000000000000000000000000000000000000000000000000000000000000000000000000200000000000000",
      "type": "0x2",
      "transactionHash": "0x7277616c1064ea0bfef9348797b42bff4a0535bed90c19066a31ed39a584a220",
      "transactionIndex": "0x3",
      "blockHash": "0x892dbaa9990c129384ed807180998833d7bb2090189d1a1ec5395f5df4430e07",
      "blockNumber": "0x1b259a74",
      "gasUsed": "0x7544",
      "effectiveGasPrice": "0x1325db0",
      "from": "0x93af6d19a1738e52295014ac0103b005048df388",
      "to": "0x4135b559a1e2cf4c309d80946bc7969a3950e53d",
      "contractAddress": null,
      "gasUsedForL1": "0x5a5",
      "l1BlockNumber": "0x17c93a9",
      "timeboosted": false
    }
  ],
  "libraries": [
    "../evm/src/libraries/LCCFactoryLib.sol:LCCFactoryLinkedLib:0x875B922e2843373772C8a6d88cb7581bbD91C879",
    "../evm/src/libraries/LiquidityHubLinkedLib.sol:LiquidityHubLinkedLib:0xaCc580983f745C1c9edDbE3b5F3d221F13D653F9",
    "../evm/src/libraries/VTSCommitLib.sol:VTSCommitLib:0xBab5960fB71f8096dE37497Dd8D41A6a20C9c9a7",
    "../evm/src/libraries/VTSLifecycleLinkedLib.sol:VTSLifecycleLinkedLib:0x61b4D910E7086a30b14fd8A4986b15b844ac27B9",
    "../evm/src/libraries/VTSPositionLib.sol:VTSPositionLib:0x823bDa51f62B814386408eB4ecC01F4256B1d516",
    "../evm/src/libraries/VTSPositionMMOpsLib.sol:VTSPositionMMOpsLib:0x76b2ea645Cf439D91391dDb7ca20a2E06C53Ca0d",
    "../evm/src/libraries/VTSSwapLib.sol:VTSSwapLib:0x5eE398A9363aD238Cb1c2b38bA8650a05750Db14"
  ],
  "pending": [],
  "returns": {},
  "timestamp": 1776933304537,
  "chain": 42161,
  "commit": "388d63ef"
}