{
  "transactions": [
    {
      "hash": "0x6baf221836c61e5fd2c580978908ebb0820be06390ebf5f70eeffe6d2af0cd04",
      "transactionType": "CALL",
      "contractName": null,
      "contractAddress": "0xe57343fb025ff289b4e0e9d42c448c998e797661",
      "function": "transferOwnership(address)",
      "arguments": [
        "0xCa06Bc58b110911e2e9E47C6e839582395ce13E4"
      ],
      "transaction": {
        "from": "0x93af6d19a1738e52295014ac0103b005048df388",
        "to": "0xe57343fb025ff289b4e0e9d42c448c998e797661",
        "gas": "0xb2ea",
        "value": "0x0",
        "input": "0xf2fde38b000000000000000000000000ca06bc58b110911e2e9e47c6e839582395ce13e4",
        "nonce": "0xef",
        "chainId": "0xa4b1"
      },
      "additionalContracts": [],
      "isFixedGasLimit": false
    },
    {
      "hash": "0x8db95fa93d540a470df471198d8427dd9c9ade93afdc86af17f63fc4793ec50f",
      "transactionType": "CALL",
      "contractName": null,
      "contractAddress": "0xca06bc58b110911e2e9e47c6e839582395ce13e4",
      "function": "proxyCall(address,bytes)",
      "arguments": [
        "0xE57343fb025FF289B4e0e9D42c448c998E797661",
        "0x79ba5097"
      ],
      "transaction": {
        "from": "0x93af6d19a1738e52295014ac0103b005048df388",
        "to": "0xca06bc58b110911e2e9e47c6e839582395ce13e4",
        "gas": "0xefd0",
        "value": "0x0",
        "input": "0x2a31f6b4000000000000000000000000e57343fb025ff289b4e0e9d42c448c998e7976610000000000000000000000000000000000000000000000000000000000000040000000000000000000000000000000000000000000000000000000000000000479ba509700000000000000000000000000000000000000000000000000000000",
        "nonce": "0xf0",
        "chainId": "0xa4b1"
      },
      "additionalContracts": [],
      "isFixedGasLimit": false
    },
    {
      "hash": "0x440bdf3446fcaec894fb35887423bf0a745d5bfd71e157d04814ccfc47a3a87b",
      "transactionType": "CALL",
      "contractName": null,
      "contractAddress": "0x51873985a5b53e63f33053829637a54b565b8e56",
      "function": "transferOwnership(address)",
      "arguments": [
        "0xCa06Bc58b110911e2e9E47C6e839582395ce13E4"
      ],
      "transaction": {
        "from": "0x93af6d19a1738e52295014ac0103b005048df388",
        "to": "0x51873985a5b53e63f33053829637a54b565b8e56",
        "gas": "0x11884",
        "value": "0x0",
        "input": "0xf2fde38b000000000000000000000000ca06bc58b110911e2e9e47c6e839582395ce13e4",
        "nonce": "0xf1",
        "chainId": "0xa4b1"
      },
      "additionalContracts": [],
      "isFixedGasLimit": false
    },
    {
      "hash": "0x67110b39dc1a0079c4911a85b136a2998afd4503503eafc91c8f2780c8387484",
      "transactionType": "CALL",
      "contractName": null,
      "contractAddress": "0xca06bc58b110911e2e9e47c6e839582395ce13e4",
      "function": "proxyCall(address,bytes)",
      "arguments": [
        "0x51873985A5b53E63F33053829637A54B565b8E56",
        "0x79ba5097"
      ],
      "transaction": {
        "from": "0x93af6d19a1738e52295014ac0103b005048df388",
        "to": "0xca06bc58b110911e2e9e47c6e839582395ce13e4",
        "gas": "0xd73f",
        "value": "0x0",
        "input": "0x2a31f6b400000000000000000000000051873985a5b53e63f33053829637a54b565b8e560000000000000000000000000000000000000000000000000000000000000040000000000000000000000000000000000000000000000000000000000000000479ba509700000000000000000000000000000000000000000000000000000000",
        "nonce": "0xf2",
        "chainId": "0xa4b1"
      },
      "additionalContracts": [],
      "isFixedGasLimit": false
    },
    {
      "hash": "0xa0f33ff71042804eac3f6eb71755ddff022dfa374abaff4e9072b793abe5cfb9",
      "transactionType": "CALL",
      "contractName": null,
      "contractAddress": "0x64e18ae5ede26359cf83b424ad9487c61ebc4911",
      "function": "transferOwnership(address)",
      "arguments": [
        "0xCa06Bc58b110911e2e9E47C6e839582395ce13E4"
      ],
      "transaction": {
        "from": "0x93af6d19a1738e52295014ac0103b005048df388",
        "to": "0x64e18ae5ede26359cf83b424ad9487c61ebc4911",
        "gas": "0x11884",
        "value": "0x0",
        "input": "0xf2fde38b000000000000000000000000ca06bc58b110911e2e9e47c6e839582395ce13e4",
        "nonce": "0xf3",
        "chainId": "0xa4b1"
      },
      "additionalContracts": [],
      "isFixedGasLimit": false
    },
    {
      "hash": "0x5832a0094928aee4a28d6c21efd076a30fa07704cc4eff85c54baa62ea986258",
      "transactionType": "CALL",
      "contractName": null,
      "contractAddress": "0xca06bc58b110911e2e9e47c6e839582395ce13e4",
      "function": "proxyCall(address,bytes)",
      "arguments": [
        "0x64e18AE5EDe26359cF83b424Ad9487C61Ebc4911",
        "0x79ba5097"
      ],
      "transaction": {
        "from": "0x93af6d19a1738e52295014ac0103b005048df388",
        "to": "0xca06bc58b110911e2e9e47c6e839582395ce13e4",
        "gas": "0xd721",
        "value": "0x0",
        "input": "0x2a31f6b400000000000000000000000064e18ae5ede26359cf83b424ad9487c61ebc49110000000000000000000000000000000000000000000000000000000000000040000000000000000000000000000000000000000000000000000000000000000479ba509700000000000000000000000000000000000000000000000000000000",
        "nonce": "0xf4",
        "chainId": "0xa4b1"
      },
      "additionalContracts": [],
      "isFixedGasLimit": false
    },
    {
      "hash": "0x7ceec11cc6be3a7106b963aeb42160070dd6a7eb78d0c91d5aec4696b04b1802",
      "transactionType": "CALL",
      "contractName": null,
      "contractAddress": "0xca06bc58b110911e2e9e47c6e839582395ce13e4",
      "function": "transferOwnership(address)",
      "arguments": [
        "0xCa06Bc58b110911e2e9E47C6e839582395ce13E4"
      ],
      "transaction": {
        "from": "0x93af6d19a1738e52295014ac0103b005048df388",
        "to": "0xca06bc58b110911e2e9e47c6e839582395ce13e4",
        "gas": "0xfb61",
        "value": "0x0",
        "input": "0xf2fde38b000000000000000000000000ca06bc58b110911e2e9e47c6e839582395ce13e4",
        "nonce": "0xf5",
        "chainId": "0xa4b1"
      },
      "additionalContracts": [],
      "isFixedGasLimit": false
    },
    {
      "hash": "0x1c6332603dc0c53b2dca724e18a6a2fc30a73a1f9392b7d3f7fbfe129cfd9165",
      "transactionType": "CALL",
      "contractName": null,
      "contractAddress": "0xca06bc58b110911e2e9e47c6e839582395ce13e4",
      "function": "proxyCall(address,bytes)",
      "arguments": [
        "0xCa06Bc58b110911e2e9E47C6e839582395ce13E4",
        "0x79ba5097"
      ],
      "transaction": {
        "from": "0x93af6d19a1738e52295014ac0103b005048df388",
        "to": "0xca06bc58b110911e2e9e47c6e839582395ce13e4",
        "gas": "0xa28e",
        "value": "0x0",
        "input": "0x2a31f6b4000000000000000000000000ca06bc58b110911e2e9e47c6e839582395ce13e40000000000000000000000000000000000000000000000000000000000000040000000000000000000000000000000000000000000000000000000000000000479ba509700000000000000000000000000000000000000000000000000000000",
        "nonce": "0xf6",
        "chainId": "0xa4b1"
      },
      "additionalContracts": [],
      "isFixedGasLimit": false
    }
  ],
  "receipts": [
    {
      "status": "0x1",
      "cumulativeGasUsed": "0x15e99",
      "logs": [
        {
          "address": "0xe57343fb025ff289b4e0e9d42c448c998e797661",
          "topics": [
            "0x38d16b8cac22d99fc7c124b9cd0de2d3fa1faef420bfe791d8c362d765e22700",
            "0x00000000000000000000000093af6d19a1738e52295014ac0103b005048df388",
            "0x000000000000000000000000ca06bc58b110911e2e9e47c6e839582395ce13e4"
          ],
          "data": "0x",
          "blockHash": "0xe7c6a2d5a8fcca3efbe9606eda26238523ac6d089461692fa17021224c8eca37",
          "blockNumber": "0x1b2543c1",
          "blockTimestamp": "0x69e9c410",
          "transactionHash": "0x6baf221836c61e5fd2c580978908ebb0820be06390ebf5f70eeffe6d2af0cd04",
          "transactionIndex": "0x2",
          "logIndex": "0x0",
          "removed": false
        }
      ],
      "logsBloom": "0x00000000000000000000000000000000000000000000000000000000000000000000000000000000000000000000000000000000000000000000010000000000004000000000000001000000000000000000000000000000000000000000000000000000000008000000000000000000000800000000000000000000000000000000000000000000000000000000000000000000008000000000000000000000000000000000020000000000000000000000000000000000000000000000000000002040008000000000000000000000000000000000000000000000000000000000100000000000000000000000000008000000000000000000000000000000",
      "type": "0x2",
      "transactionHash": "0x6baf221836c61e5fd2c580978908ebb0820be06390ebf5f70eeffe6d2af0cd04",
      "transactionIndex": "0x2",
      "blockHash": "0xe7c6a2d5a8fcca3efbe9606eda26238523ac6d089461692fa17021224c8eca37",
      "blockNumber": "0x1b2543c1",
      "gasUsed": "0x8582",
      "effectiveGasPrice": "0x131b1d0",
      "from": "0x93af6d19a1738e52295014ac0103b005048df388",
      "to": "0xe57343fb025ff289b4e0e9d42c448c998e797661",
      "contractAddress": null,
      "gasUsedForL1": "0x493",
      "l1BlockNumber": "0x17c91db",
      "timeboosted": false
    },
    {
      "status": "0x1",
      "cumulativeGasUsed": "0xa389",
      "logs": [
        {
          "address": "0xe57343fb025ff289b4e0e9d42c448c998e797661",
          "topics": [
            "0x8be0079c531659141344cd1fd0a4f28419497f9722a3daafe3b4186f6b6457e0",
            "0x00000000000000000000000093af6d19a1738e52295014ac0103b005048df388",
            "0x000000000000000000000000ca06bc58b110911e2e9e47c6e839582395ce13e4"
          ],
          "data": "0x",
          "blockHash": "0x6622508614df56644b2055c13ff22a1d6ed975ddb257ab852fcf78f7e1b0e816",
          "blockNumber": "0x1b2543c7",
          "blockTimestamp": "0x69e9c412",
          "transactionHash": "0x8db95fa93d540a470df471198d8427dd9c9ade93afdc86af17f63fc4793ec50f",
          "transactionIndex": "0x1",
          "logIndex": "0x0",
          "removed": false
        }
      ],
      "logsBloom": "0x00000000000000000000000000000000000000000000000000800000000000000000000000000000000000000000000000000000000000000000010000000000004000000000000001000000000000000001000000000000000000000000000000000000000008000000000000000000000000000000000000000000000000400000000000000000000000000000000000000000008000000000000000000000000000000000000000000000000000000000000000000000000000000000000000000040008000000000000000000000000000000000000000000000000000000000100000000000000000000000000008000000000000000000000000000000",
      "type": "0x2",
      "transactionHash": "0x8db95fa93d540a470df471198d8427dd9c9ade93afdc86af17f63fc4793ec50f",
      "transactionIndex": "0x1",
      "blockHash": "0x6622508614df56644b2055c13ff22a1d6ed975ddb257ab852fcf78f7e1b0e816",
      "blockNumber": "0x1b2543c7",
      "gasUsed": "0xa389",
      "effectiveGasPrice": "0x133d4b0",
      "from": "0x93af6d19a1738e52295014ac0103b005048df388",
      "to": "0xca06bc58b110911e2e9e47c6e839582395ce13e4",
      "contractAddress": null,
      "gasUsedForL1": "0x786",
      "l1BlockNumber": "0x17c91db",
      "timeboosted": false
    },
    {
      "status": "0x1",
      "cumulativeGasUsed": "0xd363",
      "logs": [
        {
          "address": "0x51873985a5b53e63f33053829637a54b565b8e56",
          "topics": [
            "0x38d16b8cac22d99fc7c124b9cd0de2d3fa1faef420bfe791d8c362d765e22700",
            "0x00000000000000000000000093af6d19a1738e52295014ac0103b005048df388",
            "0x000000000000000000000000ca06bc58b110911e2e9e47c6e839582395ce13e4"
          ],
          "data": "0x",
          "blockHash": "0x04a25b47c82dc32fbfcb3cc59224964dcdcdcfdc641e8831fdeb2bf64b64e106",
          "blockNumber": "0x1b2543cd",
          "blockTimestamp": "0x69e9c413",
          "transactionHash": "0x440bdf3446fcaec894fb35887423bf0a745d5bfd71e157d04814ccfc47a3a87b",
          "transactionIndex": "0x1",
          "logIndex": "0x0",
          "removed": false
        }
      ],
      "logsBloom": "0x00000000000000000000000000000000000000000000000000000000000000000000000000000000000000000000000000800000000000000000010000000000000000000000000000000000000000000000000000000000000000000000400000000000000008000000000000020000000800000000000000000000000000000000000000000000000000000000000000000000008000000000000000000000000000000000020000000000000000000000000000000000000000000000000000002040008000000000000000000000000000000000000000000000000000000000100000000000000000000000000000000000000000000000000000000000",
      "type": "0x2",
      "transactionHash": "0x440bdf3446fcaec894fb35887423bf0a745d5bfd71e157d04814ccfc47a3a87b",
      "transactionIndex": "0x1",
      "blockHash": "0x04a25b47c82dc32fbfcb3cc59224964dcdcdcfdc641e8831fdeb2bf64b64e106",
      "blockNumber": "0x1b2543cd",
      "gasUsed": "0xd363",
      "effectiveGasPrice": "0x1319290",
      "from": "0x93af6d19a1738e52295014ac0103b005048df388",
      "to": "0x51873985a5b53e63f33053829637a54b565b8e56",
      "contractAddress": null,
      "gasUsedForL1": "0x49c",
      "l1BlockNumber": "0x17c91db",
      "timeboosted": false
    },
    {
      "status": "0x1",
      "cumulativeGasUsed": "0xa369",
      "logs": [
        {
          "address": "0x51873985a5b53e63f33053829637a54b565b8e56",
          "topics": [
            "0x8be0079c531659141344cd1fd0a4f28419497f9722a3daafe3b4186f6b6457e0",
            "0x00000000000000000000000093af6d19a1738e52295014ac0103b005048df388",
            "0x000000000000000000000000ca06bc58b110911e2e9e47c6e839582395ce13e4"
          ],
          "data": "0x",
          "blockHash": "0xe30cf3259f60018122aa2c291e843fadf11c7363593cbdf743f23d46e5296aba",
          "blockNumber": "0x1b2543d3",
          "blockTimestamp": "0x69e9c415",
          "transactionHash": "0x67110b39dc1a0079c4911a85b136a2998afd4503503eafc91c8f2780c8387484",
          "transactionIndex": "0x1",
          "logIndex": "0x0",
          "removed": false
        }
      ],
      "logsBloom": "0x00000000000000000000000000000000000000000000000000800000000000000000000000000000000000000000000000800000000000000000010000000000000000000000000000000000000000000001000000000000000000000000400000000000000008000000000000020000000000000000000000000000000000400000000000000000000000000000000000000000008000000000000000000000000000000000000000000000000000000000000000000000000000000000000000000040008000000000000000000000000000000000000000000000000000000000100000000000000000000000000000000000000000000000000000000000",
      "type": "0x2",
      "transactionHash": "0x67110b39dc1a0079c4911a85b136a2998afd4503503eafc91c8f2780c8387484",
      "transactionIndex": "0x1",
      "blockHash": "0xe30cf3259f60018122aa2c291e843fadf11c7363593cbdf743f23d46e5296aba",
      "blockNumber": "0x1b2543d3",
      "gasUsed": "0xa369",
      "effectiveGasPrice": "0x131c940",
      "from": "0x93af6d19a1738e52295014ac0103b005048df388",
      "to": "0xca06bc58b110911e2e9e47c6e839582395ce13e4",
      "contractAddress": null,
      "gasUsedForL1": "0x793",
      "l1BlockNumber": "0x17c91db",
      "timeboosted": false
    },
    {
      "status": "0x1",
      "cumulativeGasUsed": "0x13b656",
      "logs": [
        {
          "address": "0x64e18ae5ede26359cf83b424ad9487c61ebc4911",
          "topics": [
            "0x38d16b8cac22d99fc7c124b9cd0de2d3fa1faef420bfe791d8c362d765e22700",
            "0x00000000000000000000000093af6d19a1738e52295014ac0103b005048df388",
            "0x000000000000000000000000ca06bc58b110911e2e9e47c6e839582395ce13e4"
          ],
          "data": "0x",
          "blockHash": "0x83aefe8a39a8efed96d78e2aadee4b1852daf0ac71bd2d5c9a8f5fe0257dd50c",
          "blockNumber": "0x1b2543d8",
          "blockTimestamp": "0x69e9c416",
          "transactionHash": "0xa0f33ff71042804eac3f6eb71755ddff022dfa374abaff4e9072b793abe5cfb9",
          "transactionIndex": "0x6",
          "logIndex": "0xe",
          "removed": false
        }
      ],
      "logsBloom": "0x00000400000000000000000000000000000000000000000000000000000000000000000000000000000000000000000000000000000000000000010000000000000000000000000000000000000000000000000000000000000000000000000000000000000008000000000000000000000800000000000000000000000000000000000000000000000000000008000000000000008800000000000000000000000000000000020000000000000000000000000000000000000000000000000000002040008000000000000000000000000000000000000000000000000000000000100000000000000000000000000000000000000000000000000000000000",
      "type": "0x2",
      "transactionHash": "0xa0f33ff71042804eac3f6eb71755ddff022dfa374abaff4e9072b793abe5cfb9",
      "transactionIndex": "0x6",
      "blockHash": "0x83aefe8a39a8efed96d78e2aadee4b1852daf0ac71bd2d5c9a8f5fe0257dd50c",
      "blockNumber": "0x1b2543d8",
      "gasUsed": "0xd364",
      "effectiveGasPrice": "0x1312d00",
      "from": "0x93af6d19a1738e52295014ac0103b005048df388",
      "to": "0x64e18ae5ede26359cf83b424ad9487c61ebc4911",
      "contractAddress": null,
      "gasUsedForL1": "0x49d",
      "l1BlockNumber": "0x17c91db",
      "timeboosted": false
    },
    {
      "status": "0x1",
      "cumulativeGasUsed": "0xa354",
      "logs": [
        {
          "address": "0x64e18ae5ede26359cf83b424ad9487c61ebc4911",
          "topics": [
            "0x8be0079c531659141344cd1fd0a4f28419497f9722a3daafe3b4186f6b6457e0",
            "0x00000000000000000000000093af6d19a1738e52295014ac0103b005048df388",
            "0x000000000000000000000000ca06bc58b110911e2e9e47c6e839582395ce13e4"
          ],
          "data": "0x",
          "blockHash": "0x905c8fa60e54eb141a82823a91d31cff23bb22a5a0a5fb6bd03507a67149e365",
          "blockNumber": "0x1b2543de",
          "blockTimestamp": "0x69e9c417",
          "transactionHash": "0x5832a0094928aee4a28d6c21efd076a30fa07704cc4eff85c54baa62ea986258",
          "transactionIndex": "0x1",
          "logIndex": "0x0",
          "removed": false
        }
      ],
      "logsBloom": "0x00000400000000000000000000000000000000000000000000800000000000000000000000000000000000000000000000000000000000000000010000000000000000000000000000000000000000000001000000000000000000000000000000000000000008000000000000000000000000000000000000000000000000400000000000000000000000000008000000000000008800000000000000000000000000000000000000000000000000000000000000000000000000000000000000000040008000000000000000000000000000000000000000000000000000000000100000000000000000000000000000000000000000000000000000000000",
      "type": "0x2",
      "transactionHash": "0x5832a0094928aee4a28d6c21efd076a30fa07704cc4eff85c54baa62ea986258",
      "transactionIndex": "0x1",
      "blockHash": "0x905c8fa60e54eb141a82823a91d31cff23bb22a5a0a5fb6bd03507a67149e365",
      "blockNumber": "0x1b2543de",
      "gasUsed": "0xa354",
      "effectiveGasPrice": "0x1318ac0",
      "from": "0x93af6d19a1738e52295014ac0103b005048df388",
      "to": "0xca06bc58b110911e2e9e47c6e839582395ce13e4",
      "contractAddress": null,
      "gasUsedForL1": "0x794",
      "l1BlockNumber": "0x17c91db",
      "timeboosted": false
    },
    {
      "status": "0x1",
      "cumulativeGasUsed": "0x152a5",
      "logs": [
        {
          "address": "0xca06bc58b110911e2e9e47c6e839582395ce13e4",
          "topics": [
            "0x38d16b8cac22d99fc7c124b9cd0de2d3fa1faef420bfe791d8c362d765e22700",
            "0x00000000000000000000000093af6d19a1738e52295014ac0103b005048df388",
            "0x000000000000000000000000ca06bc58b110911e2e9e47c6e839582395ce13e4"
          ],
          "data": "0x",
          "blockHash": "0xf8fbde8625b8864ce690b3df2738f0b8894a856e384836734257859900f5211f",
          "blockNumber": "0x1b2543e4",
          "blockTimestamp": "0x69e9c419",
          "transactionHash": "0x7ceec11cc6be3a7106b963aeb42160070dd6a7eb78d0c91d5aec4696b04b1802",
          "transactionIndex": "0x2",
          "logIndex": "0x0",
          "removed": false
        }
      ],
      "logsBloom": "0x00000000000000000000000000000000000000000000000000000000000000000000000000000000000000000000000000000000000000000000010000000000000000000000000000000000000000000000000000000000000000000000000000000000000008000000000000000000000801000000000000000000000000000000000000000000020000000000000000000000008000000000000000000000000000000000020000000040000000000000000000000000000000000000000000002040008000000000000000000000000000000000000000000000000000000000100000000000000000000000000000000000000000000000000000000000",
      "type": "0x2",
      "transactionHash": "0x7ceec11cc6be3a7106b963aeb42160070dd6a7eb78d0c91d5aec4696b04b1802",
      "transactionIndex": "0x2",
      "blockHash": "0xf8fbde8625b8864ce690b3df2738f0b8894a856e384836734257859900f5211f",
      "blockNumber": "0x1b2543e4",
      "gasUsed": "0xbe8e",
      "effectiveGasPrice": "0x1312d00",
      "from": "0x93af6d19a1738e52295014ac0103b005048df388",
      "to": "0xca06bc58b110911e2e9e47c6e839582395ce13e4",
      "contractAddress": null,
      "gasUsedForL1": "0x495",
      "l1BlockNumber": "0x17c91db",
      "timeboosted": false
    },
    {
      "status": "0x1",
      "cumulativeGasUsed": "0x7c97",
      "logs": [
        {
          "address": "0xca06bc58b110911e2e9e47c6e839582395ce13e4",
          "topics": [
            "0x8be0079c531659141344cd1fd0a4f28419497f9722a3daafe3b4186f6b6457e0",
            "0x00000000000000000000000093af6d19a1738e52295014ac0103b005048df388",
            "0x000000000000000000000000ca06bc58b110911e2e9e47c6e839582395ce13e4"
          ],
          "data": "0x",
          "blockHash": "0x92dbc7bb5763fb59b6b7792793dfb1be6a5574c7d5c019c9210bf390aa5f3e2c",
          "blockNumber": "0x1b2543ea",
          "blockTimestamp": "0x69e9c41a",
          "transactionHash": "0x1c6332603dc0c53b2dca724e18a6a2fc30a73a1f9392b7d3f7fbfe129cfd9165",
          "transactionIndex": "0x1",
          "logIndex": "0x0",
          "removed": false
        }
      ],
      "logsBloom": "0x00000000000000000000000000000000000000000000000000800000000000000000000000000000000000000000000000000000000000000000010000000000000000000000000000000000000000000001000000000000000000000000000000000000000008000000000000000000000001000000000000000000000000400000000000000000020000000000000000000000008000000000000000000000000000000000000000000040000000000000000000000000000000000000000000000040008000000000000000000000000000000000000000000000000000000000100000000000000000000000000000000000000000000000000000000000",
      "type": "0x2",
      "transactionHash": "0x1c6332603dc0c53b2dca724e18a6a2fc30a73a1f9392b7d3f7fbfe129cfd9165",
      "transactionIndex": "0x1",
      "blockHash": "0x92dbc7bb5763fb59b6b7792793dfb1be6a5574c7d5c019c9210bf390aa5f3e2c",
      "blockNumber": "0x1b2543ea",
      "gasUsed": "0x7c97",
      "effectiveGasPrice": "0x132b3a0",
      "from": "0x93af6d19a1738e52295014ac0103b005048df388",
      "to": "0xca06bc58b110911e2e9e47c6e839582395ce13e4",
      "contractAddress": null,
      "gasUsedForL1": "0x6e7",
      "l1BlockNumber": "0x17c91dc",
      "timeboosted": false
    }
  ],
  "libraries": [
    "../evm/src/libraries/LCCFactoryLib.sol:LCCFactoryLinkedLib:0x875B922e2843373772C8a6d88cb7581bbD91C879",
    "../evm/src/libraries/LiquidityHubLinkedLib.sol:LiquidityHubLinkedLib:0xaCc580983f745C1c9edDbE3b5F3d221F13D653F9",
    "../evm/src/libraries/VTSCommitLib.sol:VTSCommitLib:0xBab5960fB71f8096dE37497Dd8D41A6a20C9c9a7",
    "../evm/src/libraries/VTSLifecycleLinkedLib.sol:VTSLifecycleLinkedLib:0x61b4D910E7086a30b14fd8A4986b15b844ac27B9",
    "../evm/src/libraries/VTSPositionLib.sol:VTSPositionLib:0x823bDa51f62B814386408eB4ecC01F4256B1d516",
    "../evm/src/libraries/VTSPositionMMOpsLib.sol:VTSPositionMMOpsLib:0x76b2ea645Cf439D91391dDb7ca20a2E06C53Ca0d",
    "../evm/src/libraries/VTSSwapLib.sol:VTSSwapLib:0x5eE398A9363aD238Cb1c2b38bA8650a05750Db14"
  ],
  "pending": [],
  "returns": {},
  "timestamp": 1776927771262,
  "chain": 42161,
  "commit": "645448ed"
}