{
  "transactions": [
    {
      "hash": "0x83b150650247105c11ef882efd3b0baa36da744cf37cce8f1978bbba1443ea1d",
      "transactionType": "CALL",
      "contractName": null,
      "contractAddress": "0xd88f38f930b7952f2db2432cb002e7abbf3dd869",
      "function": "modifyLiquidities(bytes,uint256)",
      "arguments": [
        "0x000000000000000000000000000000000000000000000000000000000000004000000000000000000000000000000000000000000000000000000000000000800000000000000000000000000000000000000000000000000000000000000002031100000000000000000000000000000000000000000000000000000000000000000000000000000000000000000000000000000000000000000000000000020000000000000000000000000000000000000000000000000000000000000040000000000000000000000000000000000000000000000000000000000000010000000000000000000000000000000000000000000000000000000000000000a00000000000000000000000000000000000000000000000000000000000023cbb00000000000000000000000000000000000000000000000000000000000000000000000000000000000000000000000000000000000000000000000000000000000000000000000000000000000000000000000000000000000000000000008000000000000000000000000000000000000000000000000000000000000000000000000000000000000000000000000000000000000000000000000000000060000000000000000000000000667a8a91d6a6b99f455212bf2036d28b3170156a000000000000000000000000b59d6359d6532b8551ffec0530e95c2de00e598300000000000000000000000093af6d19a1738e52295014ac0103b005048df388",
        "1772727290"
      ],
      "transaction": {
        "from": "0x93af6d19a1738e52295014ac0103b005048df388",
        "to": "0xd88f38f930b7952f2db2432cb002e7abbf3dd869",
        "gas": "0xc6a45",
        "value": "0x0",
        "input": "0xdd46508f00000000000000000000000000000000000000000000000000000000000000400000000000000000000000000000000000000000000000000000000069a9abfa0000000000000000000000000000000000000000000000000000000000000220000000000000000000000000000000000000000000000000000000000000004000000000000000000000000000000000000000000000000000000000000000800000000000000000000000000000000000000000000000000000000000000002031100000000000000000000000000000000000000000000000000000000000000000000000000000000000000000000000000000000000000000000000000020000000000000000000000000000000000000000000000000000000000000040000000000000000000000000000000000000000000000000000000000000010000000000000000000000000000000000000000000000000000000000000000a00000000000000000000000000000000000000000000000000000000000023cbb00000000000000000000000000000000000000000000000000000000000000000000000000000000000000000000000000000000000000000000000000000000000000000000000000000000000000000000000000000000000000000000008000000000000000000000000000000000000000000000000000000000000000000000000000000000000000000000000000000000000000000000000000000060000000000000000000000000667a8a91d6a6b99f455212bf2036d28b3170156a000000000000000000000000b59d6359d6532b8551ffec0530e95c2de00e598300000000000000000000000093af6d19a1738e52295014ac0103b005048df388",
        "nonce": "0xc0",
        "chainId": "0xa4b1"
      },
      "additionalContracts": [],
      "isFixedGasLimit": false
    }
  ],
  "receipts": [
    {
      "status": "0x1",
      "cumulativeGasUsed": "0x32b900",
      "logs": [
        {
          "address": "0xd88f38f930b7952f2db2432cb002e7abbf3dd869",
          "topics": [
            "0xddf252ad1be2c89b69c2b068fc378daa952ba7f163c4a11628f55a4df523b3ef",
            "0x00000000000000000000000093af6d19a1738e52295014ac0103b005048df388",
            "0x0000000000000000000000000000000000000000000000000000000000000000",
            "0x0000000000000000000000000000000000000000000000000000000000023cbb"
          ],
          "data": "0x",
          "blockHash": "0x95e05fbacffc3e5897a7cfe9b19b20eae46782b4929b119b69c2c21c052b2d40",
          "blockNumber": "0x1a24fb23",
          "blockTimestamp": "0x69a99e10",
          "transactionHash": "0x83b150650247105c11ef882efd3b0baa36da744cf37cce8f1978bbba1443ea1d",
          "transactionIndex": "0xd",
          "logIndex": "0x2a",
          "removed": false
        },
        {
          "address": "0x360e68faccca8ca495c1b759fd9eee466db9fb32",
          "topics": [
            "0xf208f4912782fd25c7f114ca3723a2d5dd6f3bcc3ac8db5af63baa85f711d5ec",
            "0x732538106e68eaea89c67f5105e83c00ac90a689f16ae6ab8708aeec26cd70bf",
            "0x000000000000000000000000d88f38f930b7952f2db2432cb002e7abbf3dd869"
          ],
          "data": "0xfffffffffffffffffffffffffffffffffffffffffffffffffffffffffff2764c00000000000000000000000000000000000000000000000000000000000d89b4fffffffffffffffffffffffffffffffffffffffffffffffffffa7f9686d16ebe0000000000000000000000000000000000000000000000000000000000023cbb",
          "blockHash": "0x95e05fbacffc3e5897a7cfe9b19b20eae46782b4929b119b69c2c21c052b2d40",
          "blockNumber": "0x1a24fb23",
          "blockTimestamp": "0x69a99e10",
          "transactionHash": "0x83b150650247105c11ef882efd3b0baa36da744cf37cce8f1978bbba1443ea1d",
          "transactionIndex": "0xd",
          "logIndex": "0x2b",
          "removed": false
        },
        {
          "address": "0x667a8a91d6a6b99f455212bf2036d28b3170156a",
          "topics": [
            "0xddf252ad1be2c89b69c2b068fc378daa952ba7f163c4a11628f55a4df523b3ef",
            "0x000000000000000000000000360e68faccca8ca495c1b759fd9eee466db9fb32",
            "0x00000000000000000000000093af6d19a1738e52295014ac0103b005048df388"
          ],
          "data": "0x000000000000000000000000000000000000000000000000000000001ddca73e",
          "blockHash": "0x95e05fbacffc3e5897a7cfe9b19b20eae46782b4929b119b69c2c21c052b2d40",
          "blockNumber": "0x1a24fb23",
          "blockTimestamp": "0x69a99e10",
          "transactionHash": "0x83b150650247105c11ef882efd3b0baa36da744cf37cce8f1978bbba1443ea1d",
          "transactionIndex": "0xd",
          "logIndex": "0x2c",
          "removed": false
        },
        {
          "address": "0xb59d6359d6532b8551ffec0530e95c2de00e5983",
          "topics": [
            "0xddf252ad1be2c89b69c2b068fc378daa952ba7f163c4a11628f55a4df523b3ef",
            "0x000000000000000000000000360e68faccca8ca495c1b759fd9eee466db9fb32",
            "0x00000000000000000000000093af6d19a1738e52295014ac0103b005048df388"
          ],
          "data": "0x0000000000000000000000000000000000000000000001037a9a3c84e918a36f",
          "blockHash": "0x95e05fbacffc3e5897a7cfe9b19b20eae46782b4929b119b69c2c21c052b2d40",
          "blockNumber": "0x1a24fb23",
          "blockTimestamp": "0x69a99e10",
          "transactionHash": "0x83b150650247105c11ef882efd3b0baa36da744cf37cce8f1978bbba1443ea1d",
          "transactionIndex": "0xd",
          "logIndex": "0x2d",
          "removed": false
        }
      ],
      "logsBloom": "0x00000000000000000000000000000000000000000000000000100000000000000000004000000000000000000800000000000000000000400000010000000000080000000000000001200008000000000020000000000000000000000000000000000000020000000000000000000800000000000000000000000010000000000000000001000000000000000100000000000000008000002000000000008000000004000000000000000000004000080000000001000000000000800000000000000002008000000400000000000000000004000008010000000001000020000000000040000000000000080000000004000000000000000000000800000008",
      "type": "0x2",
      "transactionHash": "0x83b150650247105c11ef882efd3b0baa36da744cf37cce8f1978bbba1443ea1d",
      "transactionIndex": "0xd",
      "blockHash": "0x95e05fbacffc3e5897a7cfe9b19b20eae46782b4929b119b69c2c21c052b2d40",
      "blockNumber": "0x1a24fb23",
      "gasUsed": "0x830eb",
      "effectiveGasPrice": "0x14560e0",
      "from": "0x93af6d19a1738e52295014ac0103b005048df388",
      "to": "0xd88f38f930b7952f2db2432cb002e7abbf3dd869",
      "contractAddress": null,
      "gasUsedForL1": "0x4b7",
      "l1BlockNumber": "0x1773ee6",
      "timeboosted": false
    }
  ],
  "libraries": [],
  "pending": [],
  "returns": {},
  "timestamp": 1772723728661,
  "chain": 42161,
  "commit": "b658fb76"
}