{
  "transactions": [
    {
      "hash": "0x8075791b3e7d0affe2cb368bf93fe46dfa47276cabdeba52b5e17c1625bbd796",
      "transactionType": "CALL",
      "contractName": null,
      "contractAddress": "0x667a8a91d6a6b99f455212bf2036d28b3170156a",
      "function": "approve(address,uint256)",
      "arguments": [
        "0x000000000022D473030F116dDEE9F6B43aC78BA3",
        "115792089237316195423570985008687907853269984665640564039457584007913129639935"
      ],
      "transaction": {
        "from": "0x93af6d19a1738e52295014ac0103b005048df388",
        "to": "0x667a8a91d6a6b99f455212bf2036d28b3170156a",
        "gas": "0xefa9",
        "value": "0x0",
        "input": "0x095ea7b3000000000000000000000000000000000022d473030f116ddee9f6b43ac78ba3ffffffffffffffffffffffffffffffffffffffffffffffffffffffffffffffff",
        "nonce": "0xb1",
        "chainId": "0xa4b1"
      },
      "additionalContracts": [],
      "isFixedGasLimit": false
    },
    {
      "hash": "0xafb244d6041f48e607f686cb609a94c2954151c9a5b7e266845a6ee243e548b2",
      "transactionType": "CALL",
      "contractName": null,
      "contractAddress": "0xb59d6359d6532b8551ffec0530e95c2de00e5983",
      "function": "approve(address,uint256)",
      "arguments": [
        "0x000000000022D473030F116dDEE9F6B43aC78BA3",
        "115792089237316195423570985008687907853269984665640564039457584007913129639935"
      ],
      "transaction": {
        "from": "0x93af6d19a1738e52295014ac0103b005048df388",
        "to": "0xb59d6359d6532b8551ffec0530e95c2de00e5983",
        "gas": "0xefa9",
        "value": "0x0",
        "input": "0x095ea7b3000000000000000000000000000000000022d473030f116ddee9f6b43ac78ba3ffffffffffffffffffffffffffffffffffffffffffffffffffffffffffffffff",
        "nonce": "0xb2",
        "chainId": "0xa4b1"
      },
      "additionalContracts": [],
      "isFixedGasLimit": false
    },
    {
      "hash": "0xfb1fb3e0f6d10b4445ab2ab9a0fb0f463d275422db22d093be7b4d9bbcbfbe6b",
      "transactionType": "CALL",
      "contractName": null,
      "contractAddress": "0xfd086bc7cd5c481dcc9c85ebe478a1c0b69fcbb9",
      "function": "approve(address,uint256)",
      "arguments": [
        "0x27890DdF42fdd25c4af81B9F908A2C4cbad58613",
        "115792089237316195423570985008687907853269984665640564039457584007913129639935"
      ],
      "transaction": {
        "from": "0x93af6d19a1738e52295014ac0103b005048df388",
        "to": "0xfd086bc7cd5c481dcc9c85ebe478a1c0b69fcbb9",
        "gas": "0x11909",
        "value": "0x0",
        "input": "0x095ea7b300000000000000000000000027890ddf42fdd25c4af81b9f908a2c4cbad58613ffffffffffffffffffffffffffffffffffffffffffffffffffffffffffffffff",
        "nonce": "0xb3",
        "chainId": "0xa4b1"
      },
      "additionalContracts": [],
      "isFixedGasLimit": false
    },
    {
      "hash": "0x90fd55987167f17ceef4d0b747a326057e2d33cb4bb9e22d4943ea06821ad90b",
      "transactionType": "CALL",
      "contractName": null,
      "contractAddress": "0x912ce59144191c1204e64559fe8253a0e49e6548",
      "function": "approve(address,uint256)",
      "arguments": [
        "0x27890DdF42fdd25c4af81B9F908A2C4cbad58613",
        "115792089237316195423570985008687907853269984665640564039457584007913129639935"
      ],
      "transaction": {
        "from": "0x93af6d19a1738e52295014ac0103b005048df388",
        "to": "0x912ce59144191c1204e64559fe8253a0e49e6548",
        "gas": "0x11866",
        "value": "0x0",
        "input": "0x095ea7b300000000000000000000000027890ddf42fdd25c4af81b9f908a2c4cbad58613ffffffffffffffffffffffffffffffffffffffffffffffffffffffffffffffff",
        "nonce": "0xb4",
        "chainId": "0xa4b1"
      },
      "additionalContracts": [],
      "isFixedGasLimit": false
    },
    {
      "hash": "0x869addc1b1d26c37d7e3ae7ada42943de6144bb441edceef6ab797de93267a6e",
      "transactionType": "CALL",
      "contractName": null,
      "contractAddress": "0x912ce59144191c1204e64559fe8253a0e49e6548",
      "function": "approve(address,uint256)",
      "arguments": [
        "0x000000000022D473030F116dDEE9F6B43aC78BA3",
        "115792089237316195423570985008687907853269984665640564039457584007913129639935"
      ],
      "transaction": {
        "from": "0x93af6d19a1738e52295014ac0103b005048df388",
        "to": "0x912ce59144191c1204e64559fe8253a0e49e6548",
        "gas": "0x11818",
        "value": "0x0",
        "input": "0x095ea7b3000000000000000000000000000000000022d473030f116ddee9f6b43ac78ba3ffffffffffffffffffffffffffffffffffffffffffffffffffffffffffffffff",
        "nonce": "0xb5",
        "chainId": "0xa4b1"
      },
      "additionalContracts": [],
      "isFixedGasLimit": false
    },
    {
      "hash": "0x7d9cdf915d873c56a0d4a4ad97a35e92043de7bd60f101188a472fe6ab8cf31b",
      "transactionType": "CALL",
      "contractName": null,
      "contractAddress": "0x000000000022d473030f116ddee9f6b43ac78ba3",
      "function": "approve(address,address,uint160,uint48)",
      "arguments": [
        "0x667a8a91d6A6b99f455212Bf2036D28b3170156A",
        "0xd88F38F930b7952f2DB2432Cb002E7abbF3dD869",
        "1461501637330902918203684832716283019655932542975",
        "1772804342"
      ],
      "transaction": {
        "from": "0x93af6d19a1738e52295014ac0103b005048df388",
        "to": "0x000000000022d473030f116ddee9f6b43ac78ba3",
        "gas": "0xf8d9",
        "value": "0x0",
        "input": "0x87517c45000000000000000000000000667a8a91d6a6b99f455212bf2036d28b3170156a000000000000000000000000d88f38f930b7952f2db2432cb002e7abbf3dd869000000000000000000000000ffffffffffffffffffffffffffffffffffffffff0000000000000000000000000000000000000000000000000000000069aad8f6",
        "nonce": "0xb6",
        "chainId": "0xa4b1"
      },
      "additionalContracts": [],
      "isFixedGasLimit": false
    },
    {
      "hash": "0x06203d7a0b3b11a32eeb4644e6fcfc8785bfcf331715dfdf87cbec99947de965",
      "transactionType": "CALL",
      "contractName": null,
      "contractAddress": "0x000000000022d473030f116ddee9f6b43ac78ba3",
      "function": "approve(address,address,uint160,uint48)",
      "arguments": [
        "0xB59d6359d6532B8551FFEC0530e95c2de00e5983",
        "0xd88F38F930b7952f2DB2432Cb002E7abbF3dD869",
        "1461501637330902918203684832716283019655932542975",
        "1772804342"
      ],
      "transaction": {
        "from": "0x93af6d19a1738e52295014ac0103b005048df388",
        "to": "0x000000000022d473030f116ddee9f6b43ac78ba3",
        "gas": "0xf8d9",
        "value": "0x0",
        "input": "0x87517c45000000000000000000000000b59d6359d6532b8551ffec0530e95c2de00e5983000000000000000000000000d88f38f930b7952f2db2432cb002e7abbf3dd869000000000000000000000000ffffffffffffffffffffffffffffffffffffffff0000000000000000000000000000000000000000000000000000000069aad8f6",
        "nonce": "0xb7",
        "chainId": "0xa4b1"
      },
      "additionalContracts": [],
      "isFixedGasLimit": false
    },
    {
      "hash": "0xc4dc6f03586c09214aac1737d721cc55f40bcba6063dd41a30018677fbf9d67a",
      "transactionType": "CALL",
      "contractName": null,
      "contractAddress": "0x27890ddf42fdd25c4af81b9f908a2c4cbad58613",
      "function": "wrap(address,uint256)",
      "arguments": [
        "0x667a8a91d6A6b99f455212Bf2036D28b3170156A",
        "500000000"
      ],
      "transaction": {
        "from": "0x93af6d19a1738e52295014ac0103b005048df388",
        "to": "0x27890ddf42fdd25c4af81b9f908a2c4cbad58613",
        "gas": "0x45ba6",
        "value": "0x0",
        "input": "0xbf376c7a000000000000000000000000667a8a91d6a6b99f455212bf2036d28b3170156a000000000000000000000000000000000000000000000000000000001dcd6500",
        "nonce": "0xb8",
        "chainId": "0xa4b1"
      },
      "additionalContracts": [],
      "isFixedGasLimit": false
    },
    {
      "hash": "0x4ab32ed93d10e0cd20499c2eeb9873a0ec671af35092c0cbc3b74a1f526c2ac7",
      "transactionType": "CALL",
      "contractName": null,
      "contractAddress": "0x27890ddf42fdd25c4af81b9f908a2c4cbad58613",
      "function": "wrap(address,uint256)",
      "arguments": [
        "0xB59d6359d6532B8551FFEC0530e95c2de00e5983",
        "4796109451020709142564"
      ],
      "transaction": {
        "from": "0x93af6d19a1738e52295014ac0103b005048df388",
        "to": "0x27890ddf42fdd25c4af81b9f908a2c4cbad58613",
        "gas": "0x4412f",
        "value": "0x0",
        "input": "0xbf376c7a000000000000000000000000b59d6359d6532b8551ffec0530e95c2de00e5983000000000000000000000000000000000000000000000103ff63a6d38f1c2024",
        "nonce": "0xb9",
        "chainId": "0xa4b1"
      },
      "additionalContracts": [],
      "isFixedGasLimit": false
    },
    {
      "hash": "0x227e4598834db63e98641139ee3ec3b3143c8f064ccb45eddc78d880c11a07b5",
      "transactionType": "CALL",
      "contractName": null,
      "contractAddress": "0xd88f38f930b7952f2db2432cb002e7abbf3dd869",
      "function": "modifyLiquidities(bytes,uint256)",
      "arguments": [
        "0x000000000000000000000000000000000000000000000000000000000000004000000000000000000000000000000000000000000000000000000000000000800000000000000000000000000000000000000000000000000000000000000002020d00000000000000000000000000000000000000000000000000000000000000000000000000000000000000000000000000000000000000000000000000020000000000000000000000000000000000000000000000000000000000000040000000000000000000000000000000000000000000000000000000000000020000000000000000000000000000000000000000000000000000000000000001a0000000000000000000000000667a8a91d6a6b99f455212bf2036d28b3170156a000000000000000000000000b59d6359d6532b8551ffec0530e95c2de00e598300000000000000000000000000000000000000000000000000000000000001f4000000000000000000000000000000000000000000000000000000000000000a000000000000000000000000ccfc96413ca7ddc9d8d0463c3abd3145a8596fc3fffffffffffffffffffffffffffffffffffffffffffffffffffffffffff2764c00000000000000000000000000000000000000000000000000000000000d89b400000000000000000000000000000000000000000000000000058069792e9142000000000000000000000000000000000000000000000000000000001dcd6500000000000000000000000000000000000000000000000103ff63a6d38f1c202400000000000000000000000093af6d19a1738e52295014ac0103b005048df388000000000000000000000000000000000000000000000000000000000000018000000000000000000000000000000000000000000000000000000000000000000000000000000000000000000000000000000000000000000000000000000040000000000000000000000000667a8a91d6a6b99f455212bf2036d28b3170156a000000000000000000000000b59d6359d6532b8551ffec0530e95c2de00e5983",
        "1772718242"
      ],
      "transaction": {
        "from": "0x93af6d19a1738e52295014ac0103b005048df388",
        "to": "0xd88f38f930b7952f2db2432cb002e7abbf3dd869",
        "gas": "0x1638ef",
        "value": "0x0",
        "input": "0xdd46508f00000000000000000000000000000000000000000000000000000000000000400000000000000000000000000000000000000000000000000000000069a988a20000000000000000000000000000000000000000000000000000000000000300000000000000000000000000000000000000000000000000000000000000004000000000000000000000000000000000000000000000000000000000000000800000000000000000000000000000000000000000000000000000000000000002020d00000000000000000000000000000000000000000000000000000000000000000000000000000000000000000000000000000000000000000000000000020000000000000000000000000000000000000000000000000000000000000040000000000000000000000000000000000000000000000000000000000000020000000000000000000000000000000000000000000000000000000000000001a0000000000000000000000000667a8a91d6a6b99f455212bf2036d28b3170156a000000000000000000000000b59d6359d6532b8551ffec0530e95c2de00e598300000000000000000000000000000000000000000000000000000000000001f4000000000000000000000000000000000000000000000000000000000000000a000000000000000000000000ccfc96413ca7ddc9d8d0463c3abd3145a8596fc3fffffffffffffffffffffffffffffffffffffffffffffffffffffffffff2764c00000000000000000000000000000000000000000000000000000000000d89b400000000000000000000000000000000000000000000000000058069792e9142000000000000000000000000000000000000000000000000000000001dcd6500000000000000000000000000000000000000000000000103ff63a6d38f1c202400000000000000000000000093af6d19a1738e52295014ac0103b005048df388000000000000000000000000000000000000000000000000000000000000018000000000000000000000000000000000000000000000000000000000000000000000000000000000000000000000000000000000000000000000000000000040000000000000000000000000667a8a91d6a6b99f455212bf2036d28b3170156a000000000000000000000000b59d6359d6532b8551ffec0530e95c2de00e5983",
        "nonce": "0xba",
        "chainId": "0xa4b1"
      },
      "additionalContracts": [],
      "isFixedGasLimit": false
    }
  ],
  "receipts": [
    {
      "status": "0x1",
      "cumulativeGasUsed": "0x4fba8",
      "logs": [
        {
          "address": "0x667a8a91d6a6b99f455212bf2036d28b3170156a",
          "topics": [
            "0x8c5be1e5ebec7d5bd14f71427d1e84f3dd0314c0f7b2291e5b200ac8c7c3b925",
            "0x00000000000000000000000093af6d19a1738e52295014ac0103b005048df388",
            "0x000000000000000000000000000000000022d473030f116ddee9f6b43ac78ba3"
          ],
          "data": "0xffffffffffffffffffffffffffffffffffffffffffffffffffffffffffffffff",
          "blockHash": "0x3c46b4d2cd9d8dcd54b5082bbf5be0836e2b5e5a03aa8dc1a5d41c8424396915",
          "blockNumber": "0x1a24a0fe",
          "blockTimestamp": "0x69a987af",
          "transactionHash": "0x8075791b3e7d0affe2cb368bf93fe46dfa47276cabdeba52b5e17c1625bbd796",
          "transactionIndex": "0x3",
          "logIndex": "0x6",
          "removed": false
        }
      ],
      "logsBloom": "0x00000000000000000000000000000000000000000000000000000000000000000000000000000000000000000000000000000000800000400000010000200000000000000000000000204000000000000000000000000800000000000000000000000000000000000000000000000000000000000000000000000000000000000000000000000000000000000000000000000000008000000000000000000000020000000000000000000000000000000000000000000000000000000000000000000000008000000000000000000000000000000000000000000000000000000010000000000000000000080000000000000000000000000000000000000000",
      "type": "0x2",
      "transactionHash": "0x8075791b3e7d0affe2cb368bf93fe46dfa47276cabdeba52b5e17c1625bbd796",
      "transactionIndex": "0x3",
      "blockHash": "0x3c46b4d2cd9d8dcd54b5082bbf5be0836e2b5e5a03aa8dc1a5d41c8424396915",
      "blockNumber": "0x1a24a0fe",
      "gasUsed": "0xb65c",
      "effectiveGasPrice": "0x131fff0",
      "from": "0x93af6d19a1738e52295014ac0103b005048df388",
      "to": "0x667a8a91d6a6b99f455212bf2036d28b3170156a",
      "contractAddress": null,
      "gasUsedForL1": "0x1f3",
      "l1BlockNumber": "0x1773d0a",
      "timeboosted": false
    },
    {
      "status": "0x1",
      "cumulativeGasUsed": "0xb4f36",
      "logs": [
        {
          "address": "0xb59d6359d6532b8551ffec0530e95c2de00e5983",
          "topics": [
            "0x8c5be1e5ebec7d5bd14f71427d1e84f3dd0314c0f7b2291e5b200ac8c7c3b925",
            "0x00000000000000000000000093af6d19a1738e52295014ac0103b005048df388",
            "0x000000000000000000000000000000000022d473030f116ddee9f6b43ac78ba3"
          ],
          "data": "0xffffffffffffffffffffffffffffffffffffffffffffffffffffffffffffffff",
          "blockHash": "0x8c9dd5b139c50e2a999c8ffb37b247bc3b4a307de8a68479c3cd6b770dbb2b84",
          "blockNumber": "0x1a24a104",
          "blockTimestamp": "0x69a987b1",
          "transactionHash": "0xafb244d6041f48e607f686cb609a94c2954151c9a5b7e266845a6ee243e548b2",
          "transactionIndex": "0xa",
          "logIndex": "0x8",
          "removed": false
        }
      ],
      "logsBloom": "0x00000000000000000000000000000000000000000000000000000000000000000000000000000000000000000000000000000000800000000000010000200000000000000000000000004000000000000000000000000800000000000000000000000000000000000000000000000000000000000000000000000000000000000000000000000000000000000000000000000000008000002000000000000000020000000000000000000000000000000000000000000000000000000000000000000000008000000000000000000000000000000008000000000001000000000010000000000000000000000000000000000000000000000000000000000000",
      "type": "0x2",
      "transactionHash": "0xafb244d6041f48e607f686cb609a94c2954151c9a5b7e266845a6ee243e548b2",
      "transactionIndex": "0xa",
      "blockHash": "0x8c9dd5b139c50e2a999c8ffb37b247bc3b4a307de8a68479c3cd6b770dbb2b84",
      "blockNumber": "0x1a24a104",
      "gasUsed": "0xb65d",
      "effectiveGasPrice": "0x1312d00",
      "from": "0x93af6d19a1738e52295014ac0103b005048df388",
      "to": "0xb59d6359d6532b8551ffec0530e95c2de00e5983",
      "contractAddress": null,
      "gasUsedForL1": "0x1f4",
      "l1BlockNumber": "0x1773d0a",
      "timeboosted": false
    },
    {
      "status": "0x1",
      "cumulativeGasUsed": "0xc14af",
      "logs": [
        {
          "address": "0xfd086bc7cd5c481dcc9c85ebe478a1c0b69fcbb9",
          "topics": [
            "0x8c5be1e5ebec7d5bd14f71427d1e84f3dd0314c0f7b2291e5b200ac8c7c3b925",
            "0x00000000000000000000000093af6d19a1738e52295014ac0103b005048df388",
            "0x00000000000000000000000027890ddf42fdd25c4af81b9f908a2c4cbad58613"
          ],
          "data": "0xffffffffffffffffffffffffffffffffffffffffffffffffffffffffffffffff",
          "blockHash": "0xc92eec394a0127d946200ef94f9f40cb6f28230b459520a5d3f4628b3078ae1c",
          "blockNumber": "0x1a24a10e",
          "blockTimestamp": "0x69a987b3",
          "transactionHash": "0xfb1fb3e0f6d10b4445ab2ab9a0fb0f463d275422db22d093be7b4d9bbcbfbe6b",
          "transactionIndex": "0xa",
          "logIndex": "0xa",
          "removed": false
        }
      ],
      "logsBloom": "0x00000000000000000000000000000000000800000000000000000000000000000000000000000000000000100000000000000000000000000000010000200000000010000000000000000000000000000000000000000000000000000000000000000000000000000000000000000000000000000000000000000000000000000000000000000000000000000000000000000000008000000000000000000000020000000000000000000000000000000000000000000000000000000000000000008000008000000000000000000000000000000000000000000000000000000010000000100000000000000000000010000000000000000000000000000000",
      "type": "0x2",
      "transactionHash": "0xfb1fb3e0f6d10b4445ab2ab9a0fb0f463d275422db22d093be7b4d9bbcbfbe6b",
      "transactionIndex": "0xa",
      "blockHash": "0xc92eec394a0127d946200ef94f9f40cb6f28230b459520a5d3f4628b3078ae1c",
      "blockNumber": "0x1a24a10e",
      "gasUsed": "0xd493",
      "effectiveGasPrice": "0x1325db0",
      "from": "0x93af6d19a1738e52295014ac0103b005048df388",
      "to": "0xfd086bc7cd5c481dcc9c85ebe478a1c0b69fcbb9",
      "contractAddress": null,
      "gasUsedForL1": "0x1f5",
      "l1BlockNumber": "0x1773d0a",
      "timeboosted": false
    },
    {
      "status": "0x1",
      "cumulativeGasUsed": "0xd416",
      "logs": [
        {
          "address": "0x912ce59144191c1204e64559fe8253a0e49e6548",
          "topics": [
            "0x8c5be1e5ebec7d5bd14f71427d1e84f3dd0314c0f7b2291e5b200ac8c7c3b925",
            "0x00000000000000000000000093af6d19a1738e52295014ac0103b005048df388",
            "0x00000000000000000000000027890ddf42fdd25c4af81b9f908a2c4cbad58613"
          ],
          "data": "0xffffffffffffffffffffffffffffffffffffffffffffffffffffffffffffffff",
          "blockHash": "0xf0bda587c4cbb01beb35c3f3af5837878377a380a68286b32c7e3ef93c92f2f5",
          "blockNumber": "0x1a24a122",
          "blockTimestamp": "0x69a987b8",
          "transactionHash": "0x90fd55987167f17ceef4d0b747a326057e2d33cb4bb9e22d4943ea06821ad90b",
          "transactionIndex": "0x1",
          "logIndex": "0x0",
          "removed": false
        }
      ],
      "logsBloom": "0x00000000000000000000000000000000000800000000000000000000001000000000000000000000000000100000000000000000000000000000010000200000000000000000000000000000000100000000000000000000000000000000000000000000000000000000000000000000000000000000400000000000000000000000000000000000000000000000000000000000008000000000000000000000020000000000000000000000000000000000000000000000000000000000000000000000008000000000000000000000000000000000000000000000000000000010000000100000000000000000000000000000000000000000000000000000",
      "type": "0x2",
      "transactionHash": "0x90fd55987167f17ceef4d0b747a326057e2d33cb4bb9e22d4943ea06821ad90b",
      "transactionIndex": "0x1",
      "blockHash": "0xf0bda587c4cbb01beb35c3f3af5837878377a380a68286b32c7e3ef93c92f2f5",
      "blockNumber": "0x1a24a122",
      "gasUsed": "0xd416",
      "effectiveGasPrice": "0x131c940",
      "from": "0x93af6d19a1738e52295014ac0103b005048df388",
      "to": "0x912ce59144191c1204e64559fe8253a0e49e6548",
      "contractAddress": null,
      "gasUsedForL1": "0x1f6",
      "l1BlockNumber": "0x1773d0b",
      "timeboosted": false
    },
    {
      "status": "0x1",
      "cumulativeGasUsed": "0x20d4e",
      "logs": [
        {
          "address": "0x912ce59144191c1204e64559fe8253a0e49e6548",
          "topics": [
            "0x8c5be1e5ebec7d5bd14f71427d1e84f3dd0314c0f7b2291e5b200ac8c7c3b925",
            "0x00000000000000000000000093af6d19a1738e52295014ac0103b005048df388",
            "0x000000000000000000000000000000000022d473030f116ddee9f6b43ac78ba3"
          ],
          "data": "0xffffffffffffffffffffffffffffffffffffffffffffffffffffffffffffffff",
          "blockHash": "0xbd859d433893eb6a7a8c7ac4bf87a8431143eb3b4618e360b18920e11276a758",
          "blockNumber": "0x1a24a12d",
          "blockTimestamp": "0x69a987bb",
          "transactionHash": "0x869addc1b1d26c37d7e3ae7ada42943de6144bb441edceef6ab797de93267a6e",
          "transactionIndex": "0x2",
          "logIndex": "0x0",
          "removed": false
        }
      ],
      "logsBloom": "0x00000000000000000000000000000000000000000000000000000000001000000000000000000000000000000000000000000000800000000000010000200000000000000000000000004000000100000000000000000800000000000000000000000000000000000000000000000000000000000000400000000000000000000000000000000000000000000000000000000000008000000000000000000000020000000000000000000000000000000000000000000000000000000000000000000000008000000000000000000000000000000000000000000000000000000010000000000000000000000000000000000000000000000000000000000000",
      "type": "0x2",
      "transactionHash": "0x869addc1b1d26c37d7e3ae7ada42943de6144bb441edceef6ab797de93267a6e",
      "transactionIndex": "0x2",
      "blockHash": "0xbd859d433893eb6a7a8c7ac4bf87a8431143eb3b4618e360b18920e11276a758",
      "blockNumber": "0x1a24a12d",
      "gasUsed": "0xd3d9",
      "effectiveGasPrice": "0x1320f90",
      "from": "0x93af6d19a1738e52295014ac0103b005048df388",
      "to": "0x912ce59144191c1204e64559fe8253a0e49e6548",
      "contractAddress": null,
      "gasUsedForL1": "0x1f5",
      "l1BlockNumber": "0x1773d0b",
      "timeboosted": false
    },
    {
      "status": "0x1",
      "cumulativeGasUsed": "0x8a0aa",
      "logs": [
        {
          "address": "0x000000000022d473030f116ddee9f6b43ac78ba3",
          "topics": [
            "0xda9fa7c1b00402c17d0161b249b1ab8bbec047c5a52207b9c112deffd817036b",
            "0x00000000000000000000000093af6d19a1738e52295014ac0103b005048df388",
            "0x000000000000000000000000667a8a91d6a6b99f455212bf2036d28b3170156a",
            "0x000000000000000000000000d88f38f930b7952f2db2432cb002e7abbf3dd869"
          ],
          "data": "0x000000000000000000000000ffffffffffffffffffffffffffffffffffffffff0000000000000000000000000000000000000000000000000000000069aad8f6",
          "blockHash": "0xd212fb9c2caf3ca01dc64fdf5ea7afbb94d3664e7b6a238a2d67df5ff2a7209c",
          "blockNumber": "0x1a24a137",
          "blockTimestamp": "0x69a987be",
          "transactionHash": "0x7d9cdf915d873c56a0d4a4ad97a35e92043de7bd60f101188a472fe6ab8cf31b",
          "transactionIndex": "0x8",
          "logIndex": "0x3",
          "removed": false
        }
      ],
      "logsBloom": "0x00010000000000000000000000000000000000000000000000000000000000000000000000000000000000000000000000000000000000000004010000080000000000000000000000000000000000000000000000000000000000000000000000000000000000000000000000000000000000000000000000000000000000000020000000000000000000000000000000000000008000002000000000008000000000000000000000000000004000000000000000000000000000080000000000000000008000000000000000400000000000000000000040000000000000000000000000000000000000000000000000000000000000000000000800000400",
      "type": "0x2",
      "transactionHash": "0x7d9cdf915d873c56a0d4a4ad97a35e92043de7bd60f101188a472fe6ab8cf31b",
      "transactionIndex": "0x8",
      "blockHash": "0xd212fb9c2caf3ca01dc64fdf5ea7afbb94d3664e7b6a238a2d67df5ff2a7209c",
      "blockNumber": "0x1a24a137",
      "gasUsed": "0xbd52",
      "effectiveGasPrice": "0x1334fe0",
      "from": "0x93af6d19a1738e52295014ac0103b005048df388",
      "to": "0x000000000022d473030f116ddee9f6b43ac78ba3",
      "contractAddress": null,
      "gasUsedForL1": "0x2a0",
      "l1BlockNumber": "0x1773d0b",
      "timeboosted": false
    },
    {
      "status": "0x1",
      "cumulativeGasUsed": "0xbd55",
      "logs": [
        {
          "address": "0x000000000022d473030f116ddee9f6b43ac78ba3",
          "topics": [
            "0xda9fa7c1b00402c17d0161b249b1ab8bbec047c5a52207b9c112deffd817036b",
            "0x00000000000000000000000093af6d19a1738e52295014ac0103b005048df388",
            "0x000000000000000000000000b59d6359d6532b8551ffec0530e95c2de00e5983",
            "0x000000000000000000000000d88f38f930b7952f2db2432cb002e7abbf3dd869"
          ],
          "data": "0x000000000000000000000000ffffffffffffffffffffffffffffffffffffffff0000000000000000000000000000000000000000000000000000000069aad8f6",
          "blockHash": "0x524ed85f3dc76be455afcc73f668ae38aa65373f697a30b505f94c8e331084a6",
          "blockNumber": "0x1a24a14a",
          "blockTimestamp": "0x69a987c2",
          "transactionHash": "0x06203d7a0b3b11a32eeb4644e6fcfc8785bfcf331715dfdf87cbec99947de965",
          "transactionIndex": "0x1",
          "logIndex": "0x0",
          "removed": false
        }
      ],
      "logsBloom": "0x00010000000000000000000000000000000000000000000000000000000000000000000000000000000000000000000000000000000000000000010000080000000000000000000000000000000000000000000000000000000000000000000000000000000000000020000000000000000000000000000000000000000000000020000000000000000000000000000000000000008000000000000000008000000000000000000000000000004000000000000000000000000200080000000000000000008000000000000000000000000000000000000040000000000000000000000000000000000000000000000000000000000000000000000800000500",
      "type": "0x2",
      "transactionHash": "0x06203d7a0b3b11a32eeb4644e6fcfc8785bfcf331715dfdf87cbec99947de965",
      "transactionIndex": "0x1",
      "blockHash": "0x524ed85f3dc76be455afcc73f668ae38aa65373f697a30b505f94c8e331084a6",
      "blockNumber": "0x1a24a14a",
      "gasUsed": "0xbd55",
      "effectiveGasPrice": "0x13207c0",
      "from": "0x93af6d19a1738e52295014ac0103b005048df388",
      "to": "0x000000000022d473030f116ddee9f6b43ac78ba3",
      "contractAddress": null,
      "gasUsedForL1": "0x2a3",
      "l1BlockNumber": "0x1773d0b",
      "timeboosted": false
    },
    {
      "status": "0x1",
      "cumulativeGasUsed": "0x17565f",
      "logs": [
        {
          "address": "0xfd086bc7cd5c481dcc9c85ebe478a1c0b69fcbb9",
          "topics": [
            "0xddf252ad1be2c89b69c2b068fc378daa952ba7f163c4a11628f55a4df523b3ef",
            "0x00000000000000000000000093af6d19a1738e52295014ac0103b005048df388",
            "0x00000000000000000000000027890ddf42fdd25c4af81b9f908a2c4cbad58613"
          ],
          "data": "0x000000000000000000000000000000000000000000000000000000001dcd6500",
          "blockHash": "0x74eceb1ddfe2d88290646a26ef3cfe5609a85f71cd62d2581270150298594287",
          "blockNumber": "0x1a24a150",
          "blockTimestamp": "0x69a987c4",
          "transactionHash": "0xc4dc6f03586c09214aac1737d721cc55f40bcba6063dd41a30018677fbf9d67a",
          "transactionIndex": "0x8",
          "logIndex": "0x20",
          "removed": false
        },
        {
          "address": "0xfd086bc7cd5c481dcc9c85ebe478a1c0b69fcbb9",
          "topics": [
            "0x8c5be1e5ebec7d5bd14f71427d1e84f3dd0314c0f7b2291e5b200ac8c7c3b925",
            "0x00000000000000000000000093af6d19a1738e52295014ac0103b005048df388",
            "0x00000000000000000000000027890ddf42fdd25c4af81b9f908a2c4cbad58613"
          ],
          "data": "0xffffffffffffffffffffffffffffffffffffffffffffffffffffffffe2329aff",
          "blockHash": "0x74eceb1ddfe2d88290646a26ef3cfe5609a85f71cd62d2581270150298594287",
          "blockNumber": "0x1a24a150",
          "blockTimestamp": "0x69a987c4",
          "transactionHash": "0xc4dc6f03586c09214aac1737d721cc55f40bcba6063dd41a30018677fbf9d67a",
          "transactionIndex": "0x8",
          "logIndex": "0x21",
          "removed": false
        },
        {
          "address": "0x667a8a91d6a6b99f455212bf2036d28b3170156a",
          "topics": [
            "0xddf252ad1be2c89b69c2b068fc378daa952ba7f163c4a11628f55a4df523b3ef",
            "0x0000000000000000000000000000000000000000000000000000000000000000",
            "0x00000000000000000000000093af6d19a1738e52295014ac0103b005048df388"
          ],
          "data": "0x000000000000000000000000000000000000000000000000000000001dcd6500",
          "blockHash": "0x74eceb1ddfe2d88290646a26ef3cfe5609a85f71cd62d2581270150298594287",
          "blockNumber": "0x1a24a150",
          "blockTimestamp": "0x69a987c4",
          "transactionHash": "0xc4dc6f03586c09214aac1737d721cc55f40bcba6063dd41a30018677fbf9d67a",
          "transactionIndex": "0x8",
          "logIndex": "0x22",
          "removed": false
        },
        {
          "address": "0x27890ddf42fdd25c4af81b9f908a2c4cbad58613",
          "topics": [
            "0x4bd8b0a7bbc7172d2940e584127de7cabad59a8c623444501d4e00e14f4ea0e1",
            "0x000000000000000000000000667a8a91d6a6b99f455212bf2036d28b3170156a"
          ],
          "data": "0x00000000000000000000000093af6d19a1738e52295014ac0103b005048df38800000000000000000000000093af6d19a1738e52295014ac0103b005048df388000000000000000000000000000000000000000000000000000000001dcd6500",
          "blockHash": "0x74eceb1ddfe2d88290646a26ef3cfe5609a85f71cd62d2581270150298594287",
          "blockNumber": "0x1a24a150",
          "blockTimestamp": "0x69a987c4",
          "transactionHash": "0xc4dc6f03586c09214aac1737d721cc55f40bcba6063dd41a30018677fbf9d67a",
          "transactionIndex": "0x8",
          "logIndex": "0x23",
          "removed": false
        }
      ],
      "logsBloom": "0x00000000000000000000000000000000000800000000100000000000000000000000000000000000000000100000000000000000000020400004010000200000000010000000000000200008000000000000000000000000000000000000000000000000020000000000000000080800000000000000000200000010000000000000000000000000000000000000000000000000008000012000000000000000020000000000000000000000000000000000000000000000000000000000000000008002008000000000000000400000000000000000000000000000000020000010000000100000000000080000000810000000000000000000000000000000",
      "type": "0x2",
      "transactionHash": "0xc4dc6f03586c09214aac1737d721cc55f40bcba6063dd41a30018677fbf9d67a",
      "transactionIndex": "0x8",
      "blockHash": "0x74eceb1ddfe2d88290646a26ef3cfe5609a85f71cd62d2581270150298594287",
      "blockNumber": "0x1a24a150",
      "gasUsed": "0x329ad",
      "effectiveGasPrice": "0x1312d00",
      "from": "0x93af6d19a1738e52295014ac0103b005048df388",
      "to": "0x27890ddf42fdd25c4af81b9f908a2c4cbad58613",
      "contractAddress": null,
      "gasUsedForL1": "0x1f7",
      "l1BlockNumber": "0x1773d0b",
      "timeboosted": false
    },
    {
      "status": "0x1",
      "cumulativeGasUsed": "0xb2bd6",
      "logs": [
        {
          "address": "0x912ce59144191c1204e64559fe8253a0e49e6548",
          "topics": [
            "0xddf252ad1be2c89b69c2b068fc378daa952ba7f163c4a11628f55a4df523b3ef",
            "0x00000000000000000000000093af6d19a1738e52295014ac0103b005048df388",
            "0x00000000000000000000000027890ddf42fdd25c4af81b9f908a2c4cbad58613"
          ],
          "data": "0x000000000000000000000000000000000000000000000103ff63a6d38f1c2024",
          "blockHash": "0x1fdc0e37eb6cf9679cd821c7ab9045b3f1e383b2ab5e1da390c04d80ba78a712",
          "blockNumber": "0x1a24a15a",
          "blockTimestamp": "0x69a987c6",
          "transactionHash": "0x4ab32ed93d10e0cd20499c2eeb9873a0ec671af35092c0cbc3b74a1f526c2ac7",
          "transactionIndex": "0x9",
          "logIndex": "0x8",
          "removed": false
        },
        {
          "address": "0xb59d6359d6532b8551ffec0530e95c2de00e5983",
          "topics": [
            "0xddf252ad1be2c89b69c2b068fc378daa952ba7f163c4a11628f55a4df523b3ef",
            "0x0000000000000000000000000000000000000000000000000000000000000000",
            "0x00000000000000000000000093af6d19a1738e52295014ac0103b005048df388"
          ],
          "data": "0x000000000000000000000000000000000000000000000103ff63a6d38f1c2024",
          "blockHash": "0x1fdc0e37eb6cf9679cd821c7ab9045b3f1e383b2ab5e1da390c04d80ba78a712",
          "blockNumber": "0x1a24a15a",
          "blockTimestamp": "0x69a987c6",
          "transactionHash": "0x4ab32ed93d10e0cd20499c2eeb9873a0ec671af35092c0cbc3b74a1f526c2ac7",
          "transactionIndex": "0x9",
          "logIndex": "0x9",
          "removed": false
        },
        {
          "address": "0x27890ddf42fdd25c4af81b9f908a2c4cbad58613",
          "topics": [
            "0x4bd8b0a7bbc7172d2940e584127de7cabad59a8c623444501d4e00e14f4ea0e1",
            "0x000000000000000000000000b59d6359d6532b8551ffec0530e95c2de00e5983"
          ],
          "data": "0x00000000000000000000000093af6d19a1738e52295014ac0103b005048df38800000000000000000000000093af6d19a1738e52295014ac0103b005048df388000000000000000000000000000000000000000000000103ff63a6d38f1c2024",
          "blockHash": "0x1fdc0e37eb6cf9679cd821c7ab9045b3f1e383b2ab5e1da390c04d80ba78a712",
          "blockNumber": "0x1a24a15a",
          "blockTimestamp": "0x69a987c6",
          "transactionHash": "0x4ab32ed93d10e0cd20499c2eeb9873a0ec671af35092c0cbc3b74a1f526c2ac7",
          "transactionIndex": "0x9",
          "logIndex": "0xa",
          "removed": false
        }
      ],
      "logsBloom": "0x00000000000000000000000000000000000800000000100000000000001000000000000000000000000000100000000000000000000020000000010000000000000000000000000000000008000100000000000000000000000000000000000000000000020000000020000000080800000000000000400200000010000000000000000000000000000000000000000000000000008000012000000000000000000000000000000000000000000000000000000000000000000200000000000000000002008000000000000000000000000000000008000000000001000020000000000000100000000000000000000800000000000000000000000000000100",
      "type": "0x2",
      "transactionHash": "0x4ab32ed93d10e0cd20499c2eeb9873a0ec671af35092c0cbc3b74a1f526c2ac7",
      "transactionIndex": "0x9",
      "blockHash": "0x1fdc0e37eb6cf9679cd821c7ab9045b3f1e383b2ab5e1da390c04d80ba78a712",
      "blockNumber": "0x1a24a15a",
      "gasUsed": "0x31683",
      "effectiveGasPrice": "0x1325db0",
      "from": "0x93af6d19a1738e52295014ac0103b005048df388",
      "to": "0x27890ddf42fdd25c4af81b9f908a2c4cbad58613",
      "contractAddress": null,
      "gasUsedForL1": "0x1f5",
      "l1BlockNumber": "0x1773d0c",
      "timeboosted": false
    },
    {
      "status": "0x1",
      "cumulativeGasUsed": "0x175dc1",
      "logs": [
        {
          "address": "0xd88f38f930b7952f2db2432cb002e7abbf3dd869",
          "topics": [
            "0xddf252ad1be2c89b69c2b068fc378daa952ba7f163c4a11628f55a4df523b3ef",
            "0x0000000000000000000000000000000000000000000000000000000000000000",
            "0x00000000000000000000000093af6d19a1738e52295014ac0103b005048df388",
            "0x0000000000000000000000000000000000000000000000000000000000023cbb"
          ],
          "data": "0x",
          "blockHash": "0x802aef5c3cd39bd67f94c9b9c40d674e232dc3aea6e3891f5b2585c8472e6062",
          "blockNumber": "0x1a24a169",
          "blockTimestamp": "0x69a987ca",
          "transactionHash": "0x227e4598834db63e98641139ee3ec3b3143c8f064ccb45eddc78d880c11a07b5",
          "transactionIndex": "0x9",
          "logIndex": "0x6",
          "removed": false
        },
        {
          "address": "0x360e68faccca8ca495c1b759fd9eee466db9fb32",
          "topics": [
            "0xf208f4912782fd25c7f114ca3723a2d5dd6f3bcc3ac8db5af63baa85f711d5ec",
            "0x732538106e68eaea89c67f5105e83c00ac90a689f16ae6ab8708aeec26cd70bf",
            "0x000000000000000000000000d88f38f930b7952f2db2432cb002e7abbf3dd869"
          ],
          "data": "0xfffffffffffffffffffffffffffffffffffffffffffffffffffffffffff2764c00000000000000000000000000000000000000000000000000000000000d89b400000000000000000000000000000000000000000000000000058069792e91420000000000000000000000000000000000000000000000000000000000023cbb",
          "blockHash": "0x802aef5c3cd39bd67f94c9b9c40d674e232dc3aea6e3891f5b2585c8472e6062",
          "blockNumber": "0x1a24a169",
          "blockTimestamp": "0x69a987ca",
          "transactionHash": "0x227e4598834db63e98641139ee3ec3b3143c8f064ccb45eddc78d880c11a07b5",
          "transactionIndex": "0x9",
          "logIndex": "0x7",
          "removed": false
        },
        {
          "address": "0xfd086bc7cd5c481dcc9c85ebe478a1c0b69fcbb9",
          "topics": [
            "0x8c5be1e5ebec7d5bd14f71427d1e84f3dd0314c0f7b2291e5b200ac8c7c3b925",
            "0x00000000000000000000000027890ddf42fdd25c4af81b9f908a2c4cbad58613",
            "0x000000000000000000000000fd55530f772784902e91ef952cffe9a569bf2888"
          ],
          "data": "0x000000000000000000000000000000000000000000000000000000001dcd6500",
          "blockHash": "0x802aef5c3cd39bd67f94c9b9c40d674e232dc3aea6e3891f5b2585c8472e6062",
          "blockNumber": "0x1a24a169",
          "blockTimestamp": "0x69a987ca",
          "transactionHash": "0x227e4598834db63e98641139ee3ec3b3143c8f064ccb45eddc78d880c11a07b5",
          "transactionIndex": "0x9",
          "logIndex": "0x8",
          "removed": false
        },
        {
          "address": "0xfd086bc7cd5c481dcc9c85ebe478a1c0b69fcbb9",
          "topics": [
            "0xddf252ad1be2c89b69c2b068fc378daa952ba7f163c4a11628f55a4df523b3ef",
            "0x00000000000000000000000027890ddf42fdd25c4af81b9f908a2c4cbad58613",
            "0x000000000000000000000000360e68faccca8ca495c1b759fd9eee466db9fb32"
          ],
          "data": "0x000000000000000000000000000000000000000000000000000000001dcd6500",
          "blockHash": "0x802aef5c3cd39bd67f94c9b9c40d674e232dc3aea6e3891f5b2585c8472e6062",
          "blockNumber": "0x1a24a169",
          "blockTimestamp": "0x69a987ca",
          "transactionHash": "0x227e4598834db63e98641139ee3ec3b3143c8f064ccb45eddc78d880c11a07b5",
          "transactionIndex": "0x9",
          "logIndex": "0x9",
          "removed": false
        },
        {
          "address": "0xfd086bc7cd5c481dcc9c85ebe478a1c0b69fcbb9",
          "topics": [
            "0x8c5be1e5ebec7d5bd14f71427d1e84f3dd0314c0f7b2291e5b200ac8c7c3b925",
            "0x00000000000000000000000027890ddf42fdd25c4af81b9f908a2c4cbad58613",
            "0x000000000000000000000000fd55530f772784902e91ef952cffe9a569bf2888"
          ],
          "data": "0x0000000000000000000000000000000000000000000000000000000000000000",
          "blockHash": "0x802aef5c3cd39bd67f94c9b9c40d674e232dc3aea6e3891f5b2585c8472e6062",
          "blockNumber": "0x1a24a169",
          "blockTimestamp": "0x69a987ca",
          "transactionHash": "0x227e4598834db63e98641139ee3ec3b3143c8f064ccb45eddc78d880c11a07b5",
          "transactionIndex": "0x9",
          "logIndex": "0xa",
          "removed": false
        },
        {
          "address": "0x360e68faccca8ca495c1b759fd9eee466db9fb32",
          "topics": [
            "0x1b3d7edb2e9c0b0e7c525b20aaaef0f5940d2ed71663c7d39266ecafac728859",
            "0x0000000000000000000000000000000000000000000000000000000000000000",
            "0x000000000000000000000000fd55530f772784902e91ef952cffe9a569bf2888",
            "0x000000000000000000000000fd086bc7cd5c481dcc9c85ebe478a1c0b69fcbb9"
          ],
          "data": "0x000000000000000000000000fd55530f772784902e91ef952cffe9a569bf2888000000000000000000000000000000000000000000000000000000001dcd6500",
          "blockHash": "0x802aef5c3cd39bd67f94c9b9c40d674e232dc3aea6e3891f5b2585c8472e6062",
          "blockNumber": "0x1a24a169",
          "blockTimestamp": "0x69a987ca",
          "transactionHash": "0x227e4598834db63e98641139ee3ec3b3143c8f064ccb45eddc78d880c11a07b5",
          "transactionIndex": "0x9",
          "logIndex": "0xb",
          "removed": false
        },
        {
          "address": "0xfd55530f772784902e91ef952cffe9a569bf2888",
          "topics": [
            "0x8264632e96ad152ff940907a90887f3437b3263d6633ea08e2dc58b0230f851f",
            "0x000000000000000000000000ccfc96413ca7ddc9d8d0463c3abd3145a8596fc3",
            "0x00000000000000000000000027890ddf42fdd25c4af81b9f908a2c4cbad58613",
            "0x000000000000000000000000fd086bc7cd5c481dcc9c85ebe478a1c0b69fcbb9"
          ],
          "data": "0x000000000000000000000000000000000000000000000000000000001dcd6500",
          "blockHash": "0x802aef5c3cd39bd67f94c9b9c40d674e232dc3aea6e3891f5b2585c8472e6062",
          "blockNumber": "0x1a24a169",
          "blockTimestamp": "0x69a987ca",
          "transactionHash": "0x227e4598834db63e98641139ee3ec3b3143c8f064ccb45eddc78d880c11a07b5",
          "transactionIndex": "0x9",
          "logIndex": "0xc",
          "removed": false
        },
        {
          "address": "0x912ce59144191c1204e64559fe8253a0e49e6548",
          "topics": [
            "0x8c5be1e5ebec7d5bd14f71427d1e84f3dd0314c0f7b2291e5b200ac8c7c3b925",
            "0x00000000000000000000000027890ddf42fdd25c4af81b9f908a2c4cbad58613",
            "0x000000000000000000000000fd55530f772784902e91ef952cffe9a569bf2888"
          ],
          "data": "0x000000000000000000000000000000000000000000000103ff63a6d38eecddfa",
          "blockHash": "0x802aef5c3cd39bd67f94c9b9c40d674e232dc3aea6e3891f5b2585c8472e6062",
          "blockNumber": "0x1a24a169",
          "blockTimestamp": "0x69a987ca",
          "transactionHash": "0x227e4598834db63e98641139ee3ec3b3143c8f064ccb45eddc78d880c11a07b5",
          "transactionIndex": "0x9",
          "logIndex": "0xd",
          "removed": false
        },
        {
          "address": "0x912ce59144191c1204e64559fe8253a0e49e6548",
          "topics": [
            "0x8c5be1e5ebec7d5bd14f71427d1e84f3dd0314c0f7b2291e5b200ac8c7c3b925",
            "0x00000000000000000000000027890ddf42fdd25c4af81b9f908a2c4cbad58613",
            "0x000000000000000000000000fd55530f772784902e91ef952cffe9a569bf2888"
          ],
          "data": "0x0000000000000000000000000000000000000000000000000000000000000000",
          "blockHash": "0x802aef5c3cd39bd67f94c9b9c40d674e232dc3aea6e3891f5b2585c8472e6062",
          "blockNumber": "0x1a24a169",
          "blockTimestamp": "0x69a987ca",
          "transactionHash": "0x227e4598834db63e98641139ee3ec3b3143c8f064ccb45eddc78d880c11a07b5",
          "transactionIndex": "0x9",
          "logIndex": "0xe",
          "removed": false
        },
        {
          "address": "0x912ce59144191c1204e64559fe8253a0e49e6548",
          "topics": [
            "0xddf252ad1be2c89b69c2b068fc378daa952ba7f163c4a11628f55a4df523b3ef",
            "0x00000000000000000000000027890ddf42fdd25c4af81b9f908a2c4cbad58613",
            "0x000000000000000000000000360e68faccca8ca495c1b759fd9eee466db9fb32"
          ],
          "data": "0x000000000000000000000000000000000000000000000103ff63a6d38eecddfa",
          "blockHash": "0x802aef5c3cd39bd67f94c9b9c40d674e232dc3aea6e3891f5b2585c8472e6062",
          "blockNumber": "0x1a24a169",
          "blockTimestamp": "0x69a987ca",
          "transactionHash": "0x227e4598834db63e98641139ee3ec3b3143c8f064ccb45eddc78d880c11a07b5",
          "transactionIndex": "0x9",
          "logIndex": "0xf",
          "removed": false
        },
        {
          "address": "0x360e68faccca8ca495c1b759fd9eee466db9fb32",
          "topics": [
            "0x1b3d7edb2e9c0b0e7c525b20aaaef0f5940d2ed71663c7d39266ecafac728859",
            "0x0000000000000000000000000000000000000000000000000000000000000000",
            "0x000000000000000000000000fd55530f772784902e91ef952cffe9a569bf2888",
            "0x000000000000000000000000912ce59144191c1204e64559fe8253a0e49e6548"
          ],
          "data": "0x000000000000000000000000fd55530f772784902e91ef952cffe9a569bf2888000000000000000000000000000000000000000000000103ff63a6d38eecddfa",
          "blockHash": "0x802aef5c3cd39bd67f94c9b9c40d674e232dc3aea6e3891f5b2585c8472e6062",
          "blockNumber": "0x1a24a169",
          "blockTimestamp": "0x69a987ca",
          "transactionHash": "0x227e4598834db63e98641139ee3ec3b3143c8f064ccb45eddc78d880c11a07b5",
          "transactionIndex": "0x9",
          "logIndex": "0x10",
          "removed": false
        },
        {
          "address": "0xfd55530f772784902e91ef952cffe9a569bf2888",
          "topics": [
            "0x8264632e96ad152ff940907a90887f3437b3263d6633ea08e2dc58b0230f851f",
            "0x000000000000000000000000ccfc96413ca7ddc9d8d0463c3abd3145a8596fc3",
            "0x00000000000000000000000027890ddf42fdd25c4af81b9f908a2c4cbad58613",
            "0x000000000000000000000000912ce59144191c1204e64559fe8253a0e49e6548"
          ],
          "data": "0x000000000000000000000000000000000000000000000103ff63a6d38eecddfa",
          "blockHash": "0x802aef5c3cd39bd67f94c9b9c40d674e232dc3aea6e3891f5b2585c8472e6062",
          "blockNumber": "0x1a24a169",
          "blockTimestamp": "0x69a987ca",
          "transactionHash": "0x227e4598834db63e98641139ee3ec3b3143c8f064ccb45eddc78d880c11a07b5",
          "transactionIndex": "0x9",
          "logIndex": "0x11",
          "removed": false
        },
        {
          "address": "0x667a8a91d6a6b99f455212bf2036d28b3170156a",
          "topics": [
            "0xddf252ad1be2c89b69c2b068fc378daa952ba7f163c4a11628f55a4df523b3ef",
            "0x00000000000000000000000093af6d19a1738e52295014ac0103b005048df388",
            "0x000000000000000000000000360e68faccca8ca495c1b759fd9eee466db9fb32"
          ],
          "data": "0x000000000000000000000000000000000000000000000000000000001dcd6500",
          "blockHash": "0x802aef5c3cd39bd67f94c9b9c40d674e232dc3aea6e3891f5b2585c8472e6062",
          "blockNumber": "0x1a24a169",
          "blockTimestamp": "0x69a987ca",
          "transactionHash": "0x227e4598834db63e98641139ee3ec3b3143c8f064ccb45eddc78d880c11a07b5",
          "transactionIndex": "0x9",
          "logIndex": "0x12",
          "removed": false
        },
        {
          "address": "0xb59d6359d6532b8551ffec0530e95c2de00e5983",
          "topics": [
            "0xddf252ad1be2c89b69c2b068fc378daa952ba7f163c4a11628f55a4df523b3ef",
            "0x00000000000000000000000093af6d19a1738e52295014ac0103b005048df388",
            "0x000000000000000000000000360e68faccca8ca495c1b759fd9eee466db9fb32"
          ],
          "data": "0x000000000000000000000000000000000000000000000103ff63a6d38eecddfa",
          "blockHash": "0x802aef5c3cd39bd67f94c9b9c40d674e232dc3aea6e3891f5b2585c8472e6062",
          "blockNumber": "0x1a24a169",
          "blockTimestamp": "0x69a987ca",
          "transactionHash": "0x227e4598834db63e98641139ee3ec3b3143c8f064ccb45eddc78d880c11a07b5",
          "transactionIndex": "0x9",
          "logIndex": "0x13",
          "removed": false
        }
      ],
      "logsBloom": "0x00000000000000000000000000000000000800000000000000100000001000000000006200000000000000100800000000000000000000400000010000200880080010000000000001200008000104000020000000000000004800000000000010000000020000000000000000000800000000000200400000000010000000000000000001000000000000000100000000000000008000002000000000018000020004000000000000000000004020080000000001000000000000a00000000000808002008000000480000000000000000004000008210000000011000020000010200040102000000020080000000014000000000000000000080804000008",
      "type": "0x2",
      "transactionHash": "0x227e4598834db63e98641139ee3ec3b3143c8f064ccb45eddc78d880c11a07b5",
      "transactionIndex": "0x9",
      "blockHash": "0x802aef5c3cd39bd67f94c9b9c40d674e232dc3aea6e3891f5b2585c8472e6062",
      "blockNumber": "0x1a24a169",
      "gasUsed": "0x101b64",
      "effectiveGasPrice": "0x1315be0",
      "from": "0x93af6d19a1738e52295014ac0103b005048df388",
      "to": "0xd88f38f930b7952f2db2432cb002e7abbf3dd869",
      "contractAddress": null,
      "gasUsedForL1": "0x4b4",
      "l1BlockNumber": "0x1773d0c",
      "timeboosted": false
    }
  ],
  "libraries": [],
  "pending": [],
  "returns": {},
  "timestamp": 1772718027355,
  "chain": 42161,
  "commit": "4f4bc25c"
}