{
  "transactions": [
    {
      "hash": null,
      "transactionType": "CALL",
      "contractName": null,
      "contractAddress": "0xf738a943e140315ac9b2a09fe2f709ed7b0dcf83",
      "function": "grantRole(bytes32,address)",
      "arguments": [
        "0x0000000000000000000000000000000000000000000000000000000000000000",
        "0xE0b42dF543e04bC1A5E92D74AB352799187f0980"
      ],
      "transaction": {
        "from": "0x93af6d19a1738e52295014ac0103b005048df388",
        "to": "0xf738a943e140315ac9b2a09fe2f709ed7b0dcf83",
        "gas": "0x10699",
        "value": "0x0",
        "input": "0x2f2ff15d0000000000000000000000000000000000000000000000000000000000000000000000000000000000000000e0b42df543e04bc1a5e92d74ab352799187f0980",
        "nonce": "0x9c",
        "chainId": "0xa4b1"
      },
      "additionalContracts": [],
      "isFixedGasLimit": false
    },
    {
      "hash": null,
      "transactionType": "CALL",
      "contractName": null,
      "contractAddress": "0xe0b42df543e04bc1a5e92d74ab352799187f0980",
      "function": "proxyCall(address,bytes)",
      "arguments": [
        "0xf738a943e140315Ac9B2a09FE2f709ED7B0dcF83",
        "0xd547741f000000000000000000000000000000000000000000000000000000000000000000000000000000000000000093af6d19a1738e52295014ac0103b005048df388"
      ],
      "transaction": {
        "from": "0x93af6d19a1738e52295014ac0103b005048df388",
        "to": "0xe0b42df543e04bc1a5e92d74ab352799187f0980",
        "gas": "0xcc07",
        "value": "0x0",
        "input": "0x2a31f6b4000000000000000000000000f738a943e140315ac9b2a09fe2f709ed7b0dcf8300000000000000000000000000000000000000000000000000000000000000400000000000000000000000000000000000000000000000000000000000000044d547741f000000000000000000000000000000000000000000000000000000000000000000000000000000000000000093af6d19a1738e52295014ac0103b005048df38800000000000000000000000000000000000000000000000000000000",
        "nonce": "0x9d",
        "chainId": "0xa4b1"
      },
      "additionalContracts": [],
      "isFixedGasLimit": false
    },
    {
      "hash": null,
      "transactionType": "CALL",
      "contractName": null,
      "contractAddress": "0xee9f85a6128182d83d7f27492f515a89bec0c13b",
      "function": "transferOwnership(address)",
      "arguments": [
        "0xE0b42dF543e04bC1A5E92D74AB352799187f0980"
      ],
      "transaction": {
        "from": "0x93af6d19a1738e52295014ac0103b005048df388",
        "to": "0xee9f85a6128182d83d7f27492f515a89bec0c13b",
        "gas": "0x111a6",
        "value": "0x0",
        "input": "0xf2fde38b000000000000000000000000e0b42df543e04bc1a5e92d74ab352799187f0980",
        "nonce": "0x9e",
        "chainId": "0xa4b1"
      },
      "additionalContracts": [],
      "isFixedGasLimit": false
    },
    {
      "hash": null,
      "transactionType": "CALL",
      "contractName": null,
      "contractAddress": "0xe0b42df543e04bc1a5e92d74ab352799187f0980",
      "function": "proxyCall(address,bytes)",
      "arguments": [
        "0xee9F85a6128182D83d7f27492f515A89BEc0C13b",
        "0x79ba5097"
      ],
      "transaction": {
        "from": "0x93af6d19a1738e52295014ac0103b005048df388",
        "to": "0xe0b42df543e04bc1a5e92d74ab352799187f0980",
        "gas": "0xe42a",
        "value": "0x0",
        "input": "0x2a31f6b4000000000000000000000000ee9f85a6128182d83d7f27492f515a89bec0c13b0000000000000000000000000000000000000000000000000000000000000040000000000000000000000000000000000000000000000000000000000000000479ba509700000000000000000000000000000000000000000000000000000000",
        "nonce": "0x9f",
        "chainId": "0xa4b1"
      },
      "additionalContracts": [],
      "isFixedGasLimit": false
    }
  ],
  "receipts": [],
  "libraries": [],
  "pending": [],
  "returns": {},
  "timestamp": 1772217209223,
  "chain": 42161,
  "commit": "18a03468"
}